:10000000E7C2000002C3000000C30000FEC20000FF
:10001000FCC20000FAC20000F8C20000F6C20000F4
:10002000F4C20000F2C20000F0C20000EEC2000004
:10003000ECC20000EAC200007CC40000E6C200007E
:10004000E4C20000E2C20000E0C20000DEC2000024
:10005000DCC20000DAC20000D8C20000D6C2000034
:10006000D4C20000D2C20000A0A1A1A01B09A51CFF
:10007000A010A0A0201A0111B12C0D0E0216031819
:10008000A00B0A0807060413A00915191412051776
:10009000A0A6A40D0A0F0CA0A01D1BA0A0C0BFBE4F
:1000A00000BDBCBBBAB9B8B7A8A9AAAB00C1ADAC7A
:1000B000A0A1A1A01B09A55C7F503B2F205A415154
:1000C000A02C4D4E42564358A04B4A4847464453F5
:1000D000A049555954524557A0A6A40D0A4F4C2E7D
:1000E0007E5D5B2D3A303938403736353433323126
:1000F000A8A9AAAB00C1ADACA0A1A1A01B09A57C79
:100100007F502B3F205A4151B23C4D4E42564358EE
:10011000A04B4A4847464453A04955595452455765
:10012000A0A6A40D0A4F4C3E7E7D7B3D2A30292897
:100130006027262524232221A8A9AAAB00C1ADACA3
:10014000A0A1A1A01B09A55C7F703B2F207A617143
:10015000A02C6D6E62766378A06B6A6867666473C4
:10016000A069757974726577A0A6A40D0A6F6C2ECC
:100170007E5D5B2D3A303938403736353433323195
:10018000A8A9AAAB00C1ADACA4A1A1A0A01BA515B4
:10019000A010A05C201A0111A05B0D0E021603181E
:1001A000A00B0A0807060413A00915191412051755
:1001B000A0A0A00DA60F0C5DA0A0B15FA0C07D7B8C
:1001C0007F605EBBBAB97E7CA8A9AAAB00C1ADAC0A
:1001D000A4A1A1A0A01BA515A0503B2F205A4151BE
:1001E000A02C4D4E42564358A04B4A4847464453D4
:1001F000A049555954524557A0A0A00DA64F4C2ECA
:10020000A0A0A02D3A303938083736353433323192
:10021000A8A9AAAB00C1ADACA4A1A1A0A01BA51523
:10022000A0402B3F205A4151A03C4D5E42564358BE
:10023000A04B4A4847464453A04955595452455744
:10024000A0A0A00DA64F4C3EA0A0B23D2AA02928F8
:100250000827262524232221A8A9AAAB00C1ADACDA
:10026000A4A1A1A0A01BA515A0502B3F205A41512D
:10027000A03C4D4E42564358A04B4A484746445333
:10028000A049555954524557A0A0A00D404F4C3E8F
:10029000A0A0B23D2A402928082726252423222170
:1002A000A8A9AAAB00C1ADACA4A1A1A0A01BA51593
:1002B0007F703B2F207A6171A02C6D6E627663781F
:1002C000A06B6A6867666473A069757974726577F4
:1002D000A0A0A00D5E6F6C2EA0A0A02D3A303938E2
:1002E0000837363534333231A8A9AAAB00C1ADACDA
:1002F000A5A20113040607080A0B0C0B0A7FB1A57F
:10030000A4A11A180316020E0D0C0E0FA180A0A0B6
:100310001B010203040506070809000D1E1B1C1D16
:10032000B20911170512141915090F10000D0A8CC6
:10033000A8A9AAAB00C1ADACB3978120939A8E8BCC
:100340002D372A382F39A0A0343135323633A0A0CA
:10035000302E2BA0A0A0A0A0A5A241534446474800
:100360004A4B4C3B3A5FA6A5A4A15A584356424E6D
:100370004D3C3E3FA180A0A01B21222324252627FF
:100380002829203D7E5B5C5DB20951574552545986
:1003900055494F50600D0A8CA8A9AAAB00C1ADAC5D
:1003A000B3978120939A8E8B2D372A382F39A0A0AE
:1003B000343135323633A0A0302E2BA0A0A0A0A01F
:1003C000A5A24153444647484A4B4C3B3A7FA6A519
:1003D000A4A15A584356424E4D2C2E2FA180A0A0C6
:1003E0001B313233343536373839302D5E5B5C5D46
:1003F000B20951574552545955494F50400D0A8C36
:10040000A8A9AAAB00C1ADACB3978120939A8E8BFB
:100410002D372A382F39A0A0343135323633A0A0F9
:10042000302E2BA0A0A0A0A0A5A26173646667686F
:100430006A6B6C3B3A7FA6A5A4A17A786376626E5C
:100440006D2C2E2FA180A0A01B31323334353637CE
:100450003839302D5E5B5C5DB209717765727479F5
:1004600075696F70400D0A8CA8A9AAAB00C1ADAC2C
:10047000B3978120939A8E8B2D372A382F39A0A0DD
:10048000343135323633A0A0302E2BA0A0A0A0A04E
:100490001B0313A509A4A1203111011A3217131847
:1004A0003305040334120616351407023619080EF4
:1004B00037150A0D38090B2C390F0C2E153D3D2A26
:1004C00030103B2F3734313E2D7B27A13835323069
:1004D000A8A9AAAB00C1ADAC2F1D0D083936332E2B
:1004E0001B0313A509A4A1203151415A3257535877
:1004F0003345444334524656355447423659484EA4
:1005000037554A4D38494B2C394F4C2E152D3D2A25
:1005100030503B2F3734313E2D7B27A138353230D8
:10052000A8A9AAAB00C1ADAC2F5B0D083936332E9C
:100530001B0313A509A4A1202151415A4057535828
:100540002345444324524656255447425E59484E5B
:1005500026554A4D2A494B3C284F4C3E155F2B2AC5
:1005600029503A3F2624213E2D7D22A12A254029CB
:10057000A8A9AAAB00C1ADAC3F5D0D08285E233E23
:100580001B0313A509A4A1203171617A3277737816
:100590003365646334726676357467623679686E83
:1005A00037756A6D38696B2C396F6C2E152D3D2AA5
:1005B00030703B2F3734313E2D7B27A13835323018
:1005C000A8A9AAAB00C1ADAC2F5B0D083936332EFC
:1005D00011241FBECFEFD4E0DEBFCDBF12E0A0E0FC
:1005E000B1E0ECECFDE102C005900D92AE31B10737
:1005F000D9F723E0AEE1B2E001C01D92A63BB207FD
:10060000E1F70E94220E0C94950EFACC805A8132AA
:1006100008F038C0E82FF0E0E956F14F0C946B0E6B
:1006200014C415C418C41CC427C44AC5C0C3C7C356
:10063000CEC3D5C3D3C12CC587E0D1C588E0CFC513
:1006400089E0CDC581E0CBC582E0C9C583E0C7C5DF
:1006500084E0C5C585E0C3C586E0C1C585E007C3A4
:1006600086E005C387E003C388E001C389E0FFC2D9
:100670008AE0FDC28BE0FBC28CE0F9C28DE0F7C2DC
:100680008EE0F5C20895682F809121027CC2CF933D
:10069000C82F813A18F0BADFCF910895F4DF809126
:1006A00022028C17C9F3C0932202D5D4F5CFCF9381
:1006B000C82F8A3041F06C2F8091200264D28C2F99
:1006C00090E0CF9108958DE0F2DFF5CFCF93DF93E7
:1006D0000F92CDB7DEB7809120028FD28983803A06
:1006E00051F080911E0290911F028DD189810F904F
:1006F000DF91CF910895809121027FD28983F6CF37
:1007000090E090931F0280931E020895CF93DF9391
:1007100000D0CDB7DEB789836A83B7D3482F6A810B
:10072000898161D30F900F90DF91CF9108957F92CF
:100730008F929F92AF92BF92CF92DF92EF92FF92F1
:100740000F931F93CF93DF9382E0A0D24C0184E0FC
:100750008ED200E00F2EFAE07F2EF02DAA24A39473
:10076000B12C75C08C2F90E0F701EC0FF11D2081AA
:1007700021502115D1F02083D6951695CF5FDBD27D
:10078000C81708F063C0D0FDEDCF10FFF5CF6C2F78
:10079000802FBCDF909122028913EECFB6D4811551
:1007A00059F38091220273DFE7CFF701E80FF91FB9
:1007B000708210FF13C095010C2E02C0220F331F50
:1007C0000A94E2F7C901F601ED55FD4F9081892B9E
:1007D00080836C2F802F9ADF5ADFCECFF5010C2E4D
:1007E00002C0EE0FFF1F0A94E2F7CF018095F601D9
:1007F000ED55FD4F9081892380836C2F802F86DFFC
:10080000813A40F4909122028913B6CFF0EAF09336
:100810002202B2CF815A8D3008F0AECFE82FF0E03F
:10082000E854F14F0C946B0E2BD3A6CF2BD3A4CF4F
:100830005FD4A2CFB8D2A0CFBED29ECFC4D29CCF1D
:10084000CAD29ACFCED098CF0FD496CF0F5F68D2AE
:100850000817C0F4802FF4010995182FC02ED12C51
:10086000F601ED55FD4FD081D827C0E0C601880FB5
:10087000991F880F991F880F991F9C012D5D3D4F6F
:1008800079017DCFDF91CF911F910F91FF90EF9074
:10089000DF90CF90BF90AF909F908F907F90089502
:1008A0001F93CF93DF9310E00DC06C2F812F2EDFAD
:1008B000ADDED695CF5F3FD2C81718F4D0FFF9CF81
:1008C000F4CF1F5F2DD2181738F4E12FF0E0ED556B
:1008D000FD4FD081C0E0EFCFDF91CF911F91089500
:1008E00080EA809322020DD1A7D35BD280E190E011
:1008F0001BD18093210280E890E016D180932002E2
:10090000A3EAB2E0E3E2F2E023EB32E08AE01D92F8
:1009100080838183828383838483858386838783A3
:100920003896A217B30799F708953C9A259A249A06
:1009300008958F9381E08093B4028F9118958091F0
:10094000B4021092B4020895811511F044980895EC
:10095000449A0895811511F02D9A08952D980895BF
:10096000811511F02C9A08952C980895811519F08D
:10097000459A3D9A08954598FCCF811519F03D9808
:10098000459A089545983D9A0895811519F0459A1C
:100990003D9A08953D9845980895811519F02B9832
:1009A000239A08952B9AFCCF0895089508958115F0
:1009B00019F02F9A279A08952F98FCCF811519F0D6
:1009C00027982F9A08952F98279A0895811519F03E
:1009D0002F9A279A089527982F9808952E98269A47
:1009E00008952E9A269A08958AE18A95F1F700C013
:1009F00008952FE788E391E0215080409040E1F78F
:100A000000C000000895009769F020E030E0EFECAE
:100A1000F7E03197F1F700C000002F5F3F4F8217DA
:100A20009307A9F70895F8941092B40287E0809391
:100A300061001092B4028CE787BD15BC82E084BDD2
:100A400080936E0083E085BD8091B3028BB98FEFF8
:100A50008AB91092B302C2DF68DF67DF88B1807F96
:100A600088B987B18F6087B92A98229A299A219AE2
:100A7000209828987894089598B1907F8F70982B3B
:100A800098B929982A9A2A98299A40E050E080E05B
:100A900023B130E02095309521703327042E02C019
:100AA000220F331F0A94E2F7822B2A9A2A984F5F6B
:100AB0005F4F4830510561F708959091B30289273F
:100AC0008BB91E9A8AE18A95F1F700C01E9A0895A3
:100AD000833071F030F0843061F0853039F40C945B
:100AE000E30D813021F0823009F4ABC739C76BC701
:100AF000DCC70C949B0D982F81E0963008F080E0C5
:100B000008951092B7021092B6021092B50208959D
:100B1000811544F091E02091B50282170CF090E02D
:100B2000892F089580E008954091B50244303CF546
:100B30006091B6027091B70220E930E0261B370BB6
:100B400028173907F4F021E0240F2093B50227E09D
:100B50004202F0011124E854FD4F938382839B01EC
:100B60002C523D4F31832083148215821682860FCA
:100B7000971F9093B7028093B602842F08954FEF8A
:100B8000FCCF4FEFFACFCF93DF9300D0CDB7DEB7D6
:100B900089836A83BDDF811559F12981822F022E55
:100BA000000C990B37E02302F0011124E854FD4FAB
:100BB00026816281738126171706D4F4FC01EE0F9B
:100BC000FF1FEE0FFF1FEE0FFF1FE81BF90BE8548E
:100BD000FD4F3481832F90E0A081B181A30FB11D1F
:100BE0003A813C9301960E94360E84832F5F2683C0
:100BF0000F900F90DF91CF910895CF93DF930F92D5
:100C0000CDB7DEB7898384DF30EA811551F12981C0
:100C1000822F022E000C990B37E02302F0011124E1
:100C2000E854FD4F268130EA2115D9F0FC01EE0F82
:100C3000FF1FEE0FFF1FEE0FFF1FE81BF90BE8541D
:100C4000FD4F3581832F90E0A081B181A30FB11DAD
:100C50003C910196628173810E94360E85832150FA
:100C60002683832F0F90DF91CF91089508959FEFF2
:100C7000980F9F3050F4E82FF0E0EE0FFF1FEC5973
:100C8000FC4F0190F081E02D099508959FEF980F9A
:100C90009F3048F4E82FF0E0EE0FFF1FEC59FC4FB7
:100CA00080819181089586E396E008959FEF980FE3
:100CB0009F3040F4E82FF0E0EE0FFF1FEC59FC4F9F
:100CC000718360830895E4E6F3E024E833E086E38B
:100CD00096E081939193E217F307D9F7E4E6F3E006
:100CE0008CE395E0958384838DE595E097838683F7
:100CF00087E993E0938382830895643080F44131DF
:100D000070F4293060F4E62FF0E0EE0FFF1FEE0FD5
:100D1000FF1FEB57FC4F9183808342832383089509
:100D2000B4D0E82FF0E0EE0FFF1FEE0FFF1FEB57E0
:100D3000FC4F82810895A9D0E82FF0E0EE0FFF1F4D
:100D4000EE0FFF1FEB57FC4F83810895CF93DF9386
:100D500000D0CDB7DEB78983CEDE811105C00F90FC
:100D60000F90DF91CF9108958981809384035BDE9A
:100D70001A8220E040E06A8180E090E0BEDF8A8154
:100D80008F5F8A838430A9F75FD29DDF8981A0DEDF
:100D900087DD66D2E4CF90918403981301C0089553
:100DA000D5CF80E0D3CF809184038E7FF4CF809124
:100DB00084038160F0CF809184038D7FECCF80919C
:100DC00084038260E8CF809184038B7FE4CF80919D
:100DD00084038460E0CF80918403877FDCCF80919F
:100DE00084038860D8CF50E0FA01EE0FFF1FEE0FAA
:100DF000FF1FEB57FC4FE381E115E1F0DA01AA0F89
:100E0000BB1FAA0FBB1FAB57BC4F12969C919115ED
:100E100099F0440F551F440F551FDA01AB57BC4FD3
:100E200070E08E9F600D711D1124ED91FD91E60F14
:100E3000F71FE4918E2F0895E92FFCCF809397033D
:100E400061E081FF62E08BE08CC181E0F7CF8091AF
:100E500097038260F3CF8091970392E08927EECFCA
:100E60009091960381E089278093960361E0913009
:100E700009F462E08AE075C181E0809395030895EA
:100E800080E0DCCF109295030895E1E08091970314
:100E9000811101C0E0E0809196038111E2608091B0
:100EA00095038111E460F0E0EC5CFE4F80810895D1
:100EB000CF93DF9300D00F92CDB7DEB76983282F91
:100EC00030E0220F331F220F331F20503F4F3B8350
:100ED0002A83D901ED91FD91862F09952981EA8117
:100EE000FB8122830F900F900F90DF91CF91089597
:100EF000CF93DF93C82FD0E0CC0FDD1FCC0FDD1FC9
:100F0000C050DF4FE881F98181E0099581E08A8353
:100F1000DF91CF910895CF93DF93C82FD0E0CC0F0E
:100F2000DD1FCC0FDD1FC050DF4FE881F98180E06D
:100F300009951A82DF91CF910895A82FB0E0AA0FEA
:100F4000BB1FAA0FBB1FA050BF4FED91FD918C910D
:100F500009950895E82FF0E0EE0FFF1FEE0FFF1F39
:100F6000E050FF4F61E09281911160E0A1CF382FF6
:100F70009091030180E0911581F0391781F0E92FFC
:100F8000F0E0EE0FFF1FEE0FFF1FE050FF4F238139
:100F9000892F211529F0922FF0CF8DE00895089523
:100FA0008DE00895E82FF0E0EE0FFF1FEE0FFF1F1A
:100FB000E050FF4F83810895CF93DF9300D00F92CD
:100FC000CDB7DEB789836A834B83D1DF9981915096
:100FD0009C30E0F48D3009F19981E92FF0E0EE0FBB
:100FE000FF1FEE0FFF1FE050FF4F9381A82FB0E0CF
:100FF000AA0FBB1FAA0FBB1FA050BF4F13969C93F5
:101000008A8183839B81928381E001C080E00F907D
:101010000F900F90DF91CF91089580E0F8CFE2E03C
:10102000F1E080E091E090838F5F818334968D3092
:10103000D1F71092330108958DE092E090939B03D5
:1010400080939A0390939D0380939C0390939903BC
:1010500080939803089580919C0390919D039093B1
:10106000990380939803089510929B0310929A031A
:1010700080919C0390919D038234910541F01092E0
:101080009D0310929C031092990310929803089567
:101090008DE092E090939B0380939A0380919C0350
:1010A00090919D038234910551F08DE092E09093F0
:1010B0009D0380939C0390939903809398030895D4
:1010C00080919803909199038334910530F4809135
:1010D0009C0390919D03892B51F482E490E09093BE
:1010E0009D0380939C0390939903809398030895A4
:1010F00080919A0390919B0390939D0380939C030E
:101100009093990380939803089580919803909108
:101110009903009789F00197009731F09093990314
:101120008093980380E0089582E490E0909399037F
:101130008093980381E0089580E008950F931F93B2
:10114000CF938C01C62F611541F08C2FF8010995C2
:101150008C2F28DFC82F8111F8CFCF911F910F91CD
:101160000895CF93DF930F92CDB7DEB7E82FF0E06D
:10117000EE0FFF1FE256FC4F80818983633001F13F
:1011800048F0643081F06530B9F469818AEA97E00B
:10119000D5DF12C06130F1F0623071F469818BE803
:1011A00097E0CCDF09C069818AEA97E0C7DF21DCDC
:1011B00069818AEA97E0C2DF0F90DF91CF910895AD
:1011C00069818AEA97E0BADF0FDC69818AEA97E0F1
:1011D000B5DFF2CF698188E797E0B0DFEDCFE82F88
:1011E000F0E0EE0FFF1FE256FC4F6181BACFCF93C4
:1011F000DF9300D000D0CDB7DEB769834A839FEF7D
:10120000980F9B3038F00F900F900F900F90DF9158
:10121000CF910895482F50E05C834B83FA01EE0F85
:10122000FF1FE256FC4F422F60818981C5DE811588
:1012300051F3EB81FC81EE0FFF1FE256FC4F598109
:1012400050838A818183DFCFEADEEEE9F3E086EB2B
:1012500093E0118210823296E817F907D1F70895CA
:10126000CF93C0E08C2F69DECF5FCD30D9F7CF911F
:101270000895AF92BF92CF92DF92EF92FF920F93B9
:101280001F93CF93DF937C016B01E801211531059A
:1012900099F094F0890101501109A42EB12CB601E6
:1012A000C501F7010995688179816F5F7F4F798367
:1012B00068830150110998F7DF91CF911F910F9129
:1012C000FF90EF90DF90CF90BF90AF9008952F9256
:1012D0003F924F925F926F927F928F929F92AF92C6
:1012E000BF92CF92DF92EF92FF920F931F93CF9313
:1012F000DF9300D000D0CDB7DEB79A8389831B017E
:1013000049015A0127013801672B09F46BC081E4B8
:10131000C11001C081E629813A81690101E010E034
:101320000F2EF6EFFF2EF02DF80E3C832B8318C006
:101330006F0DF601608384149504A604B704F0F0E1
:10134000C501B401A3019201A4D449015A01C80105
:101350000196FFEFCF1ADF0A0215130578F48C010E
:10136000C501B401A301920194D46A3071058105CD
:101370009105F0F6605DD6016C93DDCF980136954E
:10138000279521153105A9F0E981FA81E00FF11FB8
:1013900089819A81280F391FAB81BC818D91BC83D3
:1013A000AB8392919E9380838B819C81821793075C
:1013B00099F7802F912F0F900F900F900F90DF9142
:1013C000CF911F910F91FF90EF90DF90CF90BF9042
:1013D000AF909F908F907F906F905F904F903F90D5
:1013E0002F90089580E090E0E6CF2F923F924F92A9
:1013F0005F926F927F928F929F92AF92BF92CF92A5
:10140000DF92EF92FF920F931F93CF93DF93CDB7AD
:10141000DEB761970FB6F894DEBF0FBECDBF3C01BB
:101420002B011801E98A86017501C82C8EA09FA0A6
:1014300060E170E0CE0101964ADF7C010097B1F1D6
:10144000ACF189898115C1F1E214F3040CF440C0B8
:101450008E010F5F1F4FE00EF11EF80181918F0189
:10146000B20190E0F3010995F40180819181019628
:10147000918380830E151F0581F761960FB6F8944E
:10148000DEBF0FBECDBFDF91CF911F910F91FF90B7
:10149000EF90DF90CF90BF90AF909F908F907F9014
:1014A0006F905F904F903F902F90089580E38983D5
:1014B000EE24E394F12CC5CFE214F3044CF6910131
:1014C0002E193F09840140E2B201C301D2DEC0CF30
:1014D00091012E193F09840140E3B201C301C9DE25
:1014E000B7CF60E070E0E3C82F923F924F925F92D7
:1014F0006F927F928F929F92AF92BF92CF92DF9224
:10150000EF92FF920F931F93CF93DF93CDB7DEB788
:101510006B970FB6F894DEBF0FBECDBF9C8B8B8B45
:101520001B012A0169011A821982452B41F5898123
:101530009A816B960FB6F894DEBF0FBECDBFDF91D8
:10154000CF911F910F91FF90EF90DF90CF90BF90C0
:10155000AF909F908F907F906F905F904F903F9053
:101560002F9008952FEF421A520AB10190E0EB89B3
:10157000FC89099589819A8101969A838983D20190
:101580008C918115A1F2853269F7D20111968C9167
:10159000853279F18033E1F1D20111961F8A1C91D5
:1015A00080ED810F8A30C8F5FD013196612C712CD8
:1015B000C301880F991F880F991F680E791E660C4A
:1015C000771CA12FA053BB0B6A0E7B1EDF0111916C
:1015D00080ED810F8A3060F32D01EFEF4E1A5E0A25
:1015E000E8EAE10FE13208F07BC1F0E0EB53F14FA4
:1015F00072C3B10185E290E0EB89FC89099589818C
:101600009A8101969A838983F2E04F0E511CB7CFDD
:10161000D201129621E02F8BC2CF612C712CDCCF2E
:10162000D601ED90FD906D01B2E06B1671040CF4E3
:1016300069C1EF89E115B1F0B101C701EB89FC89FE
:10164000099589819A8101969A8389839301215012
:1016500031098E010F5F1F4F40E3B1018B899C89D7
:1016600008DE8DCF9301215031098E010F5F1F4F8E
:1016700040E2B1018B899C89FCDDB101C701EB8996
:10168000FC89099589819A8101969A83898377CF0C
:10169000D601AD90BD906D01A114B104D1F1F50159
:1016A0008081811509F439C1F5013196E12CF12CC5
:1016B0002FEFE21AF20A81918111FACF61147104BD
:1016C00079F074F0E614F70478F493012E193F09C9
:1016D0008E010F5F1F4F40E2B1018B899C89C9DDEC
:1016E000E114F10409F44BCF8501EA0CFB1CAB8833
:1016F000BC88D8018D918D01B10190E0F50109956B
:1017000089819A8101969A838983E016F10689F787
:1017100036CF0F2EFCE3AF2EF1E0BF2EF02DC4CF5D
:10172000D6018D909D90AD90BD90BE8BAD8BB7FADC
:1017300088279927DC0180F9888F998FAA8FBB8F22
:10174000BB2044F1C12C1AE0E12EF12C00E010E0A6
:10175000A501940160E170E0CE010396B8DD7C0143
:101760008C01B88D0B0F111DEF89E11141C00615D9
:1017700017050CF45DC0BB200CF03DC0B1018DE23B
:1017800090E0EB89FC89099589819A8101969A8379
:10179000898331C0FB2CFF0CCC08DC2C7601282D72
:1017A000392D4A2D5B2D6C2D7C2D8C2D9C2D99D2A5
:1017B000C12C1AE0E12EF12C00E010E060E170E0B5
:1017C000CE01039684DD7C018C01988D090F111DDB
:1017D000AF89A11561F2BB205CF4B1018DE290E00C
:1017E000EB89FC89099589819A8101969A8389837D
:1017F000061517054CF1E114F104B9F0B4F08E01AF
:101800000D5F1F4FE00EF11ECB88DC88D8018D9153
:101810008D01B10190E0F601099589819A810196C7
:101820009A838983E016F10689F7CD88DE88A7CEF2
:101830009301201B310B8E010F5F1F4F40E2B1015E
:101840008B899C8916DD97CF9301201B310B8E016C
:101850000F5F1F4F40E3B1018B899C890ADDCBCF1D
:10186000D6012D913D914D915D91BE8BAD8BCE01F9
:1018700001969F938F93812C0F2EFAE0AF2EB12CFF
:10188000C12CD12CF02DEF888301B1018B899C896B
:10189000ACDD0F900F90CD88DE8871CEF6013496C6
:1018A000FE8BED8B88248394183509F0812CD601AA
:1018B0002D913D914D915D91CE0101969F938F9316
:1018C000A12CB12C65016894A4F8EF888301B101C3
:1018D0008B899C898ADD0F900F90CD88DE884FCE52
:1018E000B10185E290E0EB89FC890995B101812F76
:1018F00090E0EB89FC89099589819A8102969A8307
:1019000089833DCEB101C701EB89FC8909958981A5
:101910009A8101969A83898332CEE12CF12C61144D
:10192000710411F00CF0D1CE2ACECF93DF93CDB756
:10193000DEB79E012B5F3F4FF901419151919F010D
:1019400060E070E081E79AE0CFDDDF91CF9108950C
:1019500083E491E09F938F93E8DF0F900F900895B9
:1019600088E20E94800360E080E058D062E081E07D
:1019700055D061E082E052D063E083E04FD068EA66
:101980007CE08EE093D960E87DE08DE08FD921E0A6
:1019900040E06AE087E02BDC20E040E06CE08AE099
:1019A00026DC21E043E068E081E021DC20E044E047
:1019B00063E082E01CCC83E491E09F938F93B5DFDA
:1019C0000F900F90089588E20E94800360E081E00C
:1019D00025D062E081E022D061E082E01FD063E0A8
:1019E00083E01CD06BED7CE08EE060D960E87DE0A8
:1019F0008DE05CD921E040E06AE087E0F8DB20E0A0
:101A000040E06CE087E0F3DB21E043E068E081E068
:101A1000EEDB20E044E063E082E0E9CBE82FF0E099
:101A2000EE0FFF1FEC5FFD4F28E049E080819181C0
:101A300064C986E591E09F938F9377DF0F900F90B5
:101A4000089588E20E94800360E080E061D062E057
:101A500081E05ED061E082E05BD063E084E058D05A
:101A600060E87DE087E022D969E17DE08EE01ED963
:101A700020E040E06AE08AE0BADB20E040E06CE091
:101A800088E0B5DB21E043E068E081E0B0DB20E006
:101A900044E063E082E0ABDBE3C983E791E09F933E
:101AA0008F9343DF0F900F90089588E20E94800388
:101AB00060E081E02DD062E081E02AD061E083E047
:101AC00027D063E084E024D060E87DE08DE0EED8AC
:101AD0006DE47DE08EE0EAD820E040E06AE087E057
:101AE00086DB20E040E06CE088E081DB21E043E041
:101AF00068E081E07CDB20E044E063E082E077CBDB
:101B00008AE891E09F938F9310DF0F900F900895D4
:101B1000E82FF0E0EE0FFF1FE45FFD4F28E049E003
:101B200080819181EAC881EE91E09F938F93FDDEE1
:101B30000F900F90089528E04DE060E088E294E077
:101B4000DCD828E04DE062E080EC93E0D6D828E0D5
:101B50004DE061E088E593E0D0D828E04DE063E017
:101B600080EF92E0CAD888E20E94800320E040E043
:101B70006AE08AE03CDB20E040E06CE08BE037DBB1
:101B800021E045E061E083E032DB20E045E06BE00E
:101B900083E02DDB21E043E068E081E028DB21E009
:101BA00044E064E082E023DB5BD90E94F10463E956
:101BB0007DE08EE07BC881EF91E09F938F93B5DE4F
:101BC0000F900F90089588E20E94800360E080E00B
:101BD00026D062E081E023D061E082E020D063E0A3
:101BE00083E01DD06BED7DE08EE060D86AE17EE0A1
:101BF0008DE05CD821E040E06AE087E0F8DA20E0A0
:101C000040E06CE08AE0F3DA21E043E068E081E064
:101C1000EEDA20E044E063E082E0E9DA21C9E82F6F
:101C2000F0E0EE0FFF1FEA5EFD4F28E04AE0808102
:101C3000918163C88AE891E09F938F9376DE0F903D
:101C40000F9008950E94700402C00E9497030E94A2
:101C50009F048115E1F30E946603C82F803AA8F71C
:101C600083E014D8FC018C2F0995EFCF97FB072E4A
:101C700016F4009406D077FD08D043D007FC05D0B9
:101C80003EF4909581959F4F0895709561957F4F93
:101C90000895A1E21A2EAA1BBB1BFD010DC0AA1FAD
:101CA000BB1FEE1FFF1FA217B307E407F50720F0C5
:101CB000A21BB30BE40BF50B661F771F881F991F40
:101CC0001A9469F760957095809590959B01AC0189
:101CD000BD01CF010895EE0FFF1F0590F491E02D97
:101CE00009946095709580959095309540955095A4
:101CF00021953F4F4F4F5F4F6F4F7F4F8F4F9F4FFC
:101D00000895AA1BBB1B51E107C0AA1FBB1FA61742
:101D1000B70710F0A61BB70B881F991F5A95A9F794
:101D200080959095BC01CD010895F894FFCF2E03C6
:101D30001003110312031303140315032E031603D8
:101D40001703180319031B031A031C031E032003A4
:101D500022032403260328032A032C032E03300323
:101D600032033403360338033A033C033E03400393
:101D70001404BC03BC03BC0316041804BC031A04FB
:101D80001C041E042004240422044E0C700C700C4D
:101D9000700C700C700C700C700C700C700C700C63
:101DA000100B900B700C700C700C700C900B700C76
:101DB000700C700C700C700C700C700C700C700C43
:0C1DC000480B700C300C700C700C4E0CBA
:101DCC00D4040000B6040000BD040000C5040000EB
:101DDC00CD040000D5040000D6040000D704000098
:101DEC00DE040000E6040000A4040000AA040000C5
:101DFC00B00400000001020103030303286E756C9C
:101E0C006C29005B4B65796D61703A20636C617372
:101E1C007369635D0A005B4B65796D61703A2041B3
:101E2C0070706C6520322028752F6C20636173658F
:101E3C00295D005B4B65796D61703A204170706C67
:101E4C0065203220434150535D00313047455441A9
:101E5C00242830293A413D41534328412428302934
:101E6C00293A41242831293D2243544C2B222B431F
:101E7C004852242841202B203634293A3F2227224D
:101E8C003B412428413C3332293B2227203D202250
:101E9C003B413A4946413C3E33474F544F31300D5C
:101EAC00005B4B657962643A20536F6C2D32305D68
:101EBC00005B4B65796D61703A2061636531303040
:101ECC00305D0A004001B000F8006800A802D001A3
:0E1EDC006002180288018005E00430059004C1
:00000001FF
