:1000000047C2000061C200005FC200005DC2000084
:100010005BC2000059C2000057C2000055C2000078
:1000200053C2000051C200004FC200004DC2000088
:100030004BC2000049C20000ADC3000045C2000031
:1000400043C2000041C200003FC200003DC20000A8
:100050003BC2000039C2000037C2000035C20000B8
:1000600033C2000031C20000A0A1A1A01B09A51C41
:10007000A010A0A0201A0111B12C0D0E0216031819
:10008000A00B0A0807060413A00915191412051776
:10009000A0A6A40D0A0F0CA0A01D1BA0A0C0BFBE4F
:1000A00000BDBCBBBAB9B8B7A8A9AAAB00C1ADAC7A
:1000B000A0A1A1A01B09A55C7F503B2F205A415154
:1000C000A02C4D4E42564358A04B4A4847464453F5
:1000D000A049555954524557A0A6A40D0A4F4C2E7D
:1000E0007E5D5B2D3A303938403736353433323126
:1000F000A8A9AAAB00C1ADACA0A1A1A01B09A57C79
:100100007F502B3F205A4151B23C4D4E42564358EE
:10011000A04B4A4847464453A04955595452455765
:10012000A0A6A40D0A4F4C3E7E7D7B3D2A30292897
:100130006027262524232221A8A9AAAB00C1ADACA3
:10014000A0A1A1A01B09A55C7F703B2F207A617143
:10015000A02C6D6E62766378A06B6A6867666473C4
:10016000A069757974726577A0A6A40D0A6F6C2ECC
:100170007E5D5B2D3A303938403736353433323195
:10018000A8A9AAAB00C1ADACA4A1A1A0A01BA515B4
:10019000A010A05C201A0111A05B0D0E021603181E
:1001A000A00B0A0807060413A00915191412051755
:1001B000A0A0A00DA60F0C5DA0A0B15FA0C07D7B8C
:1001C0007F605EBBBAB97E7CA8A9AAAB00C1ADAC0A
:1001D000A4A1A1A0A01BA515A0503B2F205A4151BE
:1001E000A02C4D4E42564358A04B4A4847464453D4
:1001F000A049555954524557A0A0A00DA64F4C2ECA
:10020000A0A0A02D3A303938083736353433323192
:10021000A8A9AAAB00C1ADACA4A1A1A0A01BA51523
:10022000A0402B3F205A4151A03C4D5E42564358BE
:10023000A04B4A4847464453A04955595452455744
:10024000A0A0A00DA64F4C3EA0A0B23D2AA02928F8
:100250000827262524232221A8A9AAAB00C1ADACDA
:10026000A4A1A1A0A01BA515A0502B3F205A41512D
:10027000A03C4D4E42564358A04B4A484746445333
:10028000A049555954524557A0A0A00D404F4C3E8F
:10029000A0A0B23D2A402928082726252423222170
:1002A000A8A9AAAB00C1ADACA4A1A1A0A01BA51593
:1002B0007F703B2F207A6171A02C6D6E627663781F
:1002C000A06B6A6867666473A069757974726577F4
:1002D000A0A0A00D5E6F6C2EA0A0A02D3A303938E2
:1002E0000837363534333231A8A9AAAB00C1ADACDA
:1002F000A5A20113040607080A0B0C0B0A7FB1A57F
:10030000A4A11A180316020E0D0C0E0FA180A0A0B6
:100310001B010203040506070809000D1E1B1C1D16
:10032000B20911170512141915090F10000D0A8CC6
:10033000A8A9AAAB00C1ADACB3978120939A8E8BCC
:100340002D372A382F39A0A0343135323633A0A0CA
:10035000302E2BA0A0A0A0A0A5A241534446474800
:100360004A4B4C3B3A5FA6A5A4A15A584356424E6D
:100370004D3C3E3FA180A0A01B21222324252627FF
:100380002829203D7E5B5C5DB20951574552545986
:1003900055494F50600D0A8CA8A9AAAB00C1ADAC5D
:1003A000B3978120939A8E8B2D372A382F39A0A0AE
:1003B000343135323633A0A0302E2BA0A0A0A0A01F
:1003C000A5A24153444647484A4B4C3B3A7FA6A519
:1003D000A4A15A584356424E4D2C2E2FA180A0A0C6
:1003E0001B313233343536373839302D5E5B5C5D46
:1003F000B20951574552545955494F50400D0A8C36
:10040000A8A9AAAB00C1ADACB3978120939A8E8BFB
:100410002D372A382F39A0A0343135323633A0A0F9
:10042000302E2BA0A0A0A0A0A5A26173646667686F
:100430006A6B6C3B3A7FA6A5A4A17A786376626E5C
:100440006D2C2E2FA180A0A01B31323334353637CE
:100450003839302D5E5B5C5DB209717765727479F5
:1004600075696F70400D0A8CA8A9AAAB00C1ADAC2C
:10047000B3978120939A8E8B2D372A382F39A0A0DD
:10048000343135323633A0A0302E2BA0A0A0A0A04E
:1004900011241FBECFEFD8E0DEBFCDBF12E0A0E039
:1004A000B1E0ECE1F9E102C005900D92AA30B1078C
:1004B000D9F723E0AAE0B2E001C01D92A03AB2074A
:1004C000E1F7F2D60C945E0C9BCD805A813208F095
:1004D00037C0E82FF0E0E05AF34F09C7C5C3C6C3E1
:1004E000C9C3CDC3D8C3E0C475C37CC383C38AC3A7
:1004F000A6C1C2C487E063C588E061C589E05FC565
:1005000081E05DC582E05BC583E059C584E057C5E5
:1005100085E055C586E053C584E0C9C285E0C7C201
:1005200086E0C5C287E0C3C288E0C1C289E0BFC21D
:100530008AE0BDC28BE0BBC28CE0B9C28DE0B7C21D
:100540000895815A8D3070F4E82FF0E0EF57F34FA3
:10055000CEC6A5C3A6C3C0C439C340C347C34EC398
:1005600071C176C40895682F80910D023CC2CF936B
:10057000C82F813A18F0A9DFCF910895F4DF809158
:100580000E028C17C9F3C0930E0259D4F5CFCF9346
:10059000C82F8A3041F06C2F80910C0224D28C2F0E
:1005A00090E0CF9108958DE0F2DFF5CFCF93809169
:1005B0000C024CD2C82F803A41F080910A029091EF
:1005C0000B0252D18C2FCF91089580910D023ED213
:1005D000C82FF8CF90E090930B0280930A02089501
:1005E000CF93DF93C82FD62F5FD3482F6D2F8C2F3B
:1005F0000DD3DF91CF9108956F927F928F929F924A
:10060000AF92BF92CF92DF92EF92FF920F931F9320
:10061000CF93DF9381E05AD2A82EB92E83E047D240
:1006200000E00F2EFAE07F2EF02D88248394912C89
:100630000F2EF0EA6F2EF02D5AC08C2F90E0F701AC
:10064000E80FF91F20813FEF320F2130D1F03083C6
:10065000D6951695CF5F8BD2C81708F047C0D0FD4E
:10066000ECCF10FFF5CF6C2F802FBADF90910E02E8
:100670008913EECF3ED4882359F380910E0277DFA1
:10068000E7CFF701E80FF91F708210FF12C0F601E3
:10069000E157FD4F94010C2E02C0220F331F0A9424
:1006A000E2F78081822B80836C2F802F99DF5FDFC0
:1006B000CFCFF601E157FD4F94010C2E02C0220F5F
:1006C000331F0A94E2F7C9018095908189238083C2
:1006D0006C2F802F85DF813A38F490910E028913B8
:1006E000B7CF60920E02B4CF2CDFB2CF0F5F34D2FF
:1006F0000817C0F4802FF5010995182FC02ED12CB2
:10070000F601E157FD4FD081D827C0E0C601880F20
:10071000991F880F991F880F991F9C01215F3D4FDA
:10072000790199CFDF91CF911F910F91FF90EF90B9
:10073000DF90CF90BF90AF909F908F907F906F9001
:10074000089580EA80930E020BD16AD33DD280E1F6
:1007500090E019D180930D0280E890E014D180934D
:100760000C02AFE8B2E0EFE0F2E02FE932E08AE01D
:100770001D928083818382838383848385838683A0
:10078000878338962A173B0799F708953C9A259A4C
:10079000249A08958F9381E08093A0028F911895F9
:1007A0008091A0021092A0020895882311F044982D
:1007B0000895449A0895882311F02D9A08952D984C
:1007C0000895882311F02C9A08952C980895882371
:1007D00019F0459A3D9A08954598FCCF882319F061
:1007E0003D98459A089545983D9A0895882319F0B3
:1007F000459A3D9A08953D9845980895882319F0A3
:100800002B98239A08952B9AFCCF08950895089564
:10081000882319F02F9A279A08952F98FCCF8823C0
:1008200019F027982F9A08952F98279A08958823CA
:1008300019F02F9A279A089527982F9808952E989F
:10084000269A08952E9A269A08958AE18A95F1F7B4
:1008500000C008952FE788E391E021508040904048
:10086000E1F700C000000895282F392F2115310528
:1008700061F080E090E0EFECF7E03197F1F700C035
:100880000000019628173907B1F70895F8941092DF
:10089000A00287E0809361001092A0028CE787BDE0
:1008A00015BC82E084BD80936E0083E085BD80919D
:1008B0009F028BB98FEF8AB910929F02C0DF66DF6B
:1008C00065DF88B1807F88B987B18F6087B92A9842
:1008D000229A299A219A209828987894089598B174
:1008E0008F70907F892B88B929982A9A2A98299AFB
:1008F00020E030E080E0E1E093B19E27492F417095
:1009000050E0BA01022E02C0660F771F0A94E2F788
:10091000862B2A9A2A982F5F3F4F2830310561F79E
:10092000089590919F0289278BB91E9A8AE18A9532
:10093000F1F700C01E9A0895833059F028F48130F1
:1009400039F0823021F4FAC3843009F46FC487C3CC
:10095000B8C327C4982F81E0953008F080E008954F
:100960001092A3021092A2021092A102089588236D
:1009700044F091E02091A10282170CF090E0892FC1
:10098000089580E00895282F392F8091A1028430A6
:1009900034F56091A2027091A30240E950E0461B39
:1009A000570B42175307ECF091E0980F9093A10278
:1009B00097E08902F0011124EC55FD4F3383228327
:1009C000AB0140545D4F51834083148215821682DF
:1009D000260F371F3093A3022093A20208958FEFB2
:1009E00008958FEF0895CF93DF93C82FD62FBFDFE1
:1009F000882349F18C2F0C2E000C990B27E0C202A2
:100A0000F0011124EC55FD4F268162817381422F44
:100A100050E046175707BCF4FC01EE0FFF1FEE0F26
:100A2000FF1FEE0FFF1FE81BF90BEC55FD4F8481F4
:100A300090E0A081B181A80FB91FDC93019644D446
:100A400084832F5F2683DF91CF910895CF93C82FA2
:100A50008EDF30EA882339F18C2F0C2E000C990B95
:100A600027E0C202F0011124EC55FD4F268130EA47
:100A70002223C9F0FC01EE0FFF1FEE0FFF1FEE0F48
:100A8000FF1FE81BF90BEC55FD4F858190E0A0811D
:100A9000B181A80FB91F3C9101966281738114D472
:100AA000858321502683832FCF91089508959FEF4A
:100AB000980F9E3050F4E82FF0E0EE0FFF1FE05B40
:100AC000FC4F0190F081E02D099508959FEF980F5C
:100AD0009E3048F4E82FF0E0EE0FFF1FE05BFC4F84
:100AE00080819181089586E595E008959FEF980FA4
:100AF0009E3040F4E82FF0E0EE0FFF1FE05BFC4F6C
:100B0000608371830895E0E5F3E02EE633E086E547
:100B100095E081939193E217F307D9F7E0E5F3E0CD
:100B20008FE694E09383828381E994E095838483C4
:100B30000895643080F4413170F4293060F4E62F78
:100B4000F0E0EE0FFF1FEE0FFF1FE159FC4F808317
:100B50009183428323830895A7D0E82FF0E0EE0F1E
:100B6000FF1FEE0FFF1FE159FC4F828108959CD0BB
:100B7000E82FF0E0EE0FFF1FEE0FFF1FE159FC4FD3
:100B800083810895CF93DF93D82FE4DE811103C0D2
:100B9000DF91CF910895D0936E0378DEC0E020E01E
:100BA00040E06C2F80E090E0C4DFCF5FC430B9F745
:100BB00031D2A9DF8D2FC0DEEBCF90916E03981359
:100BC00001C00895DFDFFDCF80E0DCCF80916E03B0
:100BD0008E7FF3CF80916E038160EFCF80916E03A3
:100BE0008D7FEBCF80916E038260E7CF80916E03A3
:100BF0008B7FE3CF80916E038460DFCF80916E03A3
:100C0000877FDBCF80916E038860D7CF982F2091AC
:100C10006E0330E0F901EE0FFF1FEE0FFF1FE159E9
:100C2000FC4F83818823C1F022812223A1F0E42F8D
:100C3000F0E0EE0FFF1FEE0FFF1FE159FC4F70E0D9
:100C4000899F600D711D11240190F081E02DE60F48
:100C5000F71F84910895822F08958093810361E0A6
:100C600081FF62E08BE074C181E0F7CF8091810366
:100C70008260F3CF8091810392E08927EECF90913B
:100C8000800381E089278093800361E0913009F43B
:100C900062E08AE05DC181E080937F03089580E097
:100CA000DCCF10927F030895E1E0809181038111F0
:100CB00001C0E0E0809180038111E26080917F03B8
:100CC0008111E460F0E0EE5BFE4F808108951F9398
:100CD000CF93DF93162FC82FD0E0CC0FDD1FCC0FA2
:100CE000DD1FC050DF4FE881F981862F09951A83F7
:100CF000DF91CF911F910895CF93DF93C82FD0E05C
:100D0000CC0FDD1FCC0FDD1FC050DF4FE881F98114
:100D100081E0099581E08A83DF91CF910895CF9397
:100D2000DF93C82FD0E0CC0FDD1FCC0FDD1FC050EC
:100D3000DF4FE881F98180E009951A82DF91CF9138
:100D40000895E82FF0E0EE0FFF1FEE0FFF1FE050B9
:100D5000FF4F61E09281911160E0B9CF282F90910F
:100D600003019923B9F0981779F0E92FF0E0892F62
:100D7000EE0FFF1FEE0FFF1FE050FF4F93819923EF
:100D800059F02913F2CF0895882311F080E00895D7
:100D90008DE008958DE008958DE00895E82FF0E04E
:100DA000EE0FFF1FEE0FFF1FE050FF4F83810895EE
:100DB0001F93CF93DF93C82FD62F142FCFDF9FEF32
:100DC0009C0F9C30C8F48D30E1F0EC2FF0E0EE0F7A
:100DD000FF1FEE0FFF1FE050FF4F9381A82FB0E0E1
:100DE000AA0FBB1FAA0FBB1FA050BF4F13969C9307
:100DF000D383128381E001C080E0DF91CF911F9106
:100E0000089580E0FACFE2E0F1E080E091E09083A5
:100E10008F5F818334968D30D1F71092330108951E
:100E20008DE092E0909385038093840390938703F1
:100E30008093860390938303809382030895809127
:100E40008603909187039093830380938203089590
:100E500010928503109284038091860390918703FA
:100E60008234910541F0109287031092860310920C
:100E700083031092820308958DE092E0909385039E
:100E80008093840380918603909187038234910537
:100E900051F08DE092E090938703809386039093C6
:100EA000830380938203089580918203909183034A
:100EB0008334910530F48091860390918703892BC8
:100EC00051F482E490E0909387038093860390939B
:100ED0008303809382030895809184039091850316
:100EE0009093870380938603909383038093820378
:100EF00008958091820390918303009799F09C015B
:100F000021503109019731F03093830320938203FC
:100F100080E0089582E490E09093830380938203BD
:100F200081E0089580E008950F931F93CF93082FD9
:100F3000192FC62F662341F08C2FF80109958C2FAD
:100F40002DDFC82F8111F8CFCF911F910F910895F8
:100F5000CF93E82FF0E0EE0FFF1FE857FC4FC08162
:100F60006330F1F048F0643081F06530B9F46C2FF3
:100F700081EA96E0D9DF12C06130E1F0623071F4AD
:100F80006C2F8FE896E0D0DF09C06C2F81EA96E0E5
:100F9000CBDF60DC6C2F81EA96E0C6DFCF9108954D
:100FA0006C2F81EA96E0C0DF50DC6C2F81EA96E07E
:100FB000BBDFF4CF6C2F8CE796E0B6DFEFCFE82FE6
:100FC000F0E0EE0FFF1FE857FC4F6181C1CF0F9398
:100FD0001F93CF93DF93162F042F9FEF980F9B3013
:100FE00028F0DF91CF911F910F910895C82FD0E085
:100FF000FE01EE0FFF1FE857FC4F422F6081812F4B
:10100000D7DE882371F3CC0FDD1FC857DC4F188360
:101010000983E7CFF8DEE8E8F3E080EA93E01182A5
:1010200010823296E817F907D1F70895CF93DF932E
:10103000CDB7DEB7AE014B5F5F4FFA0161917191A1
:10104000AF0184E391E06DD1DF91CF9108958AE4FF
:1010500091E09F938F93EADF0F900F90089588E2BD
:10106000B9DA60E080E057D062E081E054D061E01E
:1010700082E051D063E083E04ED067E278E08DE01B
:1010800035DD6BEF78E08CE031DD21E040E06AE0B7
:1010900087E09DDF20E040E06CE08AE098DF21E01F
:1010A00043E068E081E093DF20E044E063E082E039
:1010B0008ECF8AE491E09F938F93B8DF0F900F90CB
:1010C000089588E287DA60E081E025D062E081E07F
:1010D00022D061E082E01FD063E083E01CD069E5AC
:1010E00078E08DE003DD6BEF78E08CE0FFDC21E061
:1010F00040E06AE087E06BDF20E040E06CE087E002
:1011000066DF21E043E068E081E061DF20E044E069
:1011100063E082E05CCFE82FF0E0EE0FFF1FE35AC0
:10112000FE4F28E049E08081918103CD85E691E082
:101130009F938F937BDF0F900F90089588E24ADA98
:1011400060E080E060D062E081E05DD061E082E05C
:101150005AD063E084E057D06BEF78E086E0C6DCDD
:1011600066E978E08DE0C2DC20E040E06AE08AE0F9
:101170002EDF20E040E06CE088E029DF21E043E062
:1011800068E081E024DF20E044E063E082E01FDFEC
:1011900076CD82E891E09F938F9348DF0F900F9078
:1011A000089588E217DA60E081E02DD062E081E006
:1011B0002AD061E083E027D063E084E024D06BEFA5
:1011C00078E08CE093DC69EC78E08DE08FDC20E067
:1011D00040E06AE087E0FBDE20E040E06CE088E091
:1011E000F6DE21E043E068E081E0F1DE20E044E06B
:1011F00063E082E0ECCE89E991E09F938F9316DF64
:101200000F900F900895E82FF0E0EE0FFF1FE051D0
:10121000FE4F28E049E0808191818BCC8AEF91E0FC
:101220009F938F9303DF0F900F90089528E04DE078
:1012300060E088E294E07DDC28E04DE062E080EC54
:1012400093E077DC28E04DE061E088E593E071DC35
:1012500028E04DE063E080EF92E06BDC88E2BAD9F1
:1012600020E040E06AE08AE0B2DE20E040E06CE0AE
:101270008BE0ADDE21E045E061E083E0A8DE20E028
:1012800045E06BE083E0A3DE21E043E068E081E03D
:101290009EDE21E044E064E082E099DEF0DCD2DA18
:1012A0006EE079E08DE022CC4CDA01C0A5D978DA85
:1012B0008823E9F37BD9C82F803AC0F782E006DCA7
:1012C000FC018C2F0995F2CF97FB072E16F40094A2
:1012D00006D077FD08D011D007FC05D03EF49095DC
:1012E00081959F4F0895709561957F4F0895EE0FFA
:1012F000FF1F0590F491E02D0994AA1BBB1B51E13F
:1013000007C0AA1FBB1FA617B70710F0A61BB70B75
:10131000881F991F5A95A9F780959095BC01CD011A
:101320000895AFE0B0E0E6E9F9E094C26C017B011A
:101330008A01DC0117961C921E92169713968C91C7
:1013400081FFDEC12AE0522EF6019381F70193FD61
:10135000859193FF81917F01882309F471C08532C3
:1013600039F493FD859193FF81917F01853221F4BA
:10137000B60190E0DED1E8CF912C612C712CFFE119
:10138000F71508F445C08B32C1F1F0F48032B9F1A1
:10139000833209F43AC0833609F487C0833709F4ED
:1013A00090C0833509F0B0C0F801A190B1908F01D1
:1013B000692D70E076FC02C06FEF7FEFC501A3D10D
:1013C0004C01689477F85EC08D32E1F0803351F0C3
:1013D00020ED280F2A3048F18E3209F038C0689489
:1013E00076F802C0689470F8F70193FD859193FF39
:1013F00081917F018111C3CF32C0689471F86894E4
:1014000072F8F2CF689473F8EFCF689474F8ECCF69
:1014100077FC25C020ED280F2A3070F476FE05C039
:10142000959C200D1124922EDFCF659C200D112458
:10143000622E689475F8D8CF8E3249F476FECFCFFD
:10144000D60116968D919C912F96EFE01FC28C3697
:1014500019F4689477F8C8CF883609F4C5CF982F67
:101460009F7D9554933008F096CF0C5F1F4F8FE30C
:10147000898388248394912CAE014F5F5F4F5A017A
:10148000E89477F873FC05C0862D90E088169906DD
:1014900030F18114910449F5662009F455CFB60165
:1014A00080E290E046D16A94F7CFD8018C9189838D
:1014B0000E5F1F4F88248394912CFE0131965F01AB
:1014C000DFCFD801AD90BD908D01692D70E076FC25
:1014D00002C06FEF7FEFC50121D14C01D1CFB60122
:1014E00080E290E026D16A94CFCFF50177FC859118
:1014F00077FE81915F01B60190E01BD161106A9483
:10150000F1E08F1A9108C5CF843619F0893609F0B9
:101510007DC0F80177FE73C06191719181919191C5
:101520008F01272D2F76822E97FF09C090958095E9
:10153000709561957F4F8F4F9F4F689487F82AE091
:1015400030E0AE014F5F5F4F5A0123D18A19A82EB8
:10155000BA2C782C86FE0CC0E89470F8A91440F4DC
:1015600084FE05C082FC03C0782D7E7E772EB92CC8
:1015700074FEA1C0FE01EA0DF11D8081803309F0E7
:1015800093C0872D897E782E73FC0EC070FEA1C09B
:101590009A2CB61418F4960C9B18B62C862D8B1921
:1015A0006B1408F480E0B80EB61408F094C06B1801
:1015B00074FE93C0B60180E390E0BBD072FE08C019
:1015C00088E590E071FC02C088E790E0B601B1D0F8
:1015D000A91408F48FC0AA94B12C9FEFA91AB90AD4
:1015E000DE0111964D01AA0EBB1EF50182915F012D
:1015F000B60190E09ED08A149B04B9F74DCF61915B
:101600007191072E000C880B990B8ACF872CE894D8
:1016100084F82AE030E0853769F0572D597F852E10
:10162000803769F110F5883569F18F3609F008CFF8
:1016300028E030E0F80187FE2DC081919191A191C1
:10164000B1918C879D87AE87BF878F01BE016F5F89
:101650007F4F5B01AB016C857D858E859F8599D021
:101660008A19A82EE89487F873CF883709F0E8CE56
:1016700084FE02C0689482F820E130E0DBCF6894F9
:1016800084F8F6CF74FE03C0652F6660862E20E1D5
:1016900032E0D0CF81919191AC0160E070E04C8755
:1016A0005D876E877F87D1CF72FC02C0B3946CCF09
:1016B000B394B39469CF872D8678882309F464CFD7
:1016C000F5CFB60180E290E034D083948614C8F35D
:1016D00065CF8B2CFBCF612C6BCF872D8678882331
:1016E00009F476CF8BE271FE80E277FC8DE2B601E1
:1016F00090E06DCFB60180E390E01BD09A9468CF64
:101700008FEF9FEFA1CEFC0105906150704001105A
:10171000D8F7809590958E0F9F1F0895FC0161501A
:10172000704001900110D8F7809590958E0F9F1F03
:1017300008950F931F93CF93DF93182F092FEB0179
:101740008B8181FD09C01FEF0FEF812F902FDF915B
:10175000CF911F910F91089582FF14C02E813F8178
:101760008C819D81281739073CF4E881F981CF01EC
:1017700001969983888310838E819F8101969F8330
:101780008E83E3CFE885F985812F0995892BA1F315
:10179000DACFFA01AA27283051F1203181F1E894FB
:1017A0006F936E7F6E5F7F4F8F4F9F4FAF4FB1E054
:1017B0003ED0B4E03CD0670F781F891F9A1FA11D4F
:1017C000680F791F8A1F911DA11D6A0F711D811D50
:1017D000911DA11D20D009F468943F912AE0269F15
:1017E00011243019305D3193DEF6CF010895462F74
:1017F0004770405D4193B3E00FD0C9F7F6CF462F55
:101800004F70405D4A3318F0495D31FD40524193BD
:1018100002D0A9F7EACFB4E0A6959795879577957A
:101820006795BA95C9F700976105710508959B0101
:10183000AC010A2E06945795479537952795BA958A
:10184000C9F7620F731F841F951FA01D08952F9263
:101850003F924F925F926F927F928F929F92AF9240
:10186000BF92CF92DF92EF92FF920F931F93CF938D
:10187000DF93CDB7DEB7CA1BDB0B0FB6F894DEBF24
:101880000FBECDBF09942A88398848885F846E844A
:101890007D848C849B84AA84B984C884DF80EE8094
:1018A000FD800C811B81AA81B981CE0FD11D0FB69D
:1018B000F894DEBF0FBECDBFED010895F894FFCFC1
:1018C0008C026E026F0270027102720273028C024D
:1018D0007402750276027702790278027A027C023B
:1018E0007E02800282028402860288028A028C02C0
:1018F0008E02900292029402960298029A029C0230
:101900009E02A902B202B202B202AA02AB02B20263
:0C191000AC02AD02AE02AF02B102B002A8
:10191C0005040000E7030000EE030000F6030000DE
:10192C00FE03000006040000070400000804000089
:10193C000F04000017040000D5030000DB030000B7
:10194C00E10300000000000200000000C7020000DC
:10195C00000000010201030303035B4B65796D6119
:10196C00703A20636C61737369635D0A004001B067
:10197C0000F80068005B4B65796D61703A2041702E
:10198C00706C6520322028752F6C2063617365297B
:10199C005D005B4B65796D61703A204170706C65D0
:1019AC00203220434150535D00313047455441248F
:1019BC002830293A413D41534328412428302929D4
:1019CC003A41242831293D2243544C2B222B4348A5
:1019DC0052242841202B203634293A3F2227223BFF
:1019EC00412428413C3332293B2227203D20223BF5
:1019FC00413A4946413C3E33474F544F31300D003C
:101A0C00A802D0016002180288015B4B6579626400
:0A1A1C003A20536F6C2D32305D004C
:00000001FF
