:100000002DC247C246C245C244C243C242C241C2D7
:1000100040C23FC23EC23DC23CC23BC2A0C339C285
:1000200038C237C236C235C234C233C232C231C21C
:1000300030C22FC2A0A1A1A01B09A51CA010A0A086
:10004000201A0111B12C0D0E02160318A00B0A087C
:1000500007060413A009151914120517A0A6A40D6C
:100060000A0F0CA0A01D1BA0A0C0BFBE00BDBCBB42
:10007000BAB9B8B7A8A9AAAB0000ADACA0A1A1A01D
:100080001B09A55C7F503B2F205A4151A02C4D4E9F
:1000900042564358A04B4A4847464453A0495559F5
:1000A00054524557A0A6A40D0A4F4C2E7E5D5B2DE1
:1000B0003A3039384037363534333231A8A9AAAB13
:1000C0000000ADACA0A1A1A01B09A57C7F502B3FD7
:1000D000205A4151B23C4D4E42564358A04B4A48DB
:1000E00047464453A049555954524557A0A6A40D1C
:1000F0000A4F4C3E7E7D7B3D2A30292860272625ED
:1001000024232221A8A9AAAB0000ADACA0A1A1A0E4
:100110001B09A55C7F703B2F207A6171A02C6D6E4E
:1001200062766378A06B6A6867666473A0697579A4
:1001300074726577A0A6A40D0A6F6C2E7E5D5B2D90
:100140003A3039384037363534333231A8A9AAAB82
:100150000000ADACA4A1A1A0A01BA515A010A0A05B
:10016000201A0111A02C0D0E02160318A00B0A086C
:1001700007060413A009151914120517A0A0A00D55
:10018000A60F0CA0A0A0B1A0A0C0BFBE08BDBCBB64
:10019000BAB9B8B7A8A9AAAB0000ADACA4A1A1A0F8
:1001A000A01BA515A0503B2F205A4151A02C4D4E0D
:1001B00042564358A04B4A4847464453A0495559D4
:1001C00054524557A0A0A00DA64F4C2EA0A0A02D84
:1001D0003A3039380837363534333231A8A9AAAB2A
:1001E0000000ADACA4A1A1A0A01BA515A0402B3F71
:1001F000205A4151A03C4D5E42564358A04B4A48BC
:1002000047464453A049555954524557A0A0A00D04
:10021000A64F4C3EA0A0B23D2A302928082726250B
:1002200024232221A8A9AAAB0000ADACA4A1A1A0BF
:10023000A01BA515A0502B3F205A4151A03C4D4E6C
:1002400042564358A04B4A4847464453A049555943
:1002500054524557A0A0A00D404F4C3EA0A0B23D27
:100260002A3029280827262524232221A8A9AAAB39
:100270000000ADACA4A1A1A0A01BA5157F703B2FD1
:10028000207A6171A02C6D6E62766378A06B6A68CB
:1002900067666473A069757974726577A0A0A00D14
:1002A0005E6F6C2EA0A0A02D3A3039380837363555
:1002B00034333231A8A9AAAB0000ADACA5A201131A
:1002C000040607080A0B0C0B0A7FB1A5A4A11A1893
:1002D0000316020E0D0C0E0FA180A0A01B0102033D
:1002E000040506070809000D1E1B1C1DB209111785
:1002F0000512141915090F10000D0A8CA8A9AAAB34
:100300000000ADACB3978120939A8E8B2D372A389D
:100310002F39A0A0343135323633A0A0302E2BA097
:10032000A0A0A0A0A5A24153444647484A4B4C3B3D
:100330003A5FA6A5A4A15A584356424E4D3C3E3FB3
:10034000A180A0A01B212223242526272829203D87
:100350007E5B5C5DB20951574552545955494F5027
:10036000600D0A8CA8A9AAAB0000ADACB3978120A0
:10037000939A8E8B2D372A382F39A0A034313532FD
:100380003633A0A0302E2BA0A0A0A0A0A5A2415340
:10039000444647484A4B4C3B3A7FA6A5A4A15A582D
:1003A0004356424E4D2C2E2FA180A0A01B3132333C
:1003B000343536373839302D5E5B5C5DB2095157C4
:1003C0004552545955494F50400D0A8CA8A9AAAB23
:1003D0000000ADACB3978120939A8E8B2D372A38CD
:1003E0002F39A0A0343135323633A0A0302E2BA0C7
:1003F000A0A0A0A0A5A26173646667686A6B6C3B4D
:100400003A7FA6A5A4A17A786376626E6D2C2E2F12
:10041000A180A0A01B313233343536373839302D26
:100420005E5B5C5DB20971776572747975696F7036
:10043000400D0A8CA8A9AAAB0000ADACB3978120EF
:10044000939A8E8B2D372A382F39A0A0343135322C
:100450003633A0A0302E2BA0A0A0A0A011241FBE38
:10046000CFEFD4E0DEBFCDBF12E0A0E0B1E0E4E129
:10047000F9E102C005900D92A033B107D9F723E04E
:10048000A0E3B2E001C01D92A43CB207E1F710D78F
:1004900011CAB6CD805A813208F037C0E82FF0E09B
:1004A000E45AF34F0994C5C3C6C3C9C3CDC3D8C367
:1004B000E0C475C37CC383C38AC3A6C1C2C487E03A
:1004C00063C588E061C589E05FC581E05DC582E004
:1004D0005BC583E059C584E057C585E055C586E016
:1004E00053C584E0C9C285E0C7C286E0C5C287E0C3
:1004F000C3C288E0C1C289E0BFC28AE0BDC28BE04E
:10050000BBC28CE0B9C28DE0B7C20895815A8D306C
:1005100070F4E82FF0E0E358F34F0994A5C3A6C3A5
:10052000C0C439C340C347C34EC371C176C4089524
:10053000682F809133023CC2CF93C82F813A18F0C4
:10054000A9DFCF910895F4DF809134028C17C9F3AD
:10055000C093340259D4F5CFCF93C82F8A3041F0DD
:100560006C2F8091320224D28C2F90E0CF9108958D
:100570008DE0F2DFF5CFCF93809132024CD2C82FBD
:10058000803A41F0809130029091310252D18C2F0B
:10059000CF910895809133023ED2C82FF8CF90E0DA
:1005A00090933102809330020895CF93DF93C82F48
:1005B000D62F5FD3482F6D2F8C2F0DD3DF91CF9186
:1005C00008956F927F928F929F92AF92BF92CF9237
:1005D000DF92EF92FF920F931F93CF93DF9381E00F
:1005E0005AD2A82EB92E83E047D200E00F2EFAE0AF
:1005F0007F2EF02D88248394912C0F2EF0EA6F2EFD
:10060000F02D5AC08C2F90E0F701E80FF91F2081E0
:100610003FEF320F2130D1F03083D6951695CF5F62
:100620008BD2C81708F047C0D0FDECCF10FFF5CF34
:100630006C2F802FBADF909134028913EECF3ED415
:10064000882359F38091340277DFE7CFF701E80F71
:10065000F91F708210FF12C0F601EB54FD4F940198
:100660000C2E02C0220F331F0A94E2F78081822BE6
:1006700080836C2F802F99DF5FDFCFCFF601EB54A3
:10068000FD4F94010C2E02C0220F331F0A94E2F793
:10069000C90180959081892380836C2F802F85DF0D
:1006A000813A38F4909134028913B7CF60923402C2
:1006B000B4CF2CDFB2CF0F5F34D20817C0F4802F35
:1006C000F5010995182FC02ED12CF601EB54FD4FE2
:1006D000D081D827C0E0C601880F991F880F991FC5
:1006E000880F991F9C012B5C3D4F790199CFDF91B9
:1006F000CF911F910F91FF90EF90DF90CF90BF901F
:10070000AF909F908F907F906F90089580EA809334
:1007100034020BD16AD33DD280E190E019D18093AD
:10072000330280E890E014D180933202A5EBB2E06E
:10073000E5E3F2E025EC32E08AE01D9280838183DC
:1007400082838383848385838683878338962A176D
:100750003B0799F708953C9A259A249A08958F9318
:1007600081E08093C6028F9118958091C602109205
:10077000C6020895882311F044980895449A089574
:10078000882311F02D9A08952D980895882311F04B
:100790002C9A08952C980895882319F0459A3D9A2B
:1007A00008954598FCCF882319F03D98459A0895FF
:1007B00045983D9A0895882319F0459A3D9A0895E1
:1007C0003D9845980895882319F02B98239A089509
:1007D0002B9AFCCF089508950895882319F02F9A35
:1007E000279A08952F98FCCF882319F027982F9ADD
:1007F00008952F98279A0895882319F02F9A279AF9
:10080000089527982F9808952E98269A08952E9A3D
:10081000269A08958AE18A95F1F700C008952FE796
:1008200088E391E0215080409040E1F700C0000053
:100830000895282F392F2115310561F080E090E0CF
:10084000EFECF7E03197F1F700C0000001962817B0
:100850003907B1F70895F8941092C60287E08093A3
:1008600061001092C6028CE787BD15BC82E084BD92
:1008700080936E0083E085BD8091C5028BB98FEFB8
:100880008AB91092C502C0DF66DF65DF88B1807F5C
:1008900088B987B18F6087B92A98229A299A219AB4
:1008A000209828987894089598B18F70907F892B1C
:1008B00088B929982A9A2A98299A20E030E080E07D
:1008C000E1E093B19E27492F417050E0BA01022E1A
:1008D00002C0660F771F0A94E2F7862B2A9A2A989D
:1008E0002F5F3F4F2830310561F708959091C50281
:1008F00089278BB91E9A8AE18A95F1F700C01E9A62
:100900000895833059F028F4813039F0823021F491
:10091000FAC3843009F48EC487C3B8C327C4982FA0
:1009200081E0953008F080E008951092C90210929D
:10093000C8021092C7020895882344F091E02091E4
:10094000C70282170CF090E0892F089580E0089587
:10095000282F392F8091C702843034F56091C80266
:100960007091C90240E950E0461B570B42175307EC
:10097000ECF091E0980F9093C70297E08902F001A4
:100980001124E653FD4F33832283AB014A515D4F5F
:1009900051834083148215821682260F371F3093AD
:1009A000C9022093C80208958FEF08958FEF08952C
:1009B000CF93DF93C82FD62FBFDF882349F18C2F29
:1009C0000C2E000C990B27E0C202F0011124E65313
:1009D000FD4F268162817381422F50E046175707F1
:1009E000BCF4FC01EE0FFF1FEE0FFF1FEE0FFF1F09
:1009F000E81BF90BE653FD4F848190E0A081B181A3
:100A0000A80FB91FDC93019663D484832F5F2683DC
:100A1000DF91CF910895CF93C82F8EDF30EA8823DE
:100A200039F18C2F0C2E000C990B27E0C202F0013B
:100A30001124E653FD4F268130EA2223C9F0FC0140
:100A4000EE0FFF1FEE0FFF1FEE0FFF1FE81BF90B4E
:100A5000E653FD4F858190E0A081B181A80FB91FB9
:100A60003C9101966281738133D485832150268322
:100A7000832FCF91089508959FEF980F9D3050F4E4
:100A8000E82FF0E0EE0FFF1FEA58FC4F0190F081D5
:100A9000E02D099508959FEF980F9D3048F4E82FB9
:100AA000F0E0EE0FFF1FEA58FC4F8081918108951E
:100AB0008BE395E008959FEF980F9D3040F4E82F69
:100AC000F0E0EE0FFF1FEA58FC4F6083718308953A
:100AD000E6E7F3E022E933E08BE395E0819391933D
:100AE000E217F307D9F7E6E7F3E084E594E09383B0
:100AF000828386E794E0958384830895643080F44C
:100B0000413170F4293060F4E62FF0E0EE0FFF1F62
:100B1000EE0FFF1FED56FC4F8083918342832383AA
:100B20000895A7D0E82FF0E0EE0FFF1FEE0FFF1F94
:100B3000ED56FC4F828108959CD0E82FF0E0EE0F37
:100B4000FF1FEE0FFF1FED56FC4F83810895CF93DB
:100B5000DF93D82FE4DE811103C0DF91CF91089598
:100B6000D093920378DEC0E020E040E06C2F80E07C
:100B700090E0C4DFCF5FC430B9F731D2A9DF8D2F49
:100B8000C0DEEBCF90919203981301C00895DFDF90
:100B9000FDCF80E0DCCF809192038E7FF3CF8091F8
:100BA00092038160EFCF809192038D7FEBCF809194
:100BB00092038260E7CF809192038B7FE3CF809195
:100BC00092038460DFCF80919203877FDBCF809197
:100BD00092038860D7CF982F2091920330E0F901DB
:100BE000EE0FFF1FEE0FFF1FED56FC4F8381882392
:100BF000C1F022812223A1F0E42FF0E0EE0FFF1FCD
:100C0000EE0FFF1FED56FC4F70E0899F600D711DC8
:100C100011240190F081E02DE60FF71F84910895D3
:100C2000822F08958093A50361E081FF62E08BE04D
:100C300074C181E0F7CF8091A5038260F3CF8091EA
:100C4000A50392E08927EECF9091A40381E0892744
:100C50008093A40361E0913009F462E08AE05DC111
:100C600081E08093A303089580E0DCCF1092A3037A
:100C70000895E1E08091A503811101C0E0E0809139
:100C8000A4038111E2608091A3038111E460F0E08C
:100C9000EE5BFE4F808108951F93CF93DF93162F55
:100CA000C82FD0E0CC0FDD1FCC0FDD1FC050DF4FB1
:100CB000E881F981862F09951A83DF91CF911F91E1
:100CC0000895CF93DF93C82FD0E0CC0FDD1FCC0F5A
:100CD000DD1FC050DF4FE881F98181E0099581E097
:100CE0008A83DF91CF910895CF93DF93C82FD0E00F
:100CF000CC0FDD1FCC0FDD1FC050DF4FE881F98125
:100D000080E009951A82DF91CF910895E82FF0E0F5
:100D1000EE0FFF1FEE0FFF1FE050FF4F61E09281CB
:100D2000911160E0B9CF282F909103019923B9F078
:100D3000981779F0E92FF0E0892FEE0FFF1FEE0FE3
:100D4000FF1FE050FF4F9381992359F02913F2CFF1
:100D50000895882311F080E008958DE008958DE0D6
:100D600008958DE00895E82FF0E0EE0FFF1FEE0FDD
:100D7000FF1FE050FF4F838108951F93CF93DF93B0
:100D8000C82FD62F142FCFDF9FEF9C0F9C30C8F4B5
:100D90008D30E1F0EC2FF0E0EE0FFF1FEE0FFF1FA4
:100DA000E050FF4F9381A82FB0E0AA0FBB1FAA0FFE
:100DB000BB1FA050BF4F13969C93D383128381E037
:100DC00001C080E0DF91CF911F91089580E0FACFBC
:100DD000E2E0F1E080E091E090838F5F81833496E0
:100DE0008D30D1F71092330108958DE092E0909309
:100DF000A9038093A8039093AB038093AA039093D5
:100E0000A7038093A60308958091AA039091AB0352
:100E10009093A7038093A60308951092A9031092BC
:100E2000A8038091AA039091AB038234910541F00D
:100E30001092AB031092AA031092A7031092A6037C
:100E400008958DE092E09093A9038093A803809188
:100E5000AA039091AB038234910551F08DE092E0AA
:100E60009093AB038093AA039093A7038093A60368
:100E700008958091A6039091A7038334910530F4DF
:100E80008091AA039091AB03892B51F482E490E006
:100E90009093AB038093AA039093A7038093A60338
:100EA00008958091A8039091A9039093AB03809338
:100EB000AA039093A7038093A60308958091A603A5
:100EC0009091A703009799F09C0121503109019757
:100ED00031F03093A7032093A60380E0089582E4C5
:100EE00090E09093A7038093A60381E0089580E0AB
:100EF00008950F931F93CF93082F192FC62F6623A2
:100F000041F08C2FF80109958C2F2DDFC82F81110E
:100F1000F8CFCF911F910F910895CF93E82FF0E074
:100F2000EE0FFF1FE455FC4FC0816330F1F048F035
:100F3000643081F06530B9F46C2F86E896E0D9DF33
:100F400012C06130E1F0623071F46C2F84E796E0FA
:100F5000D0DF09C06C2F86E896E0CBDF60DC6C2F19
:100F600086E896E0C6DFCF9108956C2F86E896E07C
:100F7000C0DF50DC6C2F86E896E0BBDFF4CF6C2F2F
:100F800081E696E0B6DFEFCFE82FF0E0EE0FFF1F2F
:100F9000E455FC4F6181C1CF0F931F93CF93DF9333
:100FA000162F042F9FEF980F9B3028F0DF91CF91E1
:100FB0001F910F910895C82FD0E0FE01EE0FFF1F83
:100FC000E455FC4F422F6081812FD7DE882371F3D7
:100FD000CC0FDD1FC455DC4F18830983E7CFF8DE43
:100FE000ECEAF3E084EC93E0118210823296E81789
:100FF000F907D1F70895CF93DF93CDB7DEB7AE01F0
:101000004B5F5F4FFA0161917191AF0184E391E011
:1010100086D1DF91CF9108958AE491E09F938F93D9
:10102000EADF0F900F90089588E2B9DA60E080E07F
:1010300057D062E081E054D061E082E051D063E0BB
:1010400083E04ED06CE078E08DE035DD60EE78E056
:101050008CE031DD21E040E06AE087E09DDF20E0C8
:1010600040E06CE08AE098DF21E043E068E081E066
:1010700093DF20E044E063E082E08ECF8AE491E0F9
:101080009F938F93B8DF0F900F90089588E287DACF
:1010900060E081E025D062E081E022D061E082E082
:1010A0001FD063E083E01CD06EE378E08DE003DDC9
:1010B00060EE78E08CE0FFDC21E040E06AE087E071
:1010C0006BDF20E040E06CE087E066DF21E043E09A
:1010D00068E081E061DF20E044E063E082E05CCF33
:1010E000E82FF0E0EE0FFF1FE35AFE4F28E049E043
:1010F0008081918103CD85E691E09F938F937BDF83
:101100000F900F90089588E24ADA60E080E07FD087
:1011100062E081E07CD061E082E079D063E084E04D
:1011200076D060EE78E08CE0C6DC6BE778E08DE0AE
:10113000C2DC20E040E06AE08AE02EDF20E040E010
:101140006CE088E029DF21E043E068E081E024DF13
:1011500020E044E063E082E01FDF76CD82E891E0AA
:101160009F938F9348DF0F900F90089588E217DACE
:1011700060E081E04CD062E081E049D061E083E052
:1011800046D063E084E043D060EE78E08CE093DC0E
:101190006EEA78E08DE08FDC20E040E06AE087E0F6
:1011A000FBDE20E040E06CE088E0F6DE21E043E09A
:1011B00068E081E0F1DE20E044E063E082E0ECCE34
:1011C00089E991E09F938F9316DF84EA91E09F93E2
:1011D0008F9311DF84EB91E09F938F930CDF8EED63
:1011E00091E09F938F9307DF84EF91E09F938F931C
:1011F00002DF8AE092E09F938F93FDDE8DB79EB76A
:101200000C960FB6F8949EBF0FBE8DBF0895E82FC1
:10121000F0E0EE0FFF1FEA5EFD4F28E049E080811D
:1012200091816CCC80E292E09F938F93E4DE0F90EB
:101230000F90089528E04DE060E084EF93E05EDCDD
:1012400028E04DE062E08CE893E058DC28E04DE0D7
:1012500061E084E293E052DC28E04DE063E08CEB57
:1012600092E04CDC88E29BD920E040E06AE08AE032
:1012700093DE20E040E06CE08BE08EDE21E045E094
:1012800061E083E089DE20E045E06BE083E084DE1E
:1012900021E043E068E081E07FDE21E044E064E0BB
:1012A00082E07ADED1DCB3DA62E179E08DE003CC72
:1012B0002DDA01C086D959DA8823E9F35CD9C82F21
:1012C000803AC1F382E0E7DBFC018C2F0995F2CF75
:1012D00097FB072E16F4009406D077FD08D00BD0AC
:1012E00007FC05D03EF4909581959F4F0895709529
:1012F00061957F4F0895AA1BBB1B51E107C0AA1F30
:10130000BB1FA617B70710F0A61BB70B881F991FA6
:101310005A95A9F780959095BC01CD010895AFE04D
:10132000B0E0E4E9F9E092C26C017B018A01DC01E2
:1013300017961C921E92169713968C9181FFDCC112
:101340002AE0522EF6019381F70193FD859193FFD8
:1013500081917F01882309F46FC0853239F493FDB0
:10136000859193FF81917F01853221F4B60190E050
:10137000DCD1E8CF912C612C712CFFE1F71508F43A
:1013800043C08B32B1F1E8F48032A9F18332C9F164
:10139000833609F486C0833709F48FC0833509F09A
:1013A000AFC0F801A190B1908F01692D70E076FC7B
:1013B00002C06FEF7FEFC501A2D14C01689477F8AE
:1013C0005DC08D32D9F0803349F020ED280F2A30EE
:1013D00040F18E32C1F5689476F802C0689470F8D6
:1013E000F70193FD859193FF81917F018111C5CF15
:1013F00032C0689471F8689472F8F2CF689473F808
:10140000EFCF689474F8ECCF77FC25C020ED280F5F
:101410002A3070F476FE05C0959C200D1124922E82
:10142000DFCF659C200D1124622E689475F8D8CF0B
:101430008E3249F476FECFCFD60116968D919C91CF
:101440002F96EFE01FC28C3619F4689477F8C8CF56
:10145000883609F4C5CF982F9F7D9554933008F0B6
:1014600097CF0C5F1F4F8FE3898388248394912C3F
:10147000AE014F5F5F4F5A01E89477F873FC05C0E7
:10148000862D90E08816990630F18114910449F573
:10149000662009F457CFB60180E290E046D16A9405
:1014A000F7CFD8018C9189830E5F1F4F88248394D6
:1014B000912CFE0131965F01DFCFD801AD90BD9038
:1014C0008D01692D70E076FC02C06FEF7FEFC501E2
:1014D00021D14C01D1CFB60180E290E026D16A94AF
:1014E000CFCFF50177FC859177FE81915F01B60141
:1014F00090E01BD161106A94F1E08F1A9108C5CF7A
:10150000843619F0893609F07DC0F80177FE73C082
:1015100061917191819191918F01272D2F76822E6A
:1015200097FF09C090958095709561957F4F8F4F7B
:101530009F4F689487F82AE030E0AE014F5F5F4F1D
:101540005A0123D18A19A82EBA2C782C86FE0CC0F9
:10155000E89470F8A91440F484FE05C082FC03C02E
:10156000782D7E7E772EB92C74FEA1C0FE01EA0D87
:10157000F11D8081803309F093C0872D897E782EFC
:1015800073FC0EC070FEA1C09A2CB61418F4960C11
:101590009B18B62C862D8B196B1408F480E0B80EBE
:1015A000B61408F094C06B1874FE93C0B60180E3C3
:1015B00090E0BBD072FE08C088E590E071FC02C0EC
:1015C00088E790E0B601B1D0A91408F48FC0AA94BE
:1015D000B12C9FEFA91AB90ADE0111964D01AA0E8E
:1015E000BB1EF50182915F01B60190E09ED08A1486
:1015F0009B04B9F74DCF61917191072E000C880BB8
:10160000990B8ACF872CE89484F82AE030E085375C
:1016100069F0572D597F852E803769F110F588358F
:1016200069F18F3609F008CF28E030E0F80187FE35
:101630002DC081919191A191B1918C879D87AE87A9
:10164000BF878F01BE016F5F7F4F5B01AB016C8570
:101650007D858E859F8599D08A19A82EE89487F874
:1016600073CF883709F0E8CE84FE02C0689482F810
:1016700020E130E0DBCF689484F8F6CF74FE03C03D
:10168000652F6660862E20E132E0D0CF8191919166
:10169000AC0160E070E04C875D876E877F87D1CFBB
:1016A00072FC02C0B3946CCFB394B39469CF872D0E
:1016B0008678882309F464CFF5CFB60180E290E004
:1016C00034D083948614C8F365CF8B2CFBCF612C68
:1016D0006BCF872D8678882309F476CF8BE271FE55
:1016E00080E277FC8DE2B60190E06DCFB60180E339
:1016F00090E01BD09A9468CF8FEF9FEFA1CEFC01B2
:101700000590615070400110D8F7809590958E0F2C
:101710009F1F0895FC016150704001900110D8F79F
:10172000809590958E0F9F1F08950F931F93CF93D1
:10173000DF93182F092FEB018B8181FD09C01FEF6B
:101740000FEF812F902FDF91CF911F910F9108956F
:1017500082FF14C02E813F818C819D81281739071B
:101760003CF4E881F981CF01019699838883108345
:101770008E819F8101969F838E83E3CFE885F985D3
:10178000812F0995892BA1F3DACFFA01AA272830F6
:1017900051F1203181F1E8946F936E7F6E5F7F4F3E
:1017A0008F4F9F4FAF4FB1E03ED0B4E03CD0670FBA
:1017B000781F891F9A1FA11D680F791F8A1F911D0D
:1017C000A11D6A0F711D811D911DA11D20D009F45D
:1017D00068943F912AE0269F11243019305D31939F
:1017E000DEF6CF010895462F4770405D4193B3E088
:1017F0000FD0C9F7F6CF462F4F70405D4A3318F02F
:10180000495D31FD4052419302D0A9F7EACFB4E0DF
:10181000A6959795879577956795BA95C9F7009797
:101820006105710508959B01AC010A2E0694579538
:10183000479537952795BA95C9F7620F731F841F8F
:10184000951FA01D08952F923F924F925F926F9225
:101850007F928F929F92AF92BF92CF92DF92EF9240
:10186000FF920F931F93CF93DF93CDB7DEB7CA1BC1
:10187000DB0B0FB6F894DEBF0FBECDBF09942A88EC
:10188000398848885F846E847D848C849B84AA8494
:10189000B984C884DF80EE80FD800C811B81AA8121
:1018A000B981CE0FD11D0FB6F894DEBF0FBECDBFEC
:1018B000ED010895F894FFCF14C6F5C5F5C5F5C53B
:1018C000F5C5F5C5F5C50DC6F4C5F4C5F4C5F4C533
:1018D000F5C5F3C5F4C5F5C5F6C5F7C5F8C5F9C531
:1018E000FAC5FBC5FCC5FDC5FEC5FFC500C601C6E2
:1018F00002C603C604C605C606C610C618C617C665
:1019000016C60DC60DC613C60CC60CC60CC60CC634
:041910000DC60BC62F
:10191400EA030000CC030000D3030000DB03000053
:10192400E3030000EB030000EC030000ED03000000
:10193400F4030000FC030000BA030000C00300002D
:10194400C60300000000000200000000AC0200001A
:10195400000000010201030303035B4B65796D6121
:10196400703A20636C61737369635D0A000C017CD7
:1019740000C40034005B4B65796D61703A2041709E
:10198400706C6520322028752F6C20636173652983
:101994005D005B4B65796D61703A204170706C65D8
:1019A400203220434150535D0031302047455420BC
:1019B40041240D0032302041203D20415343284131
:1019C40024290D0033302049462041203C20333265
:1019D400205448454E2041243D2243544C2B222B75
:1019E400434852242841202B203634290D0034301A
:1019F400203F2227223B41243B2227203D20223B1B
:101A0400413A0D0035302049462041203C3E2033E8
:101A140020474F544F2031300D00363020454E447E
:101A24000D52554E0D0074029C012C02E401540128
:101A34005B4B657962643A20536F6C2D32305D00E4
:00000001FF
