:10000000CDC2E7C2E6C2E5C2E4C2E3C2E2C2E1C2D7
:10001000E0C2DFC2DEC2DDC2DCC2DBC26CC4D9C258
:10002000D8C2D7C2D6C2D5C2D4C2D3C2D2C2D1C21C
:10003000D0C2CFC2A0A1A1A01B09A51CA010A0A046
:10004000201A0111B12C0D0E02160318A00B0A087C
:1000500007060413A009151914120517A0A6A40D6C
:100060000A0F0CA0A01D1BA0A0C0BFBE00BDBCBB42
:10007000BAB9B8B7A8A9AAAB00C1ADACA0A1A1A05C
:100080001B09A55C7F503B2F205A4151A02C4D4E9F
:1000900042564358A04B4A4847464453A0495559F5
:1000A00054524557A0A6A40D0A4F4C2E7E5D5B2DE1
:1000B0003A3039384037363534333231A8A9AAAB13
:1000C00000C1ADACA0A1A1A01B09A57C7F502B3F16
:1000D000205A4151B23C4D4E42564358A04B4A48DB
:1000E00047464453A049555954524557A0A6A40D1C
:1000F0000A4F4C3E7E7D7B3D2A30292860272625ED
:1001000024232221A8A9AAAB00C1ADACA0A1A1A023
:100110001B09A55C7F703B2F207A6171A02C6D6E4E
:1001200062766378A06B6A6867666473A0697579A4
:1001300074726577A0A6A40D0A6F6C2E7E5D5B2D90
:100140003A3039384037363534333231A8A9AAAB82
:1001500000C1ADACA4A1A1A0A01BA515A010A05CDE
:10016000201A0111A05B0D0E02160318A00B0A083D
:1001700007060413A009151914120517A0A0A00D55
:10018000A60F0C5DA0A0B15FA0C07D7B7F605EBBB1
:10019000BAB97E7CA8A9AAAB00C1ADACA4A1A1A0AC
:1001A000A01BA515A0503B2F205A4151A02C4D4E0D
:1001B00042564358A04B4A4847464453A0495559D4
:1001C00054524557A0A0A00DA64F4C2EA0A0A02D84
:1001D0003A3039380837363534333231A8A9AAAB2A
:1001E00000C1ADACA4A1A1A0A01BA515A0402B3FB0
:1001F000205A4151A03C4D5E42564358A04B4A48BC
:1002000047464453A049555954524557A0A0A00D04
:10021000A64F4C3EA0A0B23D2AA02928082726259B
:1002200024232221A8A9AAAB00C1ADACA4A1A1A0FE
:10023000A01BA515A0502B3F205A4151A03C4D4E6C
:1002400042564358A04B4A4847464453A049555943
:1002500054524557A0A0A00D404F4C3EA0A0B23D27
:100260002A4029280827262524232221A8A9AAAB29
:1002700000C1ADACA4A1A1A0A01BA5157F703B2F10
:10028000207A6171A02C6D6E62766378A06B6A68CB
:1002900067666473A069757974726577A0A0A00D14
:1002A0005E6F6C2EA0A0A02D3A3039380837363555
:1002B00034333231A8A9AAAB00C1ADACA5A2011359
:1002C000040607080A0B0C0B0A7FB1A5A4A11A1893
:1002D0000316020E0D0C0E0FA180A0A01B0102033D
:1002E000040506070809000D1E1B1C1DB209111785
:1002F0000512141915090F10000D0A8CA8A9AAAB34
:1003000000C1ADACB3978120939A8E8B2D372A38DC
:100310002F39A0A0343135323633A0A0302E2BA097
:10032000A0A0A0A0A5A24153444647484A4B4C3B3D
:100330003A5FA6A5A4A15A584356424E4D3C3E3FB3
:10034000A180A0A01B212223242526272829203D87
:100350007E5B5C5DB20951574552545955494F5027
:10036000600D0A8CA8A9AAAB00C1ADACB3978120DF
:10037000939A8E8B2D372A382F39A0A034313532FD
:100380003633A0A0302E2BA0A0A0A0A0A5A2415340
:10039000444647484A4B4C3B3A7FA6A5A4A15A582D
:1003A0004356424E4D2C2E2FA180A0A01B3132333C
:1003B000343536373839302D5E5B5C5DB2095157C4
:1003C0004552545955494F50400D0A8CA8A9AAAB23
:1003D00000C1ADACB3978120939A8E8B2D372A380C
:1003E0002F39A0A0343135323633A0A0302E2BA0C7
:1003F000A0A0A0A0A5A26173646667686A6B6C3B4D
:100400003A7FA6A5A4A17A786376626E6D2C2E2F12
:10041000A180A0A01B313233343536373839302D26
:100420005E5B5C5DB20971776572747975696F7036
:10043000400D0A8CA8A9AAAB00C1ADACB39781202E
:10044000939A8E8B2D372A382F39A0A0343135322C
:100450003633A0A0302E2BA0A0A0A0A01B0313A574
:1004600009A4A1203111011A32171318330504030E
:1004700034120616351407023619080E37150A0D00
:1004800038090B2C390F0C2E153D3D2A30103B2F0F
:100490003734313E2D7B27A138353230A8A9AAAB9D
:1004A00000C1ADAC2F1D0D083936332E1B0313A52B
:1004B00009A4A1203151415A32575358334544437E
:1004C00034524656355447423659484E37554A4DB0
:1004D00038494B2C394F4C2E152D3D2A30503B2F8F
:1004E0003734313E2D7B27A138353230A8A9AAAB4D
:1004F00000C1ADAC2F5B0D083936332E1B0313A59D
:1005000009A4A1202151415A40575358234544433F
:1005100024524656255447425E59484E26554A4D68
:100520002A494B3C284F4C3E155F2B2A29503A3F15
:100530002624213E2D7D22A12A254029A8A9AAAB47
:1005400000C1ADAC3F5D0D08285E233E1B0313A523
:1005500009A4A1203171617A3277737833656463BD
:1005600034726676357467623679686E37756A6D8F
:1005700038696B2C396F6C2E152D3D2A30703B2F4E
:100580003734313E2D7B27A138353230A8A9AAABAC
:1005900000C1ADAC2F5B0D083936332E11241FBEC0
:1005A000CFEFD4E0DEBFCDBF12E0A0E0B1E0E4E6E3
:1005B000FDE102C005900D92AE31B107D9F723E0FD
:1005C000AEE1B2E001C01D92A63BB207E1F710DB3D
:1005D00078CB16CD805A813208F037C0E82FF0E092
:1005E000ED59F14F09940FC410C413C417C422C4A9
:1005F00045C5BBC3C2C3C9C3D0C3D2C127C587E0E9
:10060000CCC588E0CAC589E0C8C581E0C6C582E01E
:10061000C4C583E0C2C584E0C0C585E0BEC586E030
:10062000BCC585E002C386E000C387E0FEC288E067
:10063000FCC289E0FAC28AE0F8C28BE0F6C28CE024
:10064000F4C28DE0F2C28EE0F0C20895682F80916E
:10065000210279C2CF93C82F813A18F0BBDFCF9126
:100660000895F4DF809122028C17C9F3C09322020F
:10067000D0D4F5CFCF93C82F8A3041F06C2F809122
:10068000200261D28C2F90E0CF9108958DE0F2DFAF
:10069000F5CFCF93DF930F92CDB7DEB780912002D5
:1006A0008BD28983803A51F080911E0290911F0273
:1006B0008CD189810F90DF91CF9108958091210293
:1006C0007BD28983F6CF90E090931F0280931E0225
:1006D0000895CF93DF9300D0CDB7DEB789836A83C7
:1006E000B2D3482F6A8189815CD30F900F90DF913C
:1006F000CF9108957F928F929F92AF92BF92CF92A7
:10070000DF92EF92FF920F931F93CF93DF9382E0DC
:100710009BD25C0184E089D200E00F2EFAE07F2EAC
:10072000F02D88248394912C74C08C2F90E0F701D5
:10073000EC0FF11D208121502115D1F02083D69599
:100740001695CF5FD6D2C81708F062C0D0FDEDCFA6
:1007500010FFF5CF6C2F802FBCDF90912202891300
:10076000EECFB1D4811559F38091220273DFE7CF28
:10077000F701E80FF91F708210FF13C094010C2ECF
:1007800002C0220F331F0A94E2F7C901F601ED55AA
:10079000FD4F9081892B80836C2F802F9ADF5ADF49
:1007A000CECFF4010C2E02C0EE0FFF1F0A94E2F729
:1007B000CF018095F601ED55FD4F9081892380830F
:1007C0006C2F802F86DF813A40F4909122028913AA
:1007D000B6CFF0EAF0932202B2CF815A8D3008F002
:1007E000AECFE82FF0E0EC57F14F099427D3A7CF15
:1007F00027D3A5CF5BD4A3CFB4D2A1CFBAD29FCFFA
:10080000C0D29DCFC6D29BCFCED099CF0BD497CF9D
:100810000F5F64D20817C0F4802FF5010995182FD7
:10082000C02ED12CF601ED55FD4FD081D827C0E068
:10083000C601880F991F880F991F880F991F9C0167
:100840002D5D3D4F79017ECFDF91CF911F910F91AB
:10085000FF90EF90DF90CF90BF90AF909F908F90E0
:100860007F9008951F93CF93DF9310E00DC06C2FFE
:10087000812F2FDFAFDED695CF5F3BD2C81718F49C
:10088000D0FFF9CFF4CF1F5F29D2181738F4E12F2A
:10089000F0E0ED55FD4FD081C0E0EFCFDF91CF917B
:1008A0001F91089580EA809322020BD1A3D357D2DF
:1008B00080E190E019D18093210280E890E014D18A
:1008C00080932002A3EAB2E0E3E2F2E023EB32E01D
:1008D0008AE01D92808381838283838384838583DE
:1008E000868387833896A217B30799F708953C9AB1
:1008F000259A249A08958F9381E08093B4028F9172
:1009000018958091B4021092B4020895811511F0E7
:1009100044980895449A0895811511F02D9A0895E8
:100920002D980895811511F02C9A08952C9808950A
:10093000811519F0459A3D9A08954598FCCF811587
:1009400019F03D98459A089545983D9A0895811566
:1009500019F0459A3D9A08953D9845980895811556
:1009600019F02B98239A08952B9AFCCF0895089597
:100970000895811519F02F9A279A08952F98FCCF82
:10098000811519F027982F9A08952F98279A08957E
:10099000811519F02F9A279A089527982F9808956E
:1009A0002E98269A08952E9A269A08958AE18A9575
:1009B000F1F700C008952FE788E391E021508040CF
:1009C0009040E1F700C000000895009769F020E032
:1009D00030E0EFECF7E03197F1F700C000002F5F57
:1009E0003F4F82179307A9F70895F8941092B40225
:1009F00087E0809361001092B4028CE787BD15BC3C
:100A000082E084BD80936E0083E085BD8091B30257
:100A10008BB98FEF8AB91092B302C2DF68DF67DF4C
:100A200088B1807F88B987B18F6087B92A98229A68
:100A3000299A219A209828987894089598B1907FBF
:100A40008F70982B98B929982A9A2A98299A40E069
:100A500050E080E023B130E02095309521703327BD
:100A6000042E02C0220F331F0A94E2F7822B2A9A27
:100A70002A984F5F5F4F4830510561F70895909174
:100A8000B30289278BB91E9A8AE18A95F1F700C0D3
:100A90001E9A0895833069F028F0843059F085302B
:100AA00031F468C8813021F0823009F4A5C735C718
:100AB00066C7D5C719C8982F81E0963008F080E046
:100AC00008951092B7021092B6021092B5020895DE
:100AD000811544F091E02091B50282170CF090E06E
:100AE000892F089580E008954091B50244303CF587
:100AF0006091B6027091B70220E930E0261B370BF7
:100B000028173907F4F021E0240F2093B50227E0DD
:100B10004202F0011124E854FD4F938382839B012C
:100B20002C523D4F31832083148215821682860F0A
:100B3000971F9093B7028093B602842F08954FEFCA
:100B4000FCCF4FEFFACFCF93DF9300D0CDB7DEB716
:100B500089836A83BDDF811551F12981822F022E9D
:100B6000000C990B37E02302F0011124E854FD4FEB
:100B700026816281738126171706CCF4FC01EE0FE3
:100B8000FF1FEE0FFF1FEE0FFF1FE81BF90BE854CE
:100B9000FD4F3481832F90E0A081B181A30FB11D5F
:100BA0003A813C93019634D884832F5F26830F903B
:100BB0000F90DF91CF910895CF93DF930F92CDB730
:100BC000DEB7898385DF30EA811549F12981822FDB
:100BD000022E000C990B37E02302F0011124E85497
:100BE000FD4F268130EA2115D1F0FC01EE0FFF1FE9
:100BF000EE0FFF1FEE0FFF1FE81BF90BE854FD4F30
:100C00003581832F90E0A081B181A30FB11D3C916C
:100C1000019662817381FCD7858321502683832FBF
:100C20000F90DF91CF91089508959FEF980F9F3017
:100C300050F4E82FF0E0EE0FFF1FEC59FC4F01904D
:100C4000F081E02D099508959FEF980F9F3048F4AB
:100C5000E82FF0E0EE0FFF1FEC59FC4F80819181EF
:100C6000089584E196E008959FEF980F9F3040F437
:100C7000E82FF0E0EE0FFF1FEC59FC4F718360830B
:100C80000895E4E6F3E024E833E084E196E081931C
:100C90009193E217F307D9F7E4E6F3E08EE195E0EC
:100CA000958384838FE395E0978386838AE793E037
:100CB000938382830895643080F4413170F4293045
:100CC00060F4E62FF0E0EE0FFF1FEE0FFF1FEB5773
:100CD000FC4F91838083428323830895B4D0E82F0F
:100CE000F0E0EE0FFF1FEE0FFF1FEB57FC4F82816E
:100CF0000895A9D0E82FF0E0EE0FFF1FEE0FFF1FC1
:100D0000EB57FC4F83810895CF93DF9300D0CDB78D
:100D1000DEB78983D0DE811105C00F900F90DF917F
:100D2000CF9108958981809384035FDE1A8220E049
:100D300040E06A8180E090E0BEDF8A818F5F8A8335
:100D40008430A9F75FD29DDF8981A4DE8BDD66D276
:100D5000E4CF90918403981301C00895D5CF80E02B
:100D6000D3CF809184038E7FF4CF80918403816000
:100D7000F0CF809184038D7FECCF809184038260DB
:100D8000E8CF809184038B7FE4CF809184038460DB
:100D9000E0CF80918403877FDCCF809184038860DB
:100DA000D8CF50E0FA01EE0FFF1FEE0FFF1FEB57F9
:100DB000FC4FE381E115E1F0DA01AA0FBB1FAA0F96
:100DC000BB1FAB57BC4F12969C91911599F0440FE5
:100DD000551F440F551FDA01AB57BC4F70E08E9F73
:100DE000600D711D1124ED91FD91E60FF71FE49147
:100DF0008E2F0895E92FFCCF8093970361E081FF48
:100E000062E08BE08CC181E0F7CF80919703826034
:100E1000F3CF8091970392E08927EECF90919603CC
:100E200081E089278093960361E0913009F462E0C4
:100E30008AE075C181E080939503089580E0DCCF5E
:100E4000109295030895E1E080919703811101C00C
:100E5000E0E0809196038111E26080919503811119
:100E6000E460F0E0EC5CFE4F80810895CF93DF9367
:100E700000D00F92CDB7DEB76983282F30E0220F64
:100E8000331F220F331F20503F4F3B832A83D9014A
:100E9000ED91FD91862F09952981EA81FB812283BD
:100EA0000F900F900F90DF91CF910895CF93DF9324
:100EB000C82FD0E0CC0FDD1FCC0FDD1FC050DF4F9F
:100EC000E881F98181E0099581E08A83DF91CF9102
:100ED0000895CF93DF93C82FD0E0CC0FDD1FCC0F48
:100EE000DD1FC050DF4FE881F98180E009951A824B
:100EF000DF91CF910895A82FB0E0AA0FBB1FAA0FD2
:100F0000BB1FA050BF4FED91FD918C9109950895A5
:100F1000E82FF0E0EE0FFF1FEE0FFF1FE050FF4F36
:100F200061E09281911160E0A1CF382F909103018F
:100F300080E0911581F0391781F0E92FF0E0EE0F94
:100F4000FF1FEE0FFF1FE050FF4F2381892F211558
:100F500029F0922FF0CF8DE0089508958DE0089547
:100F6000E82FF0E0EE0FFF1FEE0FFF1FE050FF4FE6
:100F700083810895CF93DF9300D00F92CDB7DEB772
:100F800089836A834B83D1DF998191509C30E0F44F
:100F90008D3009F19981E92FF0E0EE0FFF1FEE0F80
:100FA000FF1FE050FF4F9381A82FB0E0AA0FBB1F97
:100FB000AA0FBB1FA050BF4F13969C938A818383B7
:100FC0009B81928381E001C080E00F900F900F9091
:100FD000DF91CF91089580E0F8CFE2E0F1E080E08A
:100FE00091E090838F5F818334968D30D1F710929A
:100FF000330108958DE092E090939B0380939A03D0
:1010000090939D0380939C039093990380939803FE
:10101000089580919C0390919D03909399038093F0
:101020009803089510929B0310929A0380919C0359
:1010300090919D038234910541F010929D0310928E
:101040009C03109299031092980308958DE092E00A
:1010500090939B0380939A0380919C0390919D03AE
:101060008234910551F08DE092E090939D0380933E
:101070009C0390939903809398030895809198031B
:10108000909199038334910530F480919C03909161
:101090009D03892B51F482E490E090939D0380930B
:1010A0009C039093990380939803089580919A03E9
:1010B00090919B0390939D0380939C03909399033D
:1010C00080939803089580919803909199030097D5
:1010D00089F00197009731F09093990380939803DA
:1010E00080E0089582E490E09093990380939803C0
:1010F00081E0089580E008950F931F93CF938C01B2
:10110000C62F611541F08C2FF80109958C2F28DF2F
:10111000C82F8111F8CFCF911F910F910895CF93D0
:10112000DF930F92CDB7DEB7E82FF0E0EE0FFF1F91
:10113000E256FC4F80818983633001F148F06430CE
:1011400081F06530B9F4698188E897E0D5DF12C095
:101150006130F1F0623071F4698189E697E0CCDFAB
:1011600009C0698188E897E0C7DF25DC698188E8E4
:1011700097E0C2DF0F90DF91CF910895698188E8F1
:1011800097E0BADF13DC698188E897E0B5DFF2CF3A
:10119000698186E597E0B0DFEDCFE82FF0E0EE0F54
:1011A000FF1FE256FC4F6181BACFCF93DF9300D08F
:1011B00000D0CDB7DEB769834A839FEF980F9B308D
:1011C00038F00F900F900F900F90DF91CF9108950E
:1011D000482F50E05C834B83FA01EE0FFF1FE2566D
:1011E000FC4F422F60818981C5DE811551F3EB816F
:1011F000FC81EE0FFF1FE256FC4F598150838A811C
:101200008183DFCFEADEEEE9F3E086EB93E0118243
:1012100010823296E817F907D1F70895CF93C0E00E
:101220008C2F69DECF5FCD30D9F7CF910895AF9283
:10123000BF92CF92DF92EF92FF920F931F93CF93C3
:10124000DF937C016B01E8012115310599F094F0E1
:10125000890101501109A42EB12CB601C501F70175
:101260000995688179816F5F7F4F79836883015029
:10127000110998F7DF91CF911F910F91FF90EF9097
:10128000DF90CF90BF90AF9008952F923F924F92F2
:101290005F926F927F928F929F92AF92BF92CF9206
:1012A000DF92EF92FF920F931F93CF93DF9300D0C3
:1012B00000D0CDB7DEB79A8389831B0149015A015B
:1012C00027013801672B09F46BC081E4C11001C00C
:1012D00081E629813A81690101E010E00F2EF6EFE5
:1012E000FF2EF02DF80E3C832B8318C06F0DF601F6
:1012F000608384149504A604B704F0F0C501B4011A
:10130000A301920198D449015A01C8010196FFEF47
:10131000CF1ADF0A0215130578F48C01C501B40158
:10132000A301920188D46A30710581059105F0F618
:10133000605DD6016C93DDCF980136952795211518
:101340003105A9F0E981FA81E00FF11F89819A81C5
:10135000280F391FAB81BC818D91BC83AB839291E7
:101360009E9380838B819C818217930799F7802FAE
:10137000912F0F900F900F900F90DF91CF911F91B1
:101380000F91FF90EF90DF90CF90BF90AF909F9024
:101390008F907F906F905F904F903F902F90089527
:1013A00080E090E0E6CF2F923F924F925F926F9253
:1013B0007F928F929F92AF92BF92CF92DF92EF92E5
:1013C000FF920F931F93CF93DF93CDB7DEB7619753
:1013D0000FB6F894DEBF0FBECDBF3C012B01180144
:1013E000E98A86017501C82C8EA09FA060E170E09B
:1013F000CE0101964ADF7C010097B1F1ACF18989F9
:101400008115C1F1E214F3040CF440C08E010F5FAA
:101410001F4FE00EF11EF80181918F01B20190E0A3
:10142000F3010995F4018081918101969183808374
:101430000E151F0581F761960FB6F894DEBF0FBE3B
:10144000CDBFDF91CF911F910F91FF90EF90DF9073
:10145000CF90BF90AF909F908F907F906F905F9054
:101460004F903F902F90089580E38983EE24E3947A
:10147000F12CC5CFE214F3044CF691012E193F096B
:10148000840140E2B201C301D2DEC0CF91012E1926
:101490003F09840140E3B201C301C9DEB7CF60E078
:1014A00070E0E8C82F923F924F925F926F927F92C6
:1014B0008F929F92AF92BF92CF92DF92EF92FF9264
:1014C0000F931F93CF93DF93CDB7DEB76B970FB614
:1014D000F894DEBF0FBECDBF9C8B8B8B1B012A0106
:1014E00069011A821982452B41F589819A816B968F
:1014F0000FB6F894DEBF0FBECDBFDF91CF911F9125
:101500000F91FF90EF90DF90CF90BF90AF909F90A2
:101510008F907F906F905F904F903F902F900895A5
:101520002FEF421A520AB10190E0EB89FC8909952C
:1015300089819A8101969A838983D2018C91811540
:10154000A1F2853269F7D20111968C91853279F139
:101550008033E1F1D20111961F8A1C9180ED810F39
:101560008A30C8F5FD013196612C712CC301880FBA
:10157000991F880F991F680E791E660C771CA12F82
:10158000A053BB0B6A0E7B1EDF01119180ED810F12
:101590008A3060F32D01EFEF4E1A5E0AE8EAE10FA0
:1015A000E13208F07AC1F0E0EF56F14F0994B10151
:1015B00085E290E0EB89FC89099589819A81019601
:1015C0009A838983F2E04F0E511CB7CFD201129655
:1015D00021E02F8BC2CF612C712CDCCFD601ED9096
:1015E000FD906D01B2E06B1671040CF468C1EF89D7
:1015F000E115B1F0B101C701EB89FC890995898139
:101600009A8101969A8389839301215031098E0131
:101610000F5F1F4F40E3B1018B899C8908DE8DCF9E
:101620009301215031098E010F5F1F4F40E2B1013C
:101630008B899C89FCDDB101C701EB89FC89099587
:1016400089819A8101969A83898377CFD601AD905B
:10165000BD906D01A114B104D1F1F5018081811516
:1016600009F438C1F5013196E12CF12C2FEFE21A83
:10167000F20A81918111FACF6114710479F074F04A
:10168000E614F70478F493012E193F098E010F5FD9
:101690001F4F40E2B1018B899C89C9DDE114F1043F
:1016A00009F44BCF8501EA0CFB1CAB88BC88D80140
:1016B0008D918D01B10190E0F501099589819A81A3
:1016C00001969A838983E016F10689F736CF0F2EAB
:1016D000FCE3AF2EF1E0BF2EF02DC4CFD6018D90EC
:1016E0009D90AD90BD90BE8BAD8BB7FA88279927A2
:1016F000DC0180F9888F998FAA8FBB8FBB203CF1CA
:10170000C12C1AE0E12EF12C00E010E0A5019401BB
:1017100060E170E0CE010396B8DD7C018C01B88DEC
:101720000B0F111DEF89E11140C0061517050CF4D0
:101730005CC0BB20ECF5B1018DE290E0EB89FC8947
:10174000099589819A8101969A83898331C0FB2CFE
:10175000FF0CCC08DC2C7601282D392D4A2D5B2D71
:101760006C2D7C2D8C2D9C2D88D2C12C1AE0E12E65
:10177000F12C00E010E060E170E0CE01039685DD21
:101780007C018C01988D090F111DAF89A11569F29B
:10179000BB205CF4B1018DE290E0EB89FC890995F6
:1017A00089819A8101969A838983061517054CF1E0
:1017B000E114F104B9F0B4F08E010D5F1F4FE00E9B
:1017C000F11ECB88DC88D8018D918D01B10190E0AC
:1017D000F601099589819A8101969A838983E01699
:1017E000F10689F7CD88DE88A8CE9301201B310B46
:1017F0008E010F5F1F4F40E2B1018B899C8917DD7D
:1018000098CF9301201B310B8E010F5F1F4F40E3D8
:10181000B1018B899C890BDDCBCFD6012D913D91F8
:101820004D915D91BE8BAD8BCE0101969F938F93B1
:10183000812C0F2EFAE0AF2EB12CC12CD12CF02D23
:10184000EF888301B1018B899C89ADDD0F900F90EA
:10185000CD88DE8872CEF6013496FE8BED8B88241F
:101860008394183509F0812CD6012D913D914D912D
:101870005D91CE0101969F938F93A12CB12C6501B0
:101880006894A4F8EF888301B1018B899C898BDD72
:101890000F900F90CD88DE8850CEB10185E290E0A8
:1018A000EB89FC890995B101812F90E0EB89FC89D6
:1018B000099589819A8102969A8389833ECEB101E6
:1018C000C701EB89FC89099589819A8101969A83E0
:1018D000898333CEE12CF12C6114710411F00CF0EA
:1018E000D2CE2BCECF93DF93CDB7DEB79E012B5F49
:1018F0003F4FF901419151919F0160E070E08FE409
:101900009AE0D0DDDF91CF91089583E491E09F9339
:101910008F93E8DF0F900F90089588E2D4D660E0AF
:1019200080E057D062E081E054D061E082E051D0A5
:1019300063E083E04ED065E87CE08EE095D969E510
:101940007DE08DE091D921E040E06AE087E02DDC88
:1019500020E040E06CE08AE028DC21E043E068E041
:1019600081E023DC20E044E063E082E01ECC83E4FD
:1019700091E09F938F93B6DF0F900F90089588E2C8
:10198000A2D660E081E025D062E081E022D061E073
:1019900082E01FD063E083E01CD067EB7CE08EE048
:1019A00063D969E57DE08DE05FD921E040E06AE040
:1019B00087E0FBDB20E040E06CE087E0F6DB21E045
:1019C00043E068E081E0F1DB20E044E063E082E0B6
:1019D000ECCBE82FF0E0EE0FFF1FEC5FFD4F28E0AF
:1019E00049E08081918167C986E591E09F938F935B
:1019F00079DF0F900F90089588E265D660E080E06F
:101A000060D062E081E05DD061E082E05AD063E0C6
:101A100084E057D069E57DE087E026D964EF7CE07B
:101A20008EE022D920E040E06AE08AE0BEDB20E0E0
:101A300040E06CE088E0B9DB21E043E068E081E071
:101A4000B4DB20E044E063E082E0AFDBE7C983E79A
:101A500091E09F938F9346DF0F900F90089588E257
:101A600032D660E081E02DD062E081E02AD061E0F2
:101A700083E027D063E084E024D069E57DE08DE059
:101A8000F3D867E27DE08EE0EFD820E040E06AE046
:101A900087E08BDB20E040E06CE088E086DB21E043
:101AA00043E068E081E081DB20E044E063E082E045
:101AB0007CCB8AE891E09F938F9314DF0F900F9077
:101AC0000895E82FF0E0EE0FFF1FE45FFD4F28E0E0
:101AD00049E080819181EFC881EE91E09F938F93DF
:101AE00001DF0F900F90089528E04DE060E084EF53
:101AF00093E0E1D828E04DE062E08CE893E0DBD8A9
:101B000028E04DE061E084E293E0D5D828E04DE0A4
:101B100063E08CEB92E0CFD888E2D5D520E040E0BE
:101B20006AE08AE042DB20E040E06CE08BE03DDBF5
:101B300021E045E061E083E038DB20E045E06BE058
:101B400083E033DB21E043E068E081E02EDB21E04D
:101B500044E064E082E029DB61D925D76CE67DE0D2
:101B60008EE082C881EF91E09F938F93BBDE0F9050
:101B70000F90089588E2A7D560E080E026D062E06B
:101B800081E023D061E082E020D063E083E01DD0DB
:101B900062EB7DE08EE068D860EF7DE08DE064D898
:101BA00021E040E06AE087E000DB20E040E06CE01C
:101BB0008AE0FBDA21E043E068E081E0F6DA20E049
:101BC00044E063E082E0F1DA29C9E82FF0E0EE0FAB
:101BD000FF1FEA5EFD4F28E04AE0808191816BC8DB
:101BE0008AE891E09F938F937DDE0F900F90089588
:101BF00059D601C07FD585D68115E9F34AD5C82FBE
:101C0000803AC0F783E020D8FC018C2F0995F2CFF1
:101C100097FB072E16F4009406D077FD08D03DD030
:101C200007FC05D03EF4909581959F4F08957095DF
:101C300061957F4F0895A1E21A2EAA1BBB1BFD01DF
:101C40000DC0AA1FBB1FEE1FFF1FA217B307E4079B
:101C5000F50720F0A21BB30BE40BF50B661F771FF3
:101C6000881F991F1A9469F76095709580959095D3
:101C70009B01AC01BD01CF010895609570958095E1
:101C8000909530954095509521953F4F4F4F5F4F20
:101C90006F4F7F4F8F4F9F4F0895AA1BBB1B51E182
:101CA00007C0AA1FBB1FA617B70710F0A61BB70BCC
:101CB000881F991F5A95A9F780959095BC01CD0171
:101CC0000895F894FFCFADC48EC48EC48EC48EC464
:101CD0008EC48EC4A6C48DC48DC48DC48DC48EC460
:101CE0008CC48DC48EC48FC490C491C492C493C458
:101CF00094C495C496C497C498C499C49AC49BC408
:101D00009CC49DC49EC49FC471C519C518C517C580
:101D10006FC570C514C570C571C572C573C576C56C
:101D200073C599CDBACDB9CDB8CDB7CDB6CDB5CDFA
:101D3000B4CDB3CDB2CDB1CD51CCD0CCAECDADCDF7
:101D4000ACCDABCDCBCCA9CDA8CDA7CDA6CDA5CDC7
:101D5000A4CDA3CDA2CDA1CD79CC9FCD5ECD9DCD7F
:041D60009CCD79CDD0
:101D6400B6040000980400009F040000A7040000CB
:101D7400AF040000B7040000B8040000B904000078
:101D8400C0040000C8040000860400008C040000A5
:101D9400920400000001020103030303286E756C22
:101DA4006C29005B4B65796D61703A20636C6173DB
:101DB4007369635D0A005B4B65796D61703A20411C
:101DC40070706C6520322028752F6C2063617365F8
:101DD400295D005B4B65796D61703A204170706CD0
:101DE40065203220434150535D0031304745544112
:101DF400242830293A413D4153432841242830299D
:101E0400293A41242831293D2243544C2B222B4387
:101E14004852242841202B203634293A3F222722B5
:101E24003B412428413C3332293B2227203D2022B8
:101E34003B413A4946413C3E33474F544F31300DC4
:101E4400005B4B657962643A20536F6C2D32305DD0
:101E5400005B4B65796D61703A20616365313030A8
:101E6400305D0A000C017C00C400340074029C0143
:0E1E74002C02E40154014C05AC04FC045C0497
:00000001FF
