:1000000025C3000042C3000040C300003EC30000FF
:100010003CC300003AC3000038C3000036C30000F0
:1000200034C3000032C3000030C300002EC3000000
:100030002CC300002AC3000028C3000026C3000010
:1000400024C3000022C3000020C300001EC3000020
:100050001CC30000AAC4000018C3000016C300009F
:1000600014C3000012C3000010C300000EC3000040
:100070000CC300000AC3000008C3000006C3000050
:1000800004C3000002C3000000C30000FEC2000061
:10009000FCC20000FAC20000F8C20000F6C2000074
:1000A000F4C20000F2C20000F0C20000EEC2000084
:1000B000ECC20000EAC20000E8C20000E6C2000094
:1000C000E4C20000E2C20000E0C20000DEC20000A4
:1000D000DCC20000DAC20000D8C20000D6C20000B4
:1000E000D4C20000A0A1A1A01B09A51CA010A0A023
:1000F000201A0111B12C0D0E02160318A00B0A08CC
:1001000007060413A009151914120517A0A6A40DBB
:100110000A0F0CA0A01D1BA0A0C0BFBE00BDBCBB91
:10012000BAB9B8B7A8A9AAAB00C1ADACA0A1A1A0AB
:100130001B09A55C7F503B2F205A4151A02C4D4EEE
:1001400042564358A04B4A4847464453A049555944
:1001500054524557A0A6A40D0A4F4C2E7E5D5B2D30
:100160003A3039384037363534333231A8A9AAAB62
:1001700000C1ADACA0A1A1A01B09A57C7F502B3F65
:10018000205A4151B23C4D4E42564358A04B4A482A
:1001900047464453A049555954524557A0A6A40D6B
:1001A0000A4F4C3E7E7D7B3D2A302928602726253C
:1001B00024232221A8A9AAAB00C1ADACA0A1A1A073
:1001C0001B09A55C7F703B2F207A6171A02C6D6E9E
:1001D00062766378A06B6A6867666473A0697579F4
:1001E00074726577A0A6A40D0A6F6C2E7E5D5B2DE0
:1001F0003A3039384037363534333231A8A9AAABD2
:1002000000C1ADACA4A1A1A0A01BA515A010A05C2D
:10021000201A0111A05B0D0E02160318A00B0A088C
:1002200007060413A009151914120517A0A0A00DA4
:10023000A60F0C5DA0A0B15FA0C07D7B7F605EBB00
:10024000BAB97E7CA8A9AAAB00C1ADACA4A1A1A0FB
:10025000A01BA515A0503B2F205A4151A02C4D4E5C
:1002600042564358A04B4A4847464453A049555923
:1002700054524557A0A0A00DA64F4C2EA0A0A02DD3
:100280003A3039380837363534333231A8A9AAAB79
:1002900000C1ADACA4A1A1A0A01BA515A0402B3FFF
:1002A000205A4151A03C4D5E42564358A04B4A480B
:1002B00047464453A049555954524557A0A0A00D54
:1002C000A64F4C3EA0A0B23D2AA0292808272625EB
:1002D00024232221A8A9AAAB00C1ADACA4A1A1A04E
:1002E000A01BA515A0502B3F205A4151A03C4D4EBC
:1002F00042564358A04B4A4847464453A049555993
:1003000054524557A0A0A00D404F4C3EA0A0B23D76
:100310002A4029280827262524232221A8A9AAAB78
:1003200000C1ADACA4A1A1A0A01BA5157F703B2F5F
:10033000207A6171A02C6D6E62766378A06B6A681A
:1003400067666473A069757974726577A0A0A00D63
:100350005E6F6C2EA0A0A02D3A30393808373635A4
:1003600034333231A8A9AAAB00C1ADACA5A20113A8
:10037000040607080A0B0C0B0A7FB1A5A4A11A18E2
:100380000316020E0D0C0E0FA180A0A01B0102038C
:10039000040506070809000D1E1B1C1DB2091117D4
:1003A0000512141915090F10000D0A8CA8A9AAAB83
:1003B00000C1ADACB3978120939A8E8B2D372A382C
:1003C0002F39A0A0343135323633A0A0302E2BA0E7
:1003D000A0A0A0A0A5A24153444647484A4B4C3B8D
:1003E0003A5FA6A5A4A15A584356424E4D3C3E3F03
:1003F000A180A0A01B212223242526272829203DD7
:100400007E5B5C5DB20951574552545955494F5076
:10041000600D0A8CA8A9AAAB00C1ADACB39781202E
:10042000939A8E8B2D372A382F39A0A0343135324C
:100430003633A0A0302E2BA0A0A0A0A0A5A241538F
:10044000444647484A4B4C3B3A7FA6A5A4A15A587C
:100450004356424E4D2C2E2FA180A0A01B3132338B
:10046000343536373839302D5E5B5C5DB209515713
:100470004552545955494F50400D0A8CA8A9AAAB72
:1004800000C1ADACB3978120939A8E8B2D372A385B
:100490002F39A0A0343135323633A0A0302E2BA016
:1004A000A0A0A0A0A5A26173646667686A6B6C3B9C
:1004B0003A7FA6A5A4A17A786376626E6D2C2E2F62
:1004C000A180A0A01B313233343536373839302D76
:1004D0005E5B5C5DB20971776572747975696F7086
:1004E000400D0A8CA8A9AAAB00C1ADACB39781207E
:1004F000939A8E8B2D372A382F39A0A0343135327C
:100500003633A0A0302E2BA0A0A0A0A01B0313A5C3
:1005100009A4A1203111011A32171318330504035D
:1005200034120616351407023619080E37150A0D4F
:1005300038090B2C390F0C2E153D3D2A30103B2F5E
:100540003734313E2D7B27A138353230A8A9AAABEC
:1005500000C1ADAC2F1D0D083936332E1B0313A57A
:1005600009A4A1203151415A3257535833454443CD
:1005700034524656355447423659484E37554A4DFF
:1005800038494B2C394F4C2E152D3D2A30503B2FDE
:100590003734313E2D7B27A138353230A8A9AAAB9C
:1005A00000C1ADAC2F5B0D083936332E1B0313A5EC
:1005B00009A4A1202151415A40575358234544438F
:1005C00024524656255447425E59484E26554A4DB8
:1005D0002A494B3C284F4C3E155F2B2A29503A3F65
:1005E0002624213E2D7D22A12A254029A8A9AAAB97
:1005F00000C1ADAC3F5D0D08285E233E1B0313A573
:1006000009A4A1203171617A32777378336564630C
:1006100034726676357467623679686E37756A6DDE
:1006200038696B2C396F6C2E152D3D2A30703B2F9D
:100630003734313E2D7B27A138353230A8A9AAABFB
:1006400000C1ADAC2F5B0D083936332E11241FBE0F
:10065000CFEFD1E2DEBFCDBF13E0A0E0B2E0E6E62F
:10066000FEE100E00BBF02C007900D92AE31B10772
:10067000D9F724E0AEE1B3E001C01D92A63BB2077A
:10068000E1F70E946C0E0C94E20EBACC805A8132D3
:1006900008F038C0E82FF0E0EC51F14F0C94B50EA3
:1006A0001EC41FC422C426C431C454C5CAC3D1C386
:1006B000D8C3DFC3DDC136C587E0DBC588E0D9C557
:1006C00089E0D7C581E0D5C582E0D3C583E0D1C537
:1006D00084E0CFC585E0CDC586E0CBC585E011C3FC
:1006E00086E00FC387E00DC388E00BC389E009C330
:1006F0008AE007C38BE005C38CE003C38DE001C330
:100700008EE0FFC20895682F8091210386C2CF93A7
:10071000C82F813A18F0BADFCF910895F4DF8091A5
:1007200022038C17C9F3C0932203DFD4F5CFCF93F4
:10073000C82F8A3041F06C2F809120036ED28C2F0D
:1007400090E0CF9108958DE0F2DFF5CFCF93DF9366
:100750000F92CDB7DEB78091200399D28983803A7A
:1007600051F080911E0390911F0397D189810F90C2
:10077000DF91CF9108958091210389D28983F6CFAB
:1007800090E090931F0380931E030895CF93DF930F
:1007900000D0CDB7DEB789836A83C1D3482F6A8181
:1007A00089816BD30F900F90DF91CF9108957F9245
:1007B0008F929F92AF92BF92CF92DF92EF92FF9271
:1007C0000F931F93CF93DF9382E0AAD24C0184E072
:1007D00098D200E00F2EFAE07F2EF02DAA24A394E9
:1007E000B12C75C08C2F90E0F701EC0FF11D20812A
:1007F00021502115D1F02083D6951695CF5FE5D2F3
:10080000C81708F063C0D0FDEDCF10FFF5CF6C2FF7
:10081000802FBCDF909122038913EECFC0D48115C5
:1008200059F38091220373DFE7CFF701E80FF91F37
:10083000708210FF13C095010C2E02C0220F331FCF
:100840000A94E2F7C901F601ED55FC4F9081892B1E
:1008500080836C2F802F9ADF5ADFCECFF5010C2ECC
:1008600002C0EE0FFF1F0A94E2F7CF018095F60158
:10087000ED55FC4F9081892380836C2F802F86DF7C
:10088000813A40F4909122038913B6CFF0EAF093B5
:100890002203B2CF815A8D3008F0AECFE82FF0E0BE
:1008A000EB5FF04F0C94B50E35D3A6CF35D3A4CF64
:1008B00069D4A2CFC2D2A0CFC8D29ECFCED29CCF75
:1008C000D4D29ACFD8D098CF19D496CF0F5F72D206
:1008D0000817C0F4802FF4010995182FC02ED12CD1
:1008E000F601ED55FC4FD081D827C0E0C601880F36
:1008F000991F880F991F880F991F9C012D5D3C4FF0
:1009000079017DCFDF91CF911F910F91FF90EF90F3
:10091000DF90CF90BF90AF909F908F907F90089581
:100920001F93CF93DF9310E00DC06C2F812F2EDF2C
:10093000ADDED695CF5F49D2C81718F4D0FFF9CFF6
:10094000F4CF1F5F37D2181738F4E12FF0E0ED55E0
:10095000FC4FD081C0E0EFCFDF91CF911F91089580
:1009600080EA8093220317D1B1D365D280E190E071
:1009700025D18093210380E890E020D1809320034B
:10098000A3EAB3E0E3E2F3E023EB33E08AE01D9275
:100990008083818382838383848385838683878323
:1009A0003896A217B30799F708958F9381E0809343
:1009B000B4038F9118958091B4031092B4030895F5
:1009C000811511F05D9808955D9A0895811511F0D3
:1009D0005E9808955E9A0895811511F05F980895C4
:1009E0005F9A08950895811519F02D9A259A089512
:1009F0002D98FCCF811519F025982D9A08952D98E2
:100A0000259A0895811519F02D9A259A089525980B
:100A10002D980895811519F02E9A269A08952E98EA
:100A2000FCCF811519F026982E9A08952E98269AB3
:100A30000895811519F02E9A269A089526982E98D1
:100A40000895811519F02F9A279A08952F98FCCFB1
:100A5000811519F027982F9A08952F98279A0895AD
:100A6000811519F02F9A279A089527982F9808959D
:100A70002C98249A08952C9A249A089585E38A95AF
:100A8000F1F7000008952FEF80E792E021508040B9
:100A90009040E1F700C000000895009769F020E061
:100AA00030E0EFE9FFE03197F1F700C000002F5F81
:100AB0003F4F82179307A9F70895CF93F8941092A8
:100AC000B40387E0809361001092B40389EF87BD7F
:100AD00015BC82E084BD80936E0083E085BD80916B
:100AE000B30380930201CFEFC09301011092B303CF
:100AF000BFDF559A569A579AC1B9C093040117B8E7
:100B0000C8B97894CF910895282F81E090E0A0E0B3
:100B1000B0E004C0880F991FAA1FBB1F2A95D2F707
:100B200080959095A095B0958093050125E12A9533
:100B3000F1F70000892F9A2FAB2FBB2782B985E1EF
:100B40008A95F1F7000086B1809508959091B303DE
:100B50008927809302011C9A85E38A95F1F70000AA
:100B60001C9A0895833071F030F0843061F0853044
:100B700039F40C942D0E813021F0823009F4ABC78A
:100B800039C76BC7DCC70C94E50D982F81E0963010
:100B900008F080E008951092B7031092B603109207
:100BA000B5030895811544F091E02091B5038217B3
:100BB0000CF090E0892F089580E008954091B503EE
:100BC00044303CF56091B6037091B70320E930E002
:100BD000261B370B28173907F4F021E0240F209348
:100BE000B50327E04202F0011124E854FC4F93833F
:100BF00082839B012C523C4F3183208314821582C7
:100C00001682860F971F9093B7038093B603842FA5
:100C100008954FEFFCCF4FEFFACFCF93DF9300D083
:100C2000CDB7DEB789836A83BDDF811559F129818C
:100C3000822F022E000C990B37E02302F0011124C1
:100C4000E854FC4F26816281738126171706D4F47D
:100C5000FC01EE0FFF1FEE0FFF1FEE0FFF1FE81B43
:100C6000F90BE854FC4F3481832F90E0A081B181CF
:100C7000A30FB11D3A813C9301960E94800E84839C
:100C80002F5F26830F900F90DF91CF910895CF9320
:100C9000DF930F92CDB7DEB7898384DF30EA811509
:100CA00051F12981822F022E000C990B37E023028B
:100CB000F0011124E854FC4F268130EA2115D9F0C7
:100CC000FC01EE0FFF1FEE0FFF1FEE0FFF1FE81BD3
:100CD000F90BE854FC4F3581832F90E0A081B1815E
:100CE000A30FB11D3C910196628173810E94800E19
:100CF000858321502683832F0F90DF91CF91089514
:100D000008959FEF980F9F3050F4E82FF0E0EE0F1A
:100D1000FF1FEC59FB4F0190F081E02D09950895DC
:100D20009FEF980F9F3048F4E82FF0E0EE0FFF1F81
:100D3000EC59FB4F80819181089580E896E00895F9
:100D40009FEF980F9F3040F4E82FF0E0EE0FFF1F69
:100D5000EC59FB4F718360830895E4E6F4E024E8E6
:100D600034E080E896E081939193E217F307D9F796
:100D7000E4E6F4E084E895E09583848386EA95E0F0
:100D80009783868387ED93E093838283089564300D
:100D900080F4413170F4293060F4E62FF0E0EE0F7A
:100DA000FF1FEE0FFF1FEB57FB4F918380834283A2
:100DB00023830895B4D0E82FF0E0EE0FFF1FEE0F6D
:100DC000FF1FEB57FB4F82810895A9D0E82FF0E079
:100DD000EE0FFF1FEE0FFF1FEB57FB4F83810895B0
:100DE000CF93DF9300D0CDB7DEB78983CEDE8111FC
:100DF00005C00F900F90DF91CF9108958981809366
:100E000084045BDE1A8220E040E06A8180E090E0AA
:100E1000BEDF8A818F5F8A838430A9F75FD29DDF2E
:100E20008981A0DE7DDD66D2E4CF909184049813A1
:100E300001C00895D5CF80E0D3CF809184048E7F08
:100E4000F4CF809184048160F0CF809184048D7F01
:100E5000ECCF809184048260E8CF809184048B7F02
:100E6000E4CF809184048460E0CF80918404877F04
:100E7000DCCF809184048860D8CF50E0FA01EE0F77
:100E8000FF1FEE0FFF1FEB57FB4FE381E115E1F072
:100E9000DA01AA0FBB1FAA0FBB1FAB57BB4F12969D
:100EA0009C91911599F0440F551F440F551FDA017D
:100EB000AB57BB4F70E08E9F600D711D1124ED91FB
:100EC000FD91E60FF71FE4918E2F0895E92FFCCFD7
:100ED0008093970461E081FF62E08BE08CC181E048
:100EE000F7CF809197048260F3CF8091970492E0CE
:100EF0008927EECF9091960481E08927809396040C
:100F000061E0913009F462E08AE075C181E080938C
:100F10009504089580E0DCCF109295040895E1E0F7
:100F200080919704811101C0E0E0809196048111C5
:100F3000E260809195048111E460F0E0EC5CFD4F8B
:100F400080810895CF93DF9300D00F92CDB7DEB7A5
:100F50006983282F30E0220F331F220F331F2050C8
:100F60003E4F3B832A83D901ED91FD91862F099550
:100F70002981EA81FB8122830F900F900F90DF91EE
:100F8000CF910895CF93DF93C82FD0E0CC0FDD1F12
:100F9000CC0FDD1FC050DE4FE881F98181E009955B
:100FA00081E08A83DF91CF910895CF93DF93C82F9B
:100FB000D0E0CC0FDD1FCC0FDD1FC050DE4FE8812D
:100FC000F98180E009951A82DF91CF910895A82FC9
:100FD000B0E0AA0FBB1FAA0FBB1FA050BE4FED91E0
:100FE000FD918C9109950895E82FF0E0EE0FFF1F19
:100FF000EE0FFF1FE050FE4F61E09281911160E023
:10100000A1CF382F9091030280E0911581F039171C
:1010100081F0E92FF0E0EE0FFF1FEE0FFF1FE05011
:10102000FE4F2381892F211529F0922FF0CF8DE0DB
:10103000089508958DE00895E82FF0E0EE0FFF1F6A
:10104000EE0FFF1FE050FE4F83810895CF93DF9393
:1010500000D00F92CDB7DEB789836A834B83D1DF8F
:10106000998191509C30E0F48D3009F19981E92FFC
:10107000F0E0EE0FFF1FEE0FFF1FE050FE4F9381D9
:10108000A82FB0E0AA0FBB1FAA0FBB1FA050BE4FD6
:1010900013969C938A8183839B81928381E001C014
:1010A00080E00F900F900F90DF91CF91089580E036
:1010B000F8CFE2E0F2E080E091E090838F5F8183FF
:1010C00034968D30D1F71092330208958DE092E07E
:1010D00090939B0480939A0490939D0480939C0426
:1010E0009093990480939804089580919C04909122
:1010F0009D049093990480939804089510929B0402
:1011000010929A0480919C0490919D0482349105E0
:1011100041F010929D0410929C0410929904109238
:10112000980408958DE092E090939B0480939A0434
:1011300080919C0490919D048234910551F08DE042
:1011400092E090939D0480939C04909399048093E3
:10115000980408958091980490919904833491059E
:1011600030F480919C0490919D04892B51F482E489
:1011700090E090939D0480939C04909399048093B5
:101180009804089580919A0490919B0490939D04F3
:1011900080939C049093990480939804089580917F
:1011A000980490919904009789F00197009731F085
:1011B000909399048093980480E0089582E490E0ED
:1011C000909399048093980481E0089580E00895B5
:1011D0000F931F93CF938C01C62F611541F08C2F75
:1011E000F80109958C2F28DFC82F8111F8CFCF91F6
:1011F0001F910F910895CF93DF930F92CDB7DEB774
:10120000E82FF0E0EE0FFF1FE256FB4F808189834D
:10121000633001F148F0643081F06530B9F46981E0
:1012200084EF97E0D5DF12C06130F1F0623071F4E5
:10123000698185ED97E0CCDF09C0698184EF97E093
:10124000C7DF21DC698184EF97E0C2DF0F90DF9177
:10125000CF910895698184EF97E0BADF0FDC69814F
:1012600084EF97E0B5DFF2CF698182EC97E0B0DFE1
:10127000EDCFE82FF0E0EE0FFF1FE256FB4F61814C
:10128000BACFCF93DF9300D000D0CDB7DEB769835C
:101290004A839FEF980F9B3038F00F900F900F907C
:1012A0000F90DF91CF910895482F50E05C834B83DE
:1012B000FA01EE0FFF1FE256FB4F422F608189813A
:1012C000C5DE811551F3EB81FC81EE0FFF1FE25665
:1012D000FB4F598150838A818183DFCFEADEEEE9BB
:1012E000F4E086EB94E0118210823296E817F90759
:1012F000D1F70895CF93C0E08C2F69DECF5FCD305A
:10130000D9F7CF910895AF92BF92CF92DF92EF922B
:10131000FF920F931F93CF93DF937C016B01E80142
:101320002115310599F094F0890101501109A42E7D
:10133000B12CB601C501F7010995688179816F5F0C
:101340007F4F798368830150110998F7DF91CF911E
:101350001F910F91FF90EF90DF90CF90BF90AF90D3
:1013600008952F923F924F925F926F927F928F9249
:101370009F92AF92BF92CF92DF92EF92FF920F9324
:101380001F93CF93DF9300D000D0CDB7DEB79A8301
:1013900089831B0149015A0127013801672B09F490
:1013A0006BC081E4C11001C081E629813A816901E5
:1013B00001E010E00F2EF6EFFF2EF02DF80E3C832B
:1013C0002B8318C06F0DF601608384149504A60466
:1013D000B704F0F0C501B401A3019201A4D44901FE
:1013E0005A01C8010196FFEFCF1ADF0A0215130553
:1013F00078F48C01C501B401A301920194D46A3040
:10140000710581059105F0F6605DD6016C93DDCF25
:1014100098013695279521153105A9F0E981FA81C2
:10142000E00FF11F89819A81280F391FAB81BC81A0
:101430008D91BC83AB8392919E9380838B819C81A1
:101440008217930799F7802F912F0F900F900F908D
:101450000F90DF91CF911F910F91FF90EF90DF9050
:10146000CF90BF90AF909F908F907F906F905F9044
:101470004F903F902F90089580E090E0E6CF2F921C
:101480003F924F925F926F927F928F929F92AF9214
:10149000BF92CF92DF92EF92FF920F931F93CF9361
:1014A000DF93CDB7DEB761970FB6F894DEBF0FBEFE
:1014B000CDBF3C012B011801E98A86017501C82CBA
:1014C0008EA09FA060E170E0CE0101964ADF7C0112
:1014D0000097B1F1ACF189898115C1F1E214F304EF
:1014E0000CF440C08E010F5F1F4FE00EF11EF8019B
:1014F00081918F01B20190E0F3010995F40180819F
:1015000091810196918380830E151F0581F7619665
:101510000FB6F894DEBF0FBECDBFDF91CF911F9104
:101520000F91FF90EF90DF90CF90BF90AF909F9082
:101530008F907F906F905F904F903F902F90089585
:1015400080E38983EE24E394F12CC5CFE214F30405
:101550004CF691012E193F09840140E2B201C3010A
:10156000D2DEC0CF91012E193F09840140E3B201C0
:10157000C301C9DEB7CF60E070E0D9C82F923F92B7
:101580004F925F926F927F928F929F92AF92BF9293
:10159000CF92DF92EF92FF920F931F93CF93DF933F
:1015A000CDB7DEB76B970FB6F894DEBF0FBECDBFD9
:1015B0009C8B8B8B1B012A0169011A821982452B96
:1015C00041F589819A816B960FB6F894DEBF0FBE04
:1015D000CDBFDF91CF911F910F91FF90EF90DF90E2
:1015E000CF90BF90AF909F908F907F906F905F90C3
:1015F0004F903F902F9008952FEF421A520AB10159
:1016000090E0EB89FC89099589819A8101969A83FA
:101610008983D2018C918115A1F2853269F7D201BB
:1016200011968C91853279F18033E1F1D2011196D6
:101630001F8A1C9180ED810F8A30C8F5FD0131961B
:10164000612C712CC301880F991F880F991F680E98
:10165000791E660C771CA12FA053BB0B6A0E7B1E54
:10166000DF01119180ED810F8A3060F32D01EFEFE2
:101670004E1A5E0AE8EAE10FE13208F07BC1F0E0C1
:10168000EE5EF04F72C3B10185E290E0EB89FC8918
:10169000099589819A8101969A838983F2E04F0E98
:1016A000511CB7CFD201129621E02F8BC2CF612CF3
:1016B000712CDCCFD601ED90FD906D01B2E06B1680
:1016C00071040CF469C1EF89E115B1F0B101C701F2
:1016D000EB89FC89099589819A8101969A8389838E
:1016E0009301215031098E010F5F1F4F40E3B1017B
:1016F0008B899C8908DE8DCF9301215031098E01A1
:101700000F5F1F4F40E2B1018B899C89FCDDB10165
:10171000C701EB89FC89099589819A8101969A8391
:10172000898377CFD601AD90BD906D01A114B1042E
:10173000D1F1F5018081811509F439C1F5013196A6
:10174000E12CF12C2FEFE21AF20A81918111FACFEC
:101750006114710479F074F0E614F70478F49301DD
:101760002E193F098E010F5F1F4F40E2B1018B8997
:101770009C89C9DDE114F10409F44BCF8501EA0C21
:10178000FB1CAB88BC88D8018D918D01B10190E024
:10179000F501099589819A8101969A838983E016DA
:1017A000F10689F736CF0F2EFCE3AF2EF2E0BF2E05
:1017B000F02DC4CFD6018D909D90AD90BD90BE8B85
:1017C000AD8BB7FA88279927DC0180F9888F998F2C
:1017D000AA8FBB8FBB2044F1C12C1AE0E12EF12C63
:1017E00000E010E0A501940160E170E0CE010396F5
:1017F000B8DD7C018C01B88D0B0F111DEF89E11153
:1018000041C0061517050CF45DC0BB200CF03DC0AF
:10181000B1018DE290E0EB89FC89099589819A817B
:1018200001969A83898331C0FB2CFF0CCC08DC2CF9
:101830007601282D392D4A2D5B2D6C2D7C2D8C2D7C
:101840009C2D9CD2C12C1AE0E12EF12C00E010E07E
:1018500060E170E0CE01039684DD7C018C01988DFF
:10186000090F111DAF89A11561F2BB205CF4B10114
:101870008DE290E0EB89FC89099589819A81019636
:101880009A838983061517054CF1E114F104B9F028
:10189000B4F08E010D5F1F4FE00EF11ECB88DC8887
:1018A000D8018D918D01B10190E0F60109958981F2
:1018B0009A8101969A838983E016F10689F7CD888B
:1018C000DE88A7CE9301201B310B8E010F5F1F4FC7
:1018D00040E2B1018B899C8916DD97CF9301201BD3
:1018E000310B8E010F5F1F4F40E3B1018B899C8943
:1018F0000ADDCBCFD6012D913D914D915D91BE8BEF
:10190000AD8BCE0101969F938F93812C0F2EFAE021
:10191000AF2EB12CC12CD12CF02DEF888301B10159
:101920008B899C89ACDD0F900F90CD88DE8871CEBD
:10193000F6013496FE8BED8B88248394183509F0DC
:10194000812CD6012D913D914D915D91CE01019655
:101950009F938F93A12CB12C65016894A4F8EF8814
:101960008301B1018B899C898ADD0F900F90CD880E
:10197000DE884FCEB10185E290E0EB89FC890995C4
:10198000B101812F90E0EB89FC89099589819A81C9
:1019900002969A8389833DCEB101C701EB89FC8908
:1019A000099589819A8101969A83898332CEE12CA7
:1019B000F12C6114710411F00CF0D1CE2ACECF932A
:1019C000DF93CDB7DEB79E012B5F3F4FF901419109
:1019D00051919F0160E070E08BEB9AE0CFDDDF91E9
:1019E000CF91089583E492E09F938F93E8DF0F9067
:1019F0000F90089588E20E94C00360E080E058D014
:101A000062E081E055D061E082E052D063E083E0A3
:101A10004FD062EF7CE08EE093D96AEC7DE08DE000
:101A20008FD921E040E06AE087E02BDC20E040E055
:101A30006CE08AE026DC21E043E068E081E021DC24
:101A400020E044E063E082E01CCC83E492E09F93DA
:101A50008F93B5DF0F900F90089588E20E94C00326
:101A600060E081E025D062E081E022D061E082E0A8
:101A70001FD063E083E01CD065E27DE08EE060D99A
:101A80006AEC7DE08DE05CD921E040E06AE087E02F
:101A9000F8DB20E040E06CE087E0F3DB21E043E0AE
:101AA00068E081E0EEDB20E044E063E082E0E9CB47
:101AB000E82FF0E0EE0FFF1FEC5FFC4F28E049E05D
:101AC0008081918164C986E592E09F938F9377DF4F
:101AD0000F900F90089588E20E94C00360E080E0BC
:101AE00061D062E081E05ED061E082E05BD063E0E3
:101AF00084E058D06AEC7DE087E022D963E67DE09F
:101B00008EE01ED920E040E06AE08AE0BADB20E007
:101B100040E06CE088E0B5DB21E043E068E081E094
:101B2000B0DB20E044E063E082E0ABDBE3C983E7C5
:101B300092E09F938F9343DF0F900F90089588E278
:101B40000E94C00360E081E02DD062E081E02AD0F5
:101B500061E083E027D063E084E024D06AEC7DE09C
:101B60008DE0EED867E97DE08EE0EAD820E040E045
:101B70006AE087E086DB20E040E06CE088E081DB23
:101B800021E043E068E081E07CDB20E044E063E0CA
:101B900082E077CB8AE892E09F938F9310DF0F90DB
:101BA0000F900895E82FF0E0EE0FFF1FE45FFC4F69
:101BB00028E049E080819181EAC881EE92E09F931C
:101BC0008F93FDDE0F900F90089528E04DE060E0C8
:101BD00084EA94E0DCD828E04DE062E08CE394E015
:101BE000D6D828E04DE061E084ED93E0D0D828E03D
:101BF0004DE063E08CE693E0CAD888E20E94C0031F
:101C000020E040E06AE08AE03CDB20E040E06CE07D
:101C10008BE037DB21E045E061E083E032DB20E070
:101C200045E06BE083E02DDB21E043E068E081E00C
:101C300028DB21E044E064E082E023DB5BD90E9402
:101C40003B056DED7DE08EE07BC881EF92E09F93D8
:101C50008F93B5DE0F900F90089588E20E94C00325
:101C600060E080E026D062E081E023D061E082E0A5
:101C700020D063E083E01DD065E27EE08EE060D896
:101C800064E67EE08DE05CD821E040E06AE087E039
:101C9000F8DA20E040E06CE08AE0F3DA21E043E0AB
:101CA00068E081E0EEDA20E044E063E082E0E9DA37
:101CB00021C9E82FF0E0EE0FFF1FEA5EFC4F28E09D
:101CC0004AE08081918163C88AE892E09F938F9374
:101CD00076DE0F900F9008950E94B00402C00E941B
:101CE000D7030E94DB048115E1F30E94A603C82FED
:101CF000803AA8F783E014D8FC018C2F0995EFCF28
:101D000097FB072E16F4009406D077FD08D046D036
:101D100007FC05D03EF4909581959F4F08957095EE
:101D200061957F4F0895A1E21A2EAA1BBB1BFD01EE
:101D30000DC0AA1FBB1FEE1FFF1FA217B307E407AA
:101D4000F50720F0A21BB30BE40BF50B661F771F02
:101D5000881F991F1A9469F76095709580959095E2
:101D60009B01AC01BD01CF010895EE0FFF1F0024C0
:101D7000001C0BBE0790F691E02D099460957095BC
:101D80008095909530954095509521953F4F4F4FB8
:101D90005F4F6F4F7F4F8F4F9F4F0895AA1BBB1B05
:101DA00051E107C0AA1FBB1FA617B70710F0A61B5B
:101DB000B70B881F991F5A95A9F780959095BC017C
:101DC000CD010895F894FFCF6E03500351035203E1
:101DD0005303540355036E03560357035803590323
:101DE0005B035A035C035E036003620364036603E0
:101DF00068036A036C036E03700372037403760353
:101E000078037A037C037E0380035404FC03FC0301
:101E1000FC0356045804FC035A045C045E0460048A
:101E200064046204980CBA0CBA0CBA0CBA0CBA0C62
:101E3000BA0CBA0CBA0CBA0CBA0C5A0BDA0BBA0CB4
:101E4000BA0CBA0CBA0CDA0BBA0CBA0CBA0CBA0C43
:101E5000BA0CBA0CBA0CBA0CBA0C920BBA0C7A0CBB
:061E6000BA0CBA0C980C4C
:101E6600F2040000F3040000FA040000020500007A
:101E76000A050000110500001905000021050000F3
:101E86002805000030050000E0040000E60400001C
:101E9600EC0400000001020103030303286E756CC5
:101EA6006C29005B4B65796D61703A20636C6173D8
:101EB6007369635D0A005B4B65796D61703A204119
:101EC60070706C6520322028752F6C2063617365F5
:101ED600295D005B4B65796D61703A204170706CCD
:101EE60065203220434150535D003130474554410F
:101EF600242830293A413D4153432841242830299A
:101F0600293A41242831293D2243544C2B222B4384
:101F16004852242841202B203634293A3F222722B2
:101F26003B412428413C3332293B2227203D2022B5
:101F36003B413A4946413C3E33474F544F31300DC1
:101F4600005B4B657962643A20536F6C2D32305DCD
:101F5600005B4B65796D61703A20616365313030A5
:101F6600305D0A00BC012C017401E40024034C021C
:0E1F7600DC0294020402FC055C05AC050C05BF
:00000001FF
