:1000000025C3000044C3000042C3000040C30000F9
:100010003EC300003CC300003AC3000038C30000E8
:1000200036C3000034C3000032C3000030C30000F8
:100030002EC300002CC300002AC3000028C3000008
:1000400026C3000024C3000022C3000020C3000018
:100050001EC30000B1C400001AC3000018C3000092
:1000600016C3000014C3000012C3000010C3000038
:100070000EC300000CC300000AC3000008C3000048
:1000800006C3000004C3000002C3000000C3000058
:10009000FEC20000FCC20000FAC20000F8C200006C
:1000A000F6C20000F4C20000F2C20000F0C200007C
:1000B000EEC20000ECC20000EAC20000E8C200008C
:1000C000E6C20000E4C20000E2C20000E0C200009C
:1000D000DEC20000DCC20000DAC20000D8C20000AC
:1000E000D6C20000A0A1A1A01B09A51CA010A0A021
:1000F000201A0111B12C0D0E02160318A00B0A08CC
:1001000007060413A009151914120517A0A6A40DBB
:100110000A0F0CA0A01D1BA0A0C0BFBE00BDBCBB91
:10012000BAB9B8B7A8A9AAAB00C1ADACA0A1A1A0AB
:100130001B09A55C7F503B2F205A4151A02C4D4EEE
:1001400042564358A04B4A4847464453A049555944
:1001500054524557A0A6A40D0A4F4C2E7E5D5B2D30
:100160003A3039384037363534333231A8A9AAAB62
:1001700000C1ADACA0A1A1A01B09A57C7F502B3F65
:10018000205A4151B23C4D4E42564358A04B4A482A
:1001900047464453A049555954524557A0A6A40D6B
:1001A0000A4F4C3E7E7D7B3D2A302928602726253C
:1001B00024232221A8A9AAAB00C1ADACA0A1A1A073
:1001C0001B09A55C7F703B2F207A6171A02C6D6E9E
:1001D00062766378A06B6A6867666473A0697579F4
:1001E00074726577A0A6A40D0A6F6C2E7E5D5B2DE0
:1001F0003A3039384037363534333231A8A9AAABD2
:1002000000C1ADACA4A1A1A0A01BA515A010A05C2D
:10021000201A0111A05B0D0E02160318A00B0A088C
:1002200007060413A009151914120517A0A0A00DA4
:10023000A60F0C5DA0A0B15FA0C07D7B7F605EBB00
:10024000BAB97E7CA8A9AAAB00C1ADACA4A1A1A0FB
:10025000A01BA515A0503B2F205A4151A02C4D4E5C
:1002600042564358A04B4A4847464453A049555923
:1002700054524557A0A0A00DA64F4C2EA0A0A02DD3
:100280003A3039380837363534333231A8A9AAAB79
:1002900000C1ADACA4A1A1A0A01BA515A0402B3FFF
:1002A000205A4151A03C4D5E42564358A04B4A480B
:1002B00047464453A049555954524557A0A0A00D54
:1002C000A64F4C3EA0A0B23D2AA0292808272625EB
:1002D00024232221A8A9AAAB00C1ADACA4A1A1A04E
:1002E000A01BA515A0502B3F205A4151A03C4D4EBC
:1002F00042564358A04B4A4847464453A049555993
:1003000054524557A0A0A00D404F4C3EA0A0B23D76
:100310002A4029280827262524232221A8A9AAAB78
:1003200000C1ADACA4A1A1A0A01BA5157F703B2F5F
:10033000207A6171A02C6D6E62766378A06B6A681A
:1003400067666473A069757974726577A0A0A00D63
:100350005E6F6C2EA0A0A02D3A30393808373635A4
:1003600034333231A8A9AAAB00C1ADACA5A20113A8
:10037000040607080A0B0C0B0A7FB1A5A4A11A18E2
:100380000316020E0D0C0E0FA180A0A01B0102038C
:10039000040506070809000D1E1B1C1DB2091117D4
:1003A0000512141915090F10000D0A8CA8A9AAAB83
:1003B00000C1ADACB3978120939A8E8B2D372A382C
:1003C0002F39A0A0343135323633A0A0302E2BA0E7
:1003D000A0A0A0A0A5A24153444647484A4B4C3B8D
:1003E0003A5FA6A5A4A15A584356424E4D3C3E3F03
:1003F000A180A0A01B212223242526272829203DD7
:100400007E5B5C5DB20951574552545955494F5076
:10041000600D0A8CA8A9AAAB00C1ADACB39781202E
:10042000939A8E8B2D372A382F39A0A0343135324C
:100430003633A0A0302E2BA0A0A0A0A0A5A241538F
:10044000444647484A4B4C3B3A7FA6A5A4A15A587C
:100450004356424E4D2C2E2FA180A0A01B3132338B
:10046000343536373839302D5E5B5C5DB209515713
:100470004552545955494F50400D0A8CA8A9AAAB72
:1004800000C1ADACB3978120939A8E8B2D372A385B
:100490002F39A0A0343135323633A0A0302E2BA016
:1004A000A0A0A0A0A5A26173646667686A6B6C3B9C
:1004B0003A7FA6A5A4A17A786376626E6D2C2E2F62
:1004C000A180A0A01B313233343536373839302D76
:1004D0005E5B5C5DB20971776572747975696F7086
:1004E000400D0A8CA8A9AAAB00C1ADACB39781207E
:1004F000939A8E8B2D372A382F39A0A0343135327C
:100500003633A0A0302E2BA0A0A0A0A01B0313A5C3
:1005100009A4A1203111011A32171318330504035D
:1005200034120616351407023619080E37150A0D4F
:1005300038090B2C390F0C2E153D3D2A30103B2F5E
:100540003734313E2D7B27A138353230A8A9AAABEC
:1005500000C1ADAC2F1D0D083936332E1B0313A57A
:1005600009A4A1203151415A3257535833454443CD
:1005700034524656355447423659484E37554A4DFF
:1005800038494B2C394F4C2E152D3D2A30503B2FDE
:100590003734313E2D7B27A138353230A8A9AAAB9C
:1005A00000C1ADAC2F5B0D083936332E1B0313A5EC
:1005B00009A4A1202151415A40575358234544438F
:1005C00024524656255447425E59484E26554A4DB8
:1005D0002A494B3C284F4C3E155F2B2A29503A3F65
:1005E0002624213E2D7D22A12A254029A8A9AAAB97
:1005F00000C1ADAC3F5D0D08285E233E1B0313A573
:1006000009A4A1203171617A32777378336564630C
:1006100034726676357467623679686E37756A6DDE
:1006200038696B2C396F6C2E152D3D2A30703B2F9D
:100630003734313E2D7B27A138353230A8A9AAABFB
:1006400000C1ADAC2F5B0D083936332E11241FBE0F
:10065000CFEFD1E2DEBFCDBF00E00CBF13E0A0E0E2
:10066000B2E0E8E7FEE100E00BBF02C007900D92A8
:10067000AE31B107D9F724E0AEE1B3E001C01D927D
:10068000A63BB207E1F70E94760E0C94EB0EB8CCB5
:10069000805A813208F03AC0E82FF0E08827E35111
:1006A000F14F8F4F0C94BF0E23C424C427C42BC416
:1006B00036C457C5CFC3D6C3DDC3E4C3E0C139C513
:1006C00087E0DEC588E0DCC589E0DAC581E0D8C511
:1006D00082E0D6C583E0D4C584E0D2C585E0D0C52C
:1006E00086E0CEC585E015C386E013C387E011C35D
:1006F00088E00FC389E00DC38AE00BC38BE009C318
:100700008CE007C38DE005C38EE003C30895682F16
:100710008091210389C2CF93C82F813A18F0B8DFA6
:10072000CF910895F4DF809122038C17C9F3C09311
:100730002203E2D4F5CFCF93C82F8A3041F06C2F3B
:100740008091200371D28C2F90E0CF9108958DE09D
:10075000F2DFF5CFCF93DF930F92CDB7DEB7809165
:1007600020039DD28983803A51F080911E0390919D
:100770001F039AD189810F90DF91CF9108958091C5
:1007800021038DD28983F6CF90E090931F0380934D
:100790001E030895CF93DF930F920F92CDB7DEB76C
:1007A00089836A83C5D3482F6A8189816FD30F906B
:1007B0000F90DF91CF9108957F928F929F92AF9289
:1007C000BF92CF92DF92EF92FF920F931F93CF933E
:1007D000DF9382E0ADD24C0184E09BD200E00F2E8B
:1007E000FAE07F2EF02DAA24A394B12C77C08C2F91
:1007F00090E0F701EC0FF11D208121502115D1F07F
:100800002083D6951695CF5FE8D2C81708F065C04B
:10081000D0FDEDCF10FFF5CF6C2F802FBBDF909177
:1008200022038913EECFC2D4811559F3809122039C
:1008300072DFE7CFF701E80FF91F708210FF13C0D6
:1008400095010C2E02C0220F331F0A94E2F7C90152
:10085000F601ED55FC4F9081892B80836C2F802F02
:1008600099DF59DFCECFF5010C2E02C0EE0FFF1F2E
:100870000A94E2F7CF018095F601ED55FC4F908187
:10088000892380836C2F802F85DF813A40F49091FB
:1008900022038913B6CFF0EAF0932203B2CF815A34
:1008A0008D3008F0AECFE82FF0E08827E25FF04F00
:1008B0008F4F0C94BF0E37D3A4CF37D3A2CF69D4B8
:1008C000A0CFC4D29ECFCAD29CCFD0D29ACFD6D2FC
:1008D00098CFD8D096CF19D494CF0F5F73D2081782
:1008E000C0F4802FF4011995182FC02ED12CF601D9
:1008F000ED55FC4FD081D827C0E0C601880F991F65
:10090000880F991F880F991F9C012D5D3C4F79011D
:100910007BCFDF91CF911F910F91FF90EF90DF90F0
:10092000CF90BF90AF909F908F907F9008951F932E
:10093000CF93DF9310E00DC06C2F812F2BDFA8DE4B
:10094000D695CF5F4AD2C81718F4D0FFF9CFF4CFAD
:100950001F5F38D2181738F4E12FF0E0ED55FC4F47
:10096000D081C0E0EFCFDF91CF911F91089580EA51
:100970008093220317D1B1D367D280E190E025D1D3
:100980008093210380E890E020D180932003A3EAA4
:10099000B3E0E3E2F3E023EB33E08AE01D928083EF
:1009A0008183828383838483858386838783389648
:1009B000A217B30799F708958F9381E08093B4034A
:1009C0008F9118958091B4031092B4030895811506
:1009D00011F05D9808955D9A0895811511F05E9863
:1009E00008955E9A0895811511F05F9808955F9AB1
:1009F00008950895811519F02D9A259A08952D9836
:100A0000FCCF811519F025982D9A08952D98259AD7
:100A10000895811519F02D9A259A089525982D98F5
:100A20000895811519F02E9A269A08952E98FCCFD4
:100A3000811519F026982E9A08952E98269A0895D1
:100A4000811519F02E9A269A089526982E980895C1
:100A5000811519F02F9A279A08952F98FCCF8115A8
:100A600019F027982F9A08952F98279A089581159D
:100A700019F02F9A279A089527982F9808952C985F
:100A8000249A08952C9A249A089585E38A95F1F77B
:100A9000000008952FEF80E792E0215080409040C1
:100AA000E1F700C000000895009769F020E030E011
:100AB000EFE9FFE03197F1F700C000002F5F3F4FF3
:100AC00082179307A9F70895CF93F8941092B4036F
:100AD00087E0809361001092B40389EF87BD15BC55
:100AE00082E084BD80936E0083E085BD8091B30376
:100AF00080930201CFEFC09301011092B303BFDFD7
:100B0000559A569A579AC1B9C093040117B8C8B9F3
:100B10007894CF910895282F81E090E0A0E0B0E094
:100B200004C0880F991FAA1FBB1F2A95D2F7809572
:100B30009095A095B0958093050125E12A95F1F750
:100B40000000892F9A2FAB2FBB2782B985E18A95A8
:100B5000F1F7000086B1809508959091B30389273D
:100B6000809302011C9A85E38A95F1F700001C9A94
:100B70000895833071F030F0843061F0853039F4BD
:100B80000C94370E813021F0823009F4AEC73CC797
:100B90006EC7DFC70C94EF0D982F81E0963008F0F8
:100BA00080E008951092B7031092B6031092B50337
:100BB0000895811544F091E02091B50382170CF05F
:100BC00090E0892F089580E008954091B503443066
:100BD0003CF56091B6037091B70320E930E0261B25
:100BE000370B28173907F4F021E0240F2093B503C1
:100BF00027E04202F0011124E854FC4F93838283E2
:100C00009B012C523C4F3183208314821582168223
:100C1000860F971F9093B7038093B603842F089590
:100C20004FEFFCCF4FEFFACFCF93DF930F920F929E
:100C3000CDB7DEB789836A83BCDF811559F129817D
:100C4000822F022E000C990B37E02302F0011124B1
:100C5000E854FC4F26816281738126171706D4F46D
:100C6000FC01EE0FFF1FEE0FFF1FEE0FFF1FE81B33
:100C7000F90BE854FC4F3481832F90E0A081B181BF
:100C8000A30FB11D3A813C9301960E948A0E848382
:100C90002F5F26830F900F90DF91CF910895CF9310
:100CA000DF930F92CDB7DEB7898383DF30EA8115FA
:100CB00051F12981822F022E000C990B37E023027B
:100CC000F0011124E854FC4F268130EA2115D9F0B7
:100CD000FC01EE0FFF1FEE0FFF1FEE0FFF1FE81BC3
:100CE000F90BE854FC4F3581832F90E0A081B1814E
:100CF000A30FB11D3C910196628173810E948A0EFF
:100D0000858321502683832F0F90DF91CF91089503
:100D100008959FEF980F9F3050F4E82FF0E0EE0F0A
:100D2000FF1FEC59FB4F0190F081E02D19950895BC
:100D30009FEF980F9F3048F4E82FF0E0EE0FFF1F71
:100D4000EC59FB4F80819181089588E896E00895E1
:100D50009FEF980F9F3040F4E82FF0E0EE0FFF1F59
:100D6000EC59FB4F718360830895E4E6F4E024E8D6
:100D700034E088E896E081939193E217F307D9F77E
:100D8000E4E6F4E08BE895E0958384838DEA95E0D2
:100D9000978386838CED93E09383828308956430F8
:100DA00080F4413170F4293060F4E62FF0E0EE0F6A
:100DB000FF1FEE0FFF1FEB57FB4F91838083428392
:100DC00023830895B5D0E82FF0E0EE0FFF1FEE0F5C
:100DD000FF1FEB57FB4F82810895AAD0E82FF0E068
:100DE000EE0FFF1FEE0FFF1FEB57FB4F83810895A0
:100DF000CF93DF930F920F92CDB7DEB78983CCDE0E
:100E0000811105C00F900F90DF91CF9108958981D6
:100E10008093840459DE1A8220E040E06A8180E0F9
:100E200090E0BDDF8A818F5F8A838430A9F75DD22D
:100E30009CDF89819EDE7BDD64D2E4CF90918404C7
:100E4000981301C00895D4CF80E0D2CF809184045C
:100E50008E7FF4CF809184048160F0CF80918404F0
:100E60008D7FECCF809184048260E8CF80918404F0
:100E70008B7FE4CF809184048460E0CF80918404F0
:100E8000877FDCCF809184048860D8CF50E0FA015E
:100E9000EE0FFF1FEE0FFF1FEB57FB4FE381E11536
:100EA000E1F0DA01AA0FBB1FAA0FBB1FAB57BB4F64
:100EB00012969C91911599F0440F551F440F551FA0
:100EC000DA01AB57BB4F70E08E9F600D711D11248E
:100ED000ED91FD91E60FF71FE4918E2F0895E92F14
:100EE000FCCF8093970461E081FF62E08BE08AC1D0
:100EF00081E0F7CF809197048260F3CF80919704CF
:100F000092E08927EECF9091960481E08927809323
:100F1000960461E0913009F462E08AE073C181E0F7
:100F200080939504089580E0DCCF10929504089595
:100F3000E1E080919704811101C0E0E08091960486
:100F40008111E260809195048111E460F0E0EC5C35
:100F5000FD4F80810895CF93DF9300D0CDB7DEB7EA
:100F60006983282F30E0220F331F220F331F2050B8
:100F70003E4F3B832A83D901ED91FD91862F199530
:100F80002981EA81FB8122830F900F900F90DF91DE
:100F9000CF910895CF93DF93C82FD0E0CC0FDD1F02
:100FA000CC0FDD1FC050DE4FE881F98181E019953B
:100FB00081E08A83DF91CF910895CF93DF93C82F8B
:100FC000D0E0CC0FDD1FCC0FDD1FC050DE4FE8811D
:100FD000F98180E019951A82DF91CF910895A82FA9
:100FE000B0E0AA0FBB1FAA0FBB1FA050BE4FED91D0
:100FF000FD918C9119950895E82FF0E0EE0FFF1FF9
:10100000EE0FFF1FE050FE4F61E09281911160E012
:10101000A2CF382F9091030280E0911581F039170B
:1010200081F0E92FF0E0EE0FFF1FEE0FFF1FE05001
:10103000FE4F2381892F211529F0922FF0CF8DE0CB
:10104000089508958DE00895E82FF0E0EE0FFF1F5A
:10105000EE0FFF1FE050FE4F83810895CF93DF9383
:1010600000D0CDB7DEB789836A834B83D2DF998105
:1010700091509C30E0F48D3009F19981E92FF0E036
:10108000EE0FFF1FEE0FFF1FE050FE4F9381A82FC2
:10109000B0E0AA0FBB1FAA0FBB1FA050BE4F1396F4
:1010A0009C938A8183839B81928381E001C080E04D
:1010B0000F900F900F90DF91CF91089580E0F8CFBF
:1010C000E2E0F2E080E091E090838F5F81833496EC
:1010D0008D30D1F71092330208958DE092E0909315
:1010E0009B0480939A0490939D0480939C04909316
:1010F000990480939804089580919C0490919D0494
:101100009093990480939804089510929B041092F0
:101110009A0480919C0490919D048234910541F041
:1011200010929D0410929C041092990410929804BD
:1011300008958DE092E090939B0480939A048091AF
:101140009C0490919D048234910551F08DE092E0D1
:1011500090939D0480939C049093990480939804A9
:10116000089580919804909199048334910530F406
:1011700080919C0490919D04892B51F482E490E02D
:1011800090939D0480939C04909399048093980479
:10119000089580919A0490919B0490939D0480936C
:1011A0009C049093990480939804089580919804E6
:1011B00090919904009789F00197009731F09093EE
:1011C00099048093980480E0089582E490E09093DD
:1011D00099048093980481E0089580E008950F9326
:1011E0001F93CF938C01C62F611541F08C2FF8010E
:1011F00019958C2F29DFC82F8111F8CFCF911F911E
:101200000F910895CF93DF930F92CDB7DEB7E82FFC
:10121000F0E0EE0FFF1FE256FB4F808189836330C1
:1012200001F148F0643081F06530B9F469818CEFE8
:1012300097E0D5DF12C06130F1F0623071F469815E
:101240008DED97E0CCDF09C069818CEF97E0C7DFB7
:1012500021DC69818CEF97E0C2DF0F90DF91CF91A5
:10126000089569818CEF97E0BADF0FDC69818CEF1C
:1012700097E0B5DFF2CF69818AEC97E0B0DFEDCF80
:10128000E82FF0E0EE0FFF1FE256FB4F6181BACF6F
:10129000CF93DF9300D00F92CDB7DEB769834A8337
:1012A0009FEF980F9B3038F00F900F900F900F909A
:1012B000DF91CF910895482F50E05C834B83FA0172
:1012C000EE0FFF1FE256FB4F422F60818981C6DE81
:1012D000811551F3EB81FC81EE0FFF1FE256FB4FAE
:1012E000598150838A818183DFCFEADEEEE9F4E021
:1012F00086EB94E0118210823296E817F907D1F755
:101300000895CF93C0E08C2F6ADECF5FCD30D9F740
:10131000CF910895AF92BF92CF92DF92EF92FF925A
:101320000F931F93CF93DF937C016B01E80121158D
:10133000310599F094F0890101501109A42EB12CC6
:10134000B601C501F7011995688179816F5F7F4FFB
:10135000798368830150110998F7DF91CF911F912C
:101360000F91FF90EF90DF90CF90BF90AF900895D6
:101370002F923F924F925F926F927F928F929F92A5
:10138000AF92BF92CF92DF92EF92FF920F931F9393
:10139000CF93DF9300D00F92CDB7DEB79A838983C6
:1013A0001B0149015A0127013801672B09F46BC061
:1013B00081E4C11001C081E629813A81690101E01F
:1013C00010E00F2EF6EFFF2EF02DF80E3C832B834E
:1013D00018C06F0DF601608384149504A604B70449
:1013E000F0F0C501B401A3019201A7D449015A014B
:1013F000C8010196FFEFCF1ADF0A0215130578F432
:101400008C01C501B401A301920197D46A30710522
:1014100081059105F0F6605DD6016C93DDCF9801F2
:101420003695279521153105A9F0E981FA81E00F5C
:10143000F11F89819A81280F391FAB81BC818D9161
:10144000BC83AB8392919E9380838B819C81821716
:10145000930799F7802F912F0F900F900F900F9077
:10146000DF91CF911F910F91FF90EF90DF90CF9080
:10147000BF90AF909F908F907F906F905F904F90B4
:101480003F902F90089580E090E0E6CF2F923F921A
:101490004F925F926F927F928F929F92AF92BF9284
:1014A000CF92DF92EF92FF920F931F93CF93DF9330
:1014B000CDB7DEB761970FB6F894DEBF0FBECDBFD4
:1014C0003C012B011801E98A86017501C82C8FA007
:1014D00098A460E170E0CE0101964ADF7C0100979C
:1014E000B1F1ACF189898115C1F1E214F3040CF476
:1014F00040C08E010F5F1F4FE00EF11EF801819179
:101500008F01B20190E0F3011995F401808191817E
:101510000196918380830E151F0581F761960FB6A2
:10152000F894DEBF0FBECDBFDF91CF911F910F9119
:10153000FF90EF90DF90CF90BF90AF909F908F90F3
:101540007F906F905F904F903F902F90089580E331
:101550008983EE24E394F12CC5CFE214F3044CF616
:1015600091012E193F09840140E2B201C301D2DE8C
:10157000C0CF91012E193F09840140E3B201C3019C
:10158000C9DEB7CF60E070E0D6C82F923F924F928D
:101590005F926F927F928F929F92AF92BF92CF9203
:1015A000DF92EF92FF920F931F93CF93DF93CDB70C
:1015B000DEB76B970FB6F894DEBF0FBECDBF9C8B26
:1015C0008B8B1B012A0169011A821982452B41F577
:1015D00089819A816B960FB6F894DEBF0FBECDBF9E
:1015E000DF91CF911F910F91FF90EF90DF90CF90FF
:1015F000BF90AF909F908F907F906F905F904F9033
:101600003F902F9008952FEF421A520AB10190E0B7
:10161000EB89FC89199589819A8101969A8389833E
:10162000D2018C918115A1F2853269F7D201119610
:101630008C91853291F1803309F43EC0D20111962C
:101640001F8A1C9180ED810F8A30D8F5FD013196FB
:10165000612C712CC301880F991F880F991F680E88
:10166000791E660C771CA12FA053BB0B6A0E7B1E44
:10167000DF01119180ED810F8A3060F32D01EFEFD2
:101680004E1A5E0AE8EAE10FE13208F07DC1F0E0AF
:101690008827E55EF04F8F4F72C3B10185E290E07D
:1016A000EB89FC89199589819A8101969A838983AE
:1016B000F2E04F0E511CB4CFD201129621E02F8BD5
:1016C000C0CF612C712CDACFD601ED90FD906D0169
:1016D000B2E06B1671040CF469C1EF89E115B1F049
:1016E000B101C701EB89FC89199589819A8101961D
:1016F0009A8389839301215031098E010F5F1F4F17
:1017000040E3B1018B899C8905DE8ACF930121508A
:1017100031098E010F5F1F4F40E2B1018B899C8917
:10172000F9DDB101C701EB89FC89199589819A819D
:1017300001969A83898374CFD601AD90BD906D01D7
:10174000A114B104D1F1F5018081811509F439C1E9
:10175000F5013196E12CF12C2FEFE21AF20A81917A
:101760008111FACF6114710479F074F0E614F70472
:1017700078F493012E193F098E010F5F1F4F40E24D
:10178000B1018B899C89C6DDE114F10409F448CFCD
:101790008501EA0CFB1CAB88BC88D8018D918D01BA
:1017A000B10190E0F501199589819A8101969A839A
:1017B0008983E016F10689F733CF0F2EFCE3AF2EB5
:1017C000F2E0BF2EF02DC4CFD6018D909D90AD904C
:1017D000BD90BE8BAD8BB7FA88279927DC0180F9C5
:1017E000888F998FAA8FBB8FBB2044F1C12C1AE040
:1017F000E12EF12C00E010E0A501940160E170E021
:10180000CE010396B5DD7C018C01B88D0B0F111D47
:10181000EF89E11141C0061517050CF45DC0BB202E
:101820000CF03DC0B1018DE290E0EB89FC89199587
:1018300089819A8101969A83898331C0FB2CFF0CA0
:10184000CC08DC2C7601282D392D4A2D5B2D6C2DF2
:101850007C2D8C2D9C2D9BD2C12C1AE0E12EF12CDD
:1018600000E010E060E170E0CE01039681DD7C01D4
:101870008C01988D090F111DAF89A11561F2BB2054
:101880005CF4B1018DE290E0EB89FC8919958981C6
:101890009A8101969A838983061517054CF1E11404
:1018A000F104B9F0B4F08E010D5F1F4FE00EF11E90
:1018B000CB88DC88D8018D918D01B10190E0F601D3
:1018C000199589819A8101969A838983E016F10698
:1018D00089F7CD88DE88A4CE9301201B310B8E01C1
:1018E0000F5F1F4F40E2B1018B899C8913DD97CFB9
:1018F0009301201B310B8E010F5F1F4F40E3B1019D
:101900008B899C8907DDCBCFD6012D913D914D91DF
:101910005D91BE8BAD8BCE0101969F938F93812CF1
:101920000F2EFAE0AF2EB12CC12CD12CF02DEF8868
:101930008301B1018B899C89A9DD0F900F90CD881F
:10194000DE886ECEF6013496FE8BED8B8824839470
:10195000183509F0812CD6012D913D914D915D9165
:10196000CE0101969F938F93A12CB12C65016894B1
:10197000A4F8EF888301B1018B899C8987DD0F90E2
:101980000F90CD88DE884CCEB10185E290E0EB89E6
:10199000FC891995B101812F90E0EB89FC8919959B
:1019A00089819A8102969A8389833ACEB101C701CF
:1019B000EB89FC89199589819A8101969A8389839B
:1019C0002FCEE12CF12C6114710411F00CF0D1CE6A
:1019D00027CECF93DF93CDB7DEB79E012A5F3F4F6F
:1019E000F901419151919F0160E070E082EC9AE031
:1019F000CCDDDF91CF91089583E492E09F938F93A4
:101A0000E8DF0F900F90089588E20E94C40360E021
:101A100080E058D062E081E055D061E082E052D0B1
:101A200063E083E04FD06CEF7CE08EE091D964ED11
:101A30007DE08DE08DD921E040E06AE087E028DCA0
:101A400020E040E06CE08AE023DC21E043E068E055
:101A500081E01EDC20E044E063E082E019CC83E416
:101A600092E09F938F93B5DF0F900F90089588E2D7
:101A70000E94C40360E081E025D062E081E022D0D2
:101A800061E082E01FD063E083E01CD06FE27DE084
:101A90008EE05ED964ED7DE08DE05AD921E040E032
:101AA0006AE087E0F5DB20E040E06CE087E0F0DB17
:101AB00021E043E068E081E0EBDB20E044E063E02C
:101AC00082E0E6CBE82FF0E0EE0FFF1FEC5FFC4F6B
:101AD00028E049E08081918162C986E592E09F9388
:101AE0008F9377DF0F900F90089588E20E94C403D0
:101AF00060E080E061D062E081E05ED061E082E0A1
:101B00005BD063E084E058D064ED7DE087E020D9CD
:101B10006DE67DE08EE01CD920E040E06AE08AE0DE
:101B2000B7DB20E040E06CE088E0B2DB21E043E09E
:101B300068E081E0ADDB20E044E063E082E0A8DB28
:101B4000E2C983E792E09F938F9343DF0F900F905A
:101B5000089588E20E94C40360E081E02DD062E035
:101B600081E02AD061E083E027D063E084E024D0E4
:101B700064ED7DE08DE0ECD861EA7DE08EE0E8D8B0
:101B800020E040E06AE087E083DB20E040E06CE0BA
:101B900088E07EDB21E043E068E081E079DB20E063
:101BA00044E063E082E074CB8AE892E09F938F93F5
:101BB00010DF0F900F900895E82FF0E0EE0FFF1F59
:101BC000E45FFC4F28E049E080819181E8C881EE24
:101BD00092E09F938F93FDDE0F900F90089528E081
:101BE0004DE060E084EA94E0DAD828E04DE062E07D
:101BF0008CE394E0D4D828E04DE061E084ED93E0FC
:101C0000CED828E04DE063E08CE693E0C8D888E2C7
:101C10000E94C40320E040E06AE08AE039DB20E073
:101C200040E06CE08BE034DB21E045E061E083E004
:101C30002FDB20E045E06BE083E02ADB21E043E09E
:101C400068E081E025DB21E044E064E082E020DB25
:101C50005AD90E94420567EE7DE08EE079C881EF97
:101C600092E09F938F93B5DE0F900F90089588E2D6
:101C70000E94C40360E080E026D062E081E023D0CF
:101C800061E082E020D063E083E01DD06FE27EE07F
:101C90008EE05ED86EE67EE08DE05AD821E040E02E
:101CA0006AE087E0F5DA20E040E06CE08AE0F0DA14
:101CB00021E043E068E081E0EBDA20E044E063E02B
:101CC00082E0E6DA20C9E82FF0E0EE0FFF1FEA5EBF
:101CD000FC4F28E04AE08081918161C88AE892E067
:101CE0009F938F9376DE0F900F9008950E94B70414
:101CF00002C00E94DC030E94E2048115E1F30E940D
:101D0000AA03C82F803AA8F783E012D8FC018C2FD1
:101D10001995EFCF97FB072E16F4009406D077FDA8
:101D200008D045D007FC05D03EF4909581959F4F93
:101D30000895709561957F4F0895A1E21A2EAA1B10
:101D4000BB1BFD010DC0AA1FBB1FEE1FFF1FA2176B
:101D5000B307E407F50720F0A21BB30BE40BF50B68
:101D6000661F771F881F991F1A9469F760957095F1
:101D7000809590959B01AC01BD01CF010895EE0FB8
:101D8000FF1F881F8BBF0790F691E02D1994609577
:101D900070958095909530954095509521953F4F41
:101DA0004F4F5F4F6F4F7F4F8F4F9F4F0895AA1B2D
:101DB000BB1B51E107C0AA1FBB1FA617B70710F036
:101DC000A61BB70B881F991F5A95A9F78095909568
:101DD000BC01CD010895F894FFCF7203540355035D
:101DE000560357035803590372035A035B035C03FA
:101DF0005D035F035E0360036203640366036803BD
:101E00006A036C036E037003720374037603780332
:101E10007A037C037E038003820384035B04010452
:101E2000010401045D045F040104610463046504AA
:101E300067046B046904A20CC40CC40CC40CC40C6D
:101E4000C40CC40CC40CC40CC40CC40C640BE40B54
:101E5000C40CC40CC40CC40CE40BC40CC40CC40CE3
:101E6000C40CC40CC40CC40CC40CC40C9C0BC40C1B
:081E7000840CC40CC40CA20C8C
:101E7800F9040000FA04000001050000090500004B
:101E880011050000180500002005000028050000C5
:101E98002F05000037050000E7040000ED040000EE
:101EA800F30400000001020103030303286E756CAC
:101EB8006C29005B4B65796D61703A20636C6173C6
:101EC8007369635D0A005B4B65796D61703A204107
:101ED80070706C6520322028752F6C2063617365E3
:101EE800295D005B4B65796D61703A204170706CBB
:101EF80065203220434150535D00313047455441FD
:101F0800242830293A413D41534328412428302987
:101F1800293A41242831293D2243544C2B222B4372
:101F28004852242841202B203634293A3F222722A0
:101F38003B412428413C3332293B2227203D2022A3
:101F48003B413A4946413C3E33474F544F31300DAF
:101F5800005B4B657962643A20536F6C2D32305DBB
:101F6800005B4B65796D61703A2061636531303093
:101F7800305D0A00BC012C017401E40024034C020A
:0E1F8800DC0294020402FC055C05AC050C05AD
:00000001FF
