:1000000085C20000A1C200009FC200009DC2000086
:100010009BC2000099C2000097C2000095C2000078
:1000200093C2000091C200008FC200008DC2000088
:100030008BC2000089C2000087C2000085C2000098
:1000400083C2000081C200007FC200007DC20000A8
:100050007BC20000DBC3000077C2000075C2000055
:1000600073C2000071C200006FC200006DC20000C8
:100070006BC2000069C2000067C2000065C20000D8
:1000800063C2000061C200005FC200005DC20000E8
:100090005BC2000059C2000057C2000055C20000F8
:1000A00053C2000051C200004FC200004DC2000008
:1000B0004BC2000049C2000047C2000045C2000018
:1000C00043C2000041C200003FC200003DC2000028
:1000D0003BC2000039C2000037C2000035C2000038
:1000E00033C20000A0A1A1A01B09A51CA010A0A0C4
:1000F000201A0111B12C0D0E02160318A00B0A08CC
:1001000007060413A009151914120517A0A6A40DBB
:100110000A0F0CA0A01D1BA0A0C0BFBE00BDBCBB91
:10012000BAB9B8B7A8A9AAAB0000ADACA0A1A1A06C
:100130001B09A55C7F503B2F205A4151A02C4D4EEE
:1001400042564358A04B4A4847464453A049555944
:1001500054524557A0A6A40D0A4F4C2E7E5D5B2D30
:100160003A3039384037363534333231A8A9AAAB62
:100170000000ADACA0A1A1A01B09A57C7F502B3F26
:10018000205A4151B23C4D4E42564358A04B4A482A
:1001900047464453A049555954524557A0A6A40D6B
:1001A0000A4F4C3E7E7D7B3D2A302928602726253C
:1001B00024232221A8A9AAAB0000ADACA0A1A1A034
:1001C0001B09A55C7F703B2F207A6171A02C6D6E9E
:1001D00062766378A06B6A6867666473A0697579F4
:1001E00074726577A0A6A40D0A6F6C2E7E5D5B2DE0
:1001F0003A3039384037363534333231A8A9AAABD2
:100200000000ADACA4A1A1A0A01BA515A010A0A0AA
:10021000201A0111A02C0D0E02160318A00B0A08BB
:1002200007060413A009151914120517A0A0A00DA4
:10023000A60F0CA0A0A0B1A0A0C0BFBE08BDBCBBB3
:10024000BAB9B8B7A8A9AAAB0000ADACA4A1A1A047
:10025000A01BA515A0503B2F205A4151A02C4D4E5C
:1002600042564358A04B4A4847464453A049555923
:1002700054524557A0A0A00DA64F4C2EA0A0A02DD3
:100280003A3039380837363534333231A8A9AAAB79
:100290000000ADACA4A1A1A0A01BA515A0402B3FC0
:1002A000205A4151A03C4D5E42564358A04B4A480B
:1002B00047464453A049555954524557A0A0A00D54
:1002C000A64F4C3EA0A0B23D2A302928082726255B
:1002D00024232221A8A9AAAB0000ADACA4A1A1A00F
:1002E000A01BA515A0502B3F205A4151A03C4D4EBC
:1002F00042564358A04B4A4847464453A049555993
:1003000054524557A0A0A00D404F4C3EA0A0B23D76
:100310002A3029280827262524232221A8A9AAAB88
:100320000000ADACA4A1A1A0A01BA5157F703B2F20
:10033000207A6171A02C6D6E62766378A06B6A681A
:1003400067666473A069757974726577A0A0A00D63
:100350005E6F6C2EA0A0A02D3A30393808373635A4
:1003600034333231A8A9AAAB0000ADACA5A2011369
:10037000040607080A0B0C0B0A7FB1A5A4A11A18E2
:100380000316020E0D0C0E0FA180A0A01B0102038C
:10039000040506070809000D1E1B1C1DB2091117D4
:1003A0000512141915090F10000D0A8CA8A9AAAB83
:1003B0000000ADACB3978120939A8E8B2D372A38ED
:1003C0002F39A0A0343135323633A0A0302E2BA0E7
:1003D000A0A0A0A0A5A24153444647484A4B4C3B8D
:1003E0003A5FA6A5A4A15A584356424E4D3C3E3F03
:1003F000A180A0A01B212223242526272829203DD7
:100400007E5B5C5DB20951574552545955494F5076
:10041000600D0A8CA8A9AAAB0000ADACB3978120EF
:10042000939A8E8B2D372A382F39A0A0343135324C
:100430003633A0A0302E2BA0A0A0A0A0A5A241538F
:10044000444647484A4B4C3B3A7FA6A5A4A15A587C
:100450004356424E4D2C2E2FA180A0A01B3132338B
:10046000343536373839302D5E5B5C5DB209515713
:100470004552545955494F50400D0A8CA8A9AAAB72
:100480000000ADACB3978120939A8E8B2D372A381C
:100490002F39A0A0343135323633A0A0302E2BA016
:1004A000A0A0A0A0A5A26173646667686A6B6C3B9C
:1004B0003A7FA6A5A4A17A786376626E6D2C2E2F62
:1004C000A180A0A01B313233343536373839302D76
:1004D0005E5B5C5DB20971776572747975696F7086
:1004E000400D0A8CA8A9AAAB0000ADACB39781203F
:1004F000939A8E8B2D372A382F39A0A0343135327C
:100500003633A0A0302E2BA0A0A0A0A011241FBE87
:10051000CFEFD1E2DEBFCDBF13E0A0E0B2E0EEEC62
:10052000F9E100E00BBF02C007900D92A033B107C4
:10053000D9F724E0A0E3B3E001C01D92A43CB207C8
:10054000E1F71AD70C94B70C5BCD805A813208F0D2
:1005500037C0E82FF0E0E754F34F31C7CEC3CFC325
:10056000D2C3D6C3E1C3E9C47EC385C38CC393C3DE
:10057000B0C1CBC487E06CC588E06AC589E068C5B6
:1005800081E066C582E064C583E062C584E060C541
:1005900085E05EC586E05CC584E0D2C285E0D0C25D
:1005A00086E0CEC287E0CCC288E0CAC289E0C8C279
:1005B0008AE0C6C28BE0C4C28CE0C2C28DE0C0C279
:1005C0000895815A8D3070F4E82FF0E0E652F34F31
:1005D000F6C6AEC3AFC3C9C442C349C350C357C3B1
:1005E0007BC17FC40895682F8091330345C2CF93A8
:1005F000C82F813A18F0A9DFCF910895F4DF8091D8
:1006000034038C17C9F3C093340362D4F5CFCF936E
:10061000C82F8A3041F06C2F809132032DD28C2F5D
:1006200090E0CF9108958DE0F2DFF5CFCF938091E8
:10063000320355D2C82F803A41F080913003909117
:1006400031035CD18C2FCF9108958091330347D231
:10065000C82FF8CF90E09093310380933003089532
:10066000CF93DF93C82FD62F68D3482F6D2F8C2FB1
:1006700016D3DF91CF9108956F927F928F929F92C0
:10068000AF92BF92CF92DF92EF92FF920F931F93A0
:10069000CF93DF9381E063D2A82EB92E83E050D2AE
:1006A00000E00F2EFAE07F2EF02D88248394912C09
:1006B0000F2EF0EA6F2EF02D5AC08C2F90E0F7012C
:1006C000E80FF91F20813FEF320F2130D1F0308346
:1006D000D6951695CF5F94D2C81708F047C0D0FDC5
:1006E000ECCF10FFF5CF6C2F802FBADF9091340341
:1006F0008913EECF47D4882359F38091340377DFF1
:10070000E7CFF701E80FF91F708210FF12C0F60162
:10071000EB54FC4F94010C2E02C0220F331F0A949D
:10072000E2F78081822B80836C2F802F99DF5FDF3F
:10073000CFCFF601EB54FC4F94010C2E02C0220FD8
:10074000331F0A94E2F7C901809590818923808341
:100750006C2F802F85DF813A38F490913403891310
:10076000B7CF60923403B4CF2CDFB2CF0F5F3DD24E
:100770000817C0F4802FF5010995182FC02ED12C31
:10078000F601EB54FC4FD081D827C0E0C601880F9A
:10079000991F880F991F880F991F9C012B5C3C4F54
:1007A000790199CFDF91CF911F910F91FF90EF9039
:1007B000DF90CF90BF90AF909F908F907F906F9081
:1007C000089580EA8093340314D173D346D280E134
:1007D00090E022D18093330380E890E01DD1809394
:1007E0003203A5EBB3E0E5E3F3E025EC33E08AE088
:1007F0001D92808381838283838384838583868320
:10080000878338962A173B0799F708958F9381E0DD
:100810008093C6038F9118958091C6031092C603EA
:100820000895882311F05D9808955D9A08958823AE
:1008300011F05E9808955E9A0895882311F05F98EC
:1008400008955F9A08950895882319F02D9A259A9E
:1008500008952D98FCCF882319F025982D9A089596
:100860002D98259A0895882319F02D9A259A089590
:1008700025982D980895882319F02E9A269A089580
:100880002E98FCCF882319F026982E9A08952E983A
:10089000269A0895882319F02E9A269A0895269864
:1008A0002E980895882319F02F9A279A08952F9843
:1008B000FCCF882319F027982F9A08952F98279A0C
:1008C0000895882319F02F9A279A089527982F982A
:1008D00008952C98249A08952C9A249A089585E3D3
:1008E0008A95F1F7000008952FEF80E792E02150FC
:1008F00080409040E1F700C000000895282F392F74
:100900002115310561F080E090E0EFE9FFE03197DB
:10091000F1F700C00000019628173907B1F70895D4
:10092000CF93F8941092C60387E0809361001092F1
:10093000C60389EF87BD15BC82E084BD80936E003D
:1009400083E085BD8091C50380930201CFEFC09302
:1009500001011092C503BDDF559A569A579AC1B945
:10096000C093040117B8C8B97894CF910895282F7F
:1009700081E090E0A0E0B0E004C0880F991FAA1FBA
:10098000BB1F2A95D2F780959095A095B09580933E
:10099000050125E12A95F1F70000892F9A2FAB2F49
:1009A000BB2782B985E18A95F1F7000086B1809571
:1009B00008959091C5038927809302011C9A85E3CD
:1009C0008A95F1F700001C9A0895833059F028F4B5
:1009D000813039F0823021F4FAC3843009F48EC4B6
:1009E00087C3B8C327C4982F81E0953008F080E012
:1009F00008951092C9031092C8031092C703089576
:100A0000882344F091E02091C70382170CF090E016
:100A1000892F089580E00895282F392F8091C703EA
:100A2000843034F56091C8037091C90340E950E007
:100A3000461B570B42175307ECF091E0980F909329
:100A4000C70397E08902F0011124E653FC4F33837A
:100A50002283AB014A515C4F51834083148215823B
:100A60001682260F371F3093C9032093C8030895B9
:100A70008FEF08958FEF0895CF93DF93C82FD62F70
:100A8000BFDF882349F18C2F0C2E000C990B27E037
:100A9000C202F0011124E653FC4F2681628173816A
:100AA000422F50E046175707BCF4FC01EE0FFF1F22
:100AB000EE0FFF1FEE0FFF1FE81BF90BE653FC4F75
:100AC000848190E0A081B181A80FB91FDC930196C9
:100AD00063D484832F5F2683DF91CF910895CF93D2
:100AE000C82F8EDF30EA882339F18C2F0C2E000CB2
:100AF000990B27E0C202F0011124E653FC4F268136
:100B000030EA2223C9F0FC01EE0FFF1FEE0FFF1F9A
:100B1000EE0FFF1FE81BF90BE653FC4F858190E0B9
:100B2000A081B181A80FB91F3C91019662817381A8
:100B300033D4858321502683832FCF910895089540
:100B40009FEF980F9D3050F4E82FF0E0EE0FFF1F5D
:100B5000EA58FB4F0190F081E02D099508959FEF31
:100B6000980F9D3048F4E82FF0E0EE0FFF1FEA5891
:100B7000FB4F8081918108958FE995E008959FEF63
:100B8000980F9D3040F4E82FF0E0EE0FFF1FEA5879
:100B9000FB4F608371830895E6E7F4E022E934E0D7
:100BA0008FE995E081939193E217F307D9F7E6E790
:100BB000F4E087EB94E09383828389ED94E095835E
:100BC00084830895643080F4413170F4293060F4F6
:100BD000E62FF0E0EE0FFF1FEE0FFF1FED56FB4F6D
:100BE00080839183428323830895A7D0E82FF0E088
:100BF000EE0FFF1FEE0FFF1FED56FB4F8281089592
:100C00009CD0E82FF0E0EE0FFF1FEE0FFF1FED5618
:100C1000FB4F83810895CF93DF93D82FE4DE8111BA
:100C200003C0DF91CF910895D093920479DEC0E0A4
:100C300020E040E06C2F80E090E0C4DFCF5FC43064
:100C4000B9F731D2A9DF8D2FC0DEEBCF909192049E
:100C5000981301C00895DFDFFDCF80E0DCCF8091E5
:100C600092048E7FF3CF809192048160EFCF8091C8
:100C700092048D7FEBCF809192048260E7CF8091C8
:100C800092048B7FE3CF809192048460DFCF8091C8
:100C90009204877FDBCF809192048860D7CF982F12
:100CA0002091920430E0F901EE0FFF1FEE0FFF1FBD
:100CB000ED56FB4F83818823C1F022812223A1F0CE
:100CC000E42FF0E0EE0FFF1FEE0FFF1FED56FB4F7E
:100CD00070E0899F600D711D11240190F081E02D5D
:100CE000E60FF71F84910895822F08958093A5043D
:100CF00061E081FF62E08BE074C181E0F7CF809119
:100D0000A5048260F3CF8091A50492E08927EECFFD
:100D10009091A40481E089278093A40461E091303C
:100D200009F462E08AE05DC181E08093A304089544
:100D300080E0DCCF1092A3040895E1E08091A50447
:100D4000811101C0E0E08091A4048111E2608091F2
:100D5000A3048111E460F0E0EE5BFD4F8081089513
:100D60001F93CF93DF93162FC82FD0E0CC0FDD1F3A
:100D7000CC0FDD1FC050DE4FE881F981862F099529
:100D80001A83DF91CF911F910895CF93DF93C82FDE
:100D9000D0E0CC0FDD1FCC0FDD1FC050DE4FE8814F
:100DA000F98181E0099581E08A83DF91CF910895EF
:100DB000CF93DF93C82FD0E0CC0FDD1FCC0FDD1F0A
:100DC000C050DE4FE881F98180E009951A82DF91F9
:100DD000CF910895E82FF0E0EE0FFF1FEE0FFF1FF9
:100DE000E050FE4F61E09281911160E0B9CF282F71
:100DF000909103029923B9F0981779F0E92FF0E068
:100E0000892FEE0FFF1FEE0FFF1FE050FE4F938163
:100E1000992359F02913F2CF0895882311F080E027
:100E200008958DE008958DE008958DE00895E82FF0
:100E3000F0E0EE0FFF1FEE0FFF1FE050FE4F83812B
:100E400008951F93CF93DF93C82FD62F142FCFDF92
:100E50009FEF9C0F9C30C8F48D30E1F0EC2FF0E058
:100E6000EE0FFF1FEE0FFF1FE050FE4F9381A82FE4
:100E7000B0E0AA0FBB1FAA0FBB1FA050BE4F139616
:100E80009C93D383128381E001C080E0DF91CF91F6
:100E90001F91089580E0FACFE2E0F2E080E091E077
:100EA00090838F5F818334968D30D1F71092330217
:100EB00008958DE092E09093A9048093A804909304
:100EC000AB048093AA049093A7048093A60408958A
:100ED0008091AA049091AB049093A7048093A604F8
:100EE00008951092A9041092A8048091AA049091E8
:100EF000AB048234910541F01092AB041092AA0425
:100F00001092A7041092A60408958DE092E09093A9
:100F1000A9048093A8048091AA049091AB04823420
:100F2000910551F08DE092E09093AB048093AA0478
:100F30009093A7048093A60408958091A6049091AD
:100F4000A7048334910530F48091AA049091AB04F6
:100F5000892B51F482E490E09093AB048093AA042F
:100F60009093A7048093A60408958091A80490917B
:100F7000A9049093AB048093AA049093A704809350
:100F8000A60408958091A6049091A704009799F073
:100F90009C0121503109019731F03093A70420932F
:100FA000A60480E0089582E490E09093A7048093E3
:100FB000A60481E0089580E008950F931F93CF93D6
:100FC000082F192FC62F662341F08C2FF8010995A1
:100FD0008C2F2DDFC82F8111F8CFCF911F910F914A
:100FE0000895CF93E82FF0E0EE0FFF1FE455FB4F7D
:100FF000C0816330F1F048F0643081F06530B9F4BD
:101000006C2F8AEE96E0D9DF12C06130E1F06230D9
:1010100071F46C2F88ED96E0D0DF09C06C2F8AEE5A
:1010200096E0CBDF61DC6C2F8AEE96E0C6DFCF91D5
:1010300008956C2F8AEE96E0C0DF51DC6C2F8AEEAB
:1010400096E0BBDFF4CF6C2F85EC96E0B6DFEFCFF8
:10105000E82FF0E0EE0FFF1FE455FB4F6181C1CF99
:101060000F931F93CF93DF93162F042F9FEF980FAB
:101070009B3028F0DF91CF911F910F910895C82FD9
:10108000D0E0FE01EE0FFF1FE455FB4F422F6081C1
:10109000812FD7DE882371F3CC0FDD1FC455DB4FC2
:1010A00018830983E7CFF8DEECEAF4E084EC94E0FF
:1010B000118210823296E817F907D1F70895CF937D
:1010C000DF93CDB7DEB7AE014B5F5F4FFA016191A1
:1010D0007191AF0184E392E08FD1DF91CF910895B8
:1010E0008AE492E09F938F93EADF0F900F90089528
:1010F00088E2B0DA60E080E057D062E081E054D06E
:1011000061E082E051D063E083E04ED060E778E0B8
:101110008DE035DD64E479E08CE031DD21E040E014
:101120006AE087E09DDF20E040E06CE08AE098DF45
:1011300021E043E068E081E093DF20E044E063E009
:1011400082E08ECF8AE492E09F938F93B8DF0F9076
:101150000F90089588E27EDA60E081E025D062E0B9
:1011600081E022D061E082E01FD063E083E01CD008
:1011700062EA78E08DE003DD64E479E08CE0FFDC96
:1011800021E040E06AE087E06BDF20E040E06CE0D7
:1011900087E066DF21E043E068E081E061DF20E096
:1011A00044E063E082E05CCFE82FF0E0EE0FFF1F49
:1011B000E35AFD4F28E049E08081918103CD85E627
:1011C00092E09F938F937BDF0F900F90089588E2BA
:1011D00041DA60E080E07FD062E081E07CD061E0D5
:1011E00082E079D063E084E076D064E479E08CE05A
:1011F000C6DC6FED78E08DE0C2DC20E040E06AE024
:101200008AE02EDF20E040E06CE088E029DF21E08A
:1012100043E068E081E024DF20E044E063E082E036
:101220001FDF76CD82E892E09F938F9348DF0F9087
:101230000F90089588E20EDA60E081E04CD062E021
:1012400081E049D061E083E046D063E084E043D0B0
:1012500064E479E08CE093DC62E179E08DE08FDC9E
:1012600020E040E06AE087E0FBDE20E040E06CE068
:1012700088E0F6DE21E043E068E081E0F1DE20E096
:1012800044E063E082E0ECCE89E992E09F938F93A3
:1012900016DF84EA92E09F938F9311DF84EB92E054
:1012A0009F938F930CDF8EED92E09F938F9307DFD8
:1012B00084EF92E09F938F9302DF8AE093E09F9305
:1012C0008F93FDDE8DB79EB70C960FB6F8949EBF38
:1012D0000FBE8DBF0895E82FF0E0EE0FFF1FEA5E0E
:1012E000FC4F28E049E0808191816CCC80E293E062
:1012F0009F938F93E4DE0F900F90089528E04DE0C8
:1013000060E084EA94E05EDC28E04DE062E08CE39B
:1013100094E058DC28E04DE061E084ED93E052DC9D
:1013200028E04DE063E08CE693E04CDC88E292D963
:1013300020E040E06AE08AE093DE20E040E06CE0FC
:101340008BE08EDE21E045E061E083E089DE20E095
:1013500045E06BE083E084DE21E043E068E081E08B
:101360007FDE21E044E064E082E07ADED1DCB4DAC2
:1013700066E779E08DE003CC24DA01C07DD94CDA50
:101380008823E9F353D9C82F803AC1F382E0E7DB21
:10139000FC018C2F0995F2CF97FB072E16F40094D1
:1013A00006D077FD08D014D007FC05D03EF4909508
:1013B00081959F4F0895709561957F4F0895EE0F29
:1013C000FF1F0024001C0BBE0790F691E02D09942E
:1013D000AA1BBB1B51E107C0AA1FBB1FA617B7075B
:1013E00010F0A61BB70B881F991F5A95A9F7809577
:1013F0009095BC01CD0108955F926F927F928F927C
:101400009F92AF92BF92CF92DF92EF92FF920F9393
:101410001F93CF93DF93CDB7DEB72F970FB6F89416
:10142000DEBF0FBECDBF6C017B018A01DC011796C8
:101430001C921E92169713968C9181FFF1C12AE09F
:10144000522EF6019381F70193FD859193FF8191CF
:101450007F01882309F471C0853239F493FD8591A9
:1014600093FF81917F01853221F4B60190E0F1D1A3
:10147000E8CF912C612C712CFFE1F71508F445C0E1
:101480008B32C1F1F0F48032B9F1833209F43AC001
:10149000833609F49AC0833709F4A3C0833509F071
:1014A000C3C0F801A190B1908F01692D70E076FC66
:1014B00002C06FEF7FEFC501B6D14C01689477F899
:1014C00071C08D32E1F0803351F020ED280F2A30C9
:1014D00048F18E3209F04BC0689476F802C06894E7
:1014E00070F8F70193FD859193FF81917F01811140
:1014F000C3CF45C0689471F8689472F8F2CF6894CD
:1015000073F8EFCF689474F8ECCF77FC38C020ED17
:10151000280F2A3070F476FE05C0959C200D11240A
:10152000922EDFCF659C200D1124622E689475F8F1
:10153000D8CF8E32E1F476FECFCFD60116968D91BC
:101540009C912F960FB6F894DEBF0FBECDBFDF91F2
:10155000CF911F910F91FF90EF90DF90CF90BF90B0
:10156000AF909F908F907F906F905F9008958C3692
:1015700019F4689477F8B5CF883609F4B2CF982F6C
:101580009F7D9554933008F083CF0C5F1F4F8FE3FE
:10159000898388248394912CAE014F5F5F4F5A0159
:1015A000E89477F873FC05C0862D90E088169906BC
:1015B00030F18114910449F5662009F442CFB60157
:1015C00080E290E046D16A94F7CFD8018C9189836C
:1015D0000E5F1F4F88248394912CFE0131965F018A
:1015E000DFCFD801AD90BD908D01692D70E076FC04
:1015F00002C06FEF7FEFC50121D14C01D1CFB60101
:1016000080E290E026D16A94CFCFF50177FC8591F6
:1016100077FE81915F01B60190E01BD161106A9461
:10162000F1E08F1A9108C5CF843619F0893609F098
:101630007DC0F80177FE73C06191719181919191A4
:101640008F01272D2F76822E97FF09C090958095C8
:10165000709561957F4F8F4F9F4F689487F82AE070
:1016600030E0AE014F5F5F4F5A0123D18A19A82E97
:10167000BA2C782C86FE0CC0E89470F8A91440F4BB
:1016800084FE05C082FC03C0782D7E7E772EB92CA7
:1016900074FEA1C0FE01EA0DF11D8081803309F0C6
:1016A00093C0872D897E782E73FC0EC070FEA1C07A
:1016B0009A2CB61418F4960C9B18B62C862D8B1900
:1016C0006B1408F480E0B80EB61408F094C06B18E0
:1016D00074FE93C0B60180E390E0BBD072FE08C0F8
:1016E00088E590E071FC02C088E790E0B601B1D0D7
:1016F000A91408F48FC0AA94B12C9FEFA91AB90AB3
:10170000DE0111964D01AA0EBB1EF50182915F010B
:10171000B60190E09ED08A149B04B9F74DCF619139
:101720007191072E000C880B990B8ACF872CE894B7
:1017300084F82AE030E0853769F0572D597F852EEF
:10174000803769F110F5883569F18F3609F0F5CEEB
:1017500028E030E0F80187FE2DC081919191A191A0
:10176000B1918C879D87AE87BF878F01BE016F5F68
:101770007F4F5B01AB016C857D858E859F8599D000
:101780008A19A82EE89487F873CF883709F0D5CE48
:1017900084FE02C0689482F820E130E0DBCF6894D8
:1017A00084F8F6CF74FE03C0652F6660862E20E1B4
:1017B00032E0D0CF81919191AC0160E070E04C8734
:1017C0005D876E877F87D1CF72FC02C0B3946CCFE8
:1017D000B394B39469CF872D8678882309F464CFB6
:1017E000F5CFB60180E290E034D083948614C8F33C
:1017F00065CF8B2CFBCF612C6BCF872D8678882310
:1018000009F476CF8BE271FE80E277FC8DE2B601BF
:1018100090E06DCFB60180E390E01BD09A9468CF42
:101820008FEF9FEF8ECEFC0105906150704001104C
:10183000D8F7809590958E0F9F1F0895FC016150F9
:10184000704001900110D8F7809590958E0F9F1FE2
:1018500008950F931F93CF93DF93182F092FEB0158
:101860008B8181FD09C01FEF0FEF812F902FDF913A
:10187000CF911F910F91089582FF14C02E813F8157
:101880008C819D81281739073CF4E881F981CF01CB
:1018900001969983888310838E819F8101969F830F
:1018A0008E83E3CFE885F985812F0995892BA1F3F4
:1018B000DACFFA01AA27283051F1203181F1E894DA
:1018C0006F936E7F6E5F7F4F8F4F9F4FAF4FB1E033
:1018D0003ED0B4E03CD0670F781F891F9A1FA11D2E
:1018E000680F791F8A1F911DA11D6A0F711D811D2F
:1018F000911DA11D20D009F468943F912AE0269FF4
:1019000011243019305D3193DEF6CF010895462F52
:101910004770405D4193B3E00FD0C9F7F6CF462F33
:101920004F70405D4A3318F0495D31FD405241939C
:1019300002D0A9F7EACFB4E0A69597958795779559
:101940006795BA95C9F700976105710508959B01E0
:10195000AC010A2E06945795479537952795BA9569
:10196000C9F7620F731F841F951FA01D0895F89477
:10197000FFCFCC02AE02AF02B002B102B202B3029C
:10198000CC02B402B502B602B702B902B802BA027A
:10199000BC02BE02C002C202C402C602C802CA021F
:1019A000CC02CE02D002D202D402D602D802DA028F
:1019B000DC02DE02E902F202F202F202EA02EB02C9
:0E19C000F202EC02ED02EE02EF02F102F00282
:1019CE0023040000240400002B0400003304000054
:1019DE003B040000420400004A04000052040000D0
:1019EE0059040000610400001104000017040000F7
:1019FE001D040000000000020000000007030000AC
:101A0E00000000010201030303035B4B65796D6166
:101A1E00703A20636C61737369635D0A00BC012CBC
:101A2E00017401E4005B4B65796D61703A20417081
:101A3E00706C6520322028752F6C206361736529C8
:101A4E005D005B4B65796D61703A204170706C651D
:101A5E00203220434150535D003130204745542001
:101A6E0041240D0032302041203D20415343284176
:101A7E0024290D0033302049462041203C203332AA
:101A8E00205448454E2041243D2243544C2B222BBA
:101A9E00434852242841202B203634290D0034305F
:101AAE00203F2227223B41243B2227203D20223B60
:101ABE00413A0D0035302049462041203C3E20332E
:101ACE0020474F544F2031300D00363020454E44C4
:101ADE000D52554E0D0024034C02DC0294020402FA
:101AEE005B4B657962643A20536F6C2D32305D002A
:00000001FF
