:1000000047C2000061C200005FC200005DC2000084
:100010005BC2000059C2000057C2000055C2000078
:1000200053C2000051C200004FC200004DC2000088
:100030004BC2000049C200008BC3000045C2000053
:1000400043C2000041C200003FC200003DC20000A8
:100050003BC2000039C2000037C2000035C20000B8
:1000600033C2000031C20000A0A1A1A01B09A51C41
:10007000A010A0A0201A0111B12C0D0E0216031819
:10008000A00B0A0807060413A00915191412051776
:10009000A0A6A40D0A0F0CA0A01D1BA0A0C0BFBE4F
:1000A00000BDBCBBBAB9B8B7A8A9AAAB0000ADAC3B
:1000B000A0A1A1A01B09A55C7F503B2F205A415154
:1000C000A02C4D4E42564358A04B4A4847464453F5
:1000D000A049555954524557A0A6A40D0A4F4C2E7D
:1000E0007E5D5B2D3A303938403736353433323126
:1000F000A8A9AAAB0000ADACA0A1A1A01B09A57C3A
:100100007F502B3F205A4151B23C4D4E42564358EE
:10011000A04B4A4847464453A04955595452455765
:10012000A0A6A40D0A4F4C3E7E7D7B3D2A30292897
:100130006027262524232221A8A9AAAB0000ADAC64
:10014000A0A1A1A01B09A55C7F703B2F207A617143
:10015000A02C6D6E62766378A06B6A6867666473C4
:10016000A069757974726577A0A6A40D0A6F6C2ECC
:100170007E5D5B2D3A303938403736353433323195
:10018000A8A9AAAB0000ADACA4A1A1A0A01BA51575
:10019000A010A0A0201A0111A02C0D0E0216031809
:1001A000A00B0A0807060413A00915191412051755
:1001B000A0A0A00DA60F0CA0A0A0B1A0A0C0BFBE83
:1001C00008BDBCBBBAB9B8B7A8A9AAAB0000ADAC12
:1001D000A4A1A1A0A01BA515A0503B2F205A4151BE
:1001E000A02C4D4E42564358A04B4A4847464453D4
:1001F000A049555954524557A0A0A00DA64F4C2ECA
:10020000A0A0A02D3A303938083736353433323192
:10021000A8A9AAAB0000ADACA4A1A1A0A01BA515E4
:10022000A0402B3F205A4151A03C4D5E42564358BE
:10023000A04B4A4847464453A04955595452455744
:10024000A0A0A00DA64F4C3EA0A0B23D2A30292868
:100250000827262524232221A8A9AAAB0000ADAC9B
:10026000A4A1A1A0A01BA515A0502B3F205A41512D
:10027000A03C4D4E42564358A04B4A484746445333
:10028000A049555954524557A0A0A00D404F4C3E8F
:10029000A0A0B23D2A302928082726252423222180
:1002A000A8A9AAAB0000ADACA4A1A1A0A01BA51554
:1002B0007F703B2F207A6171A02C6D6E627663781F
:1002C000A06B6A6867666473A069757974726577F4
:1002D000A0A0A00D5E6F6C2EA0A0A02D3A303938E2
:1002E0000837363534333231A8A9AAAB0000ADAC9B
:1002F000A5A20113040607080A0B0C0B0A7FB1A57F
:10030000A4A11A180316020E0D0C0E0FA180A0A0B6
:100310001B010203040506070809000D1E1B1C1D16
:10032000B20911170512141915090F10000D0A8CC6
:10033000A8A9AAAB0000ADACB3978120939A8E8B8D
:100340002D372A382F39A0A0343135323633A0A0CA
:10035000302E2BA0A0A0A0A0A5A241534446474800
:100360004A4B4C3B3A5FA6A5A4A15A584356424E6D
:100370004D3C3E3FA180A0A01B21222324252627FF
:100380002829203D7E5B5C5DB20951574552545986
:1003900055494F50600D0A8CA8A9AAAB0000ADAC1E
:1003A000B3978120939A8E8B2D372A382F39A0A0AE
:1003B000343135323633A0A0302E2BA0A0A0A0A01F
:1003C000A5A24153444647484A4B4C3B3A7FA6A519
:1003D000A4A15A584356424E4D2C2E2FA180A0A0C6
:1003E0001B313233343536373839302D5E5B5C5D46
:1003F000B20951574552545955494F50400D0A8C36
:10040000A8A9AAAB0000ADACB3978120939A8E8BBC
:100410002D372A382F39A0A0343135323633A0A0F9
:10042000302E2BA0A0A0A0A0A5A26173646667686F
:100430006A6B6C3B3A7FA6A5A4A17A786376626E5C
:100440006D2C2E2FA180A0A01B31323334353637CE
:100450003839302D5E5B5C5DB209717765727479F5
:1004600075696F70400D0A8CA8A9AAAB0000ADACED
:10047000B3978120939A8E8B2D372A382F39A0A0DD
:10048000343135323633A0A0302E2BA0A0A0A0A04E
:1004900011241FBECFEFD8E0DEBFCDBF12E0A0E039
:1004A000B1E0EAE1FAE102C005900D92A033B10794
:1004B000D9F723E0A0E3B2E001C01D92A43CB2074B
:1004C000E1F799D70C94DD0C9BCD805A813208F06E
:1004D0000895E82FF0E0E152F34FAFC784E09BC2EC
:1004E0008DE099C28CE097C28BE095C28AE093C2FE
:1004F00089E091C288E08FC287E08DC286E08BC21E
:1005000085E089C286E0E7C585E0E5C584E0E3C50E
:1005100083E0E1C582E0DFC581E0DDC589E0DBC5C0
:1005200088E0D9C587E0D7C56BC11FC5D7C396C3BF
:1005300055C314C330C540C433C427C41EC417C434
:10054000815A8D3008F00895E82FF0E0E050F34F25
:1005500074C736C43AC437C5E1C220C35FC39EC363
:10056000F0C451C1CF93C82F8A3041F06C2F8091D5
:1005700032020CD28C2F90E0CF9108956DE08091E3
:10058000320204D2F3CFCF938091320221D2C82F0E
:10059000803A41F0809130029091310246D18C2F07
:1005A000CF91089580913302CF9112C290E0909341
:1005B00031028093300208955F926F927F928F9202
:1005C0009F92AF92BF92CF92DF92EF92FF920F93E2
:1005D0001F93CF93DF9381E02DD25C0183E01BD288
:1005E00000E03AE0732E88248394912C50EA652E23
:1005F00068D2081708F06BC0802FF5010995D82F35
:10060000802F90E09C012B543D4F6901F90110812E
:100610001D27C0E0880F991F880F991F880F991F09
:100620009C012B5C3D4F790105C0811115C01695C9
:10063000D695CF5F51D2C81708F044C08D2F817076
:1006400010FFF3CFF701EC0FF11D90812FEF290F71
:100650009130F9F02083EBCFBBD3482F6C2F802F44
:100660005DD3909134029813E2CFBAD48823F9F283
:1006700050903402F0EAF51510F1652D80913302A7
:1006800085D180913402581691F25092340250D4A0
:10069000CECF7082F601908194010C2E01C0220F02
:1006A0000A94EAF7882319F1922B908391D3482F6B
:1006B0006C2F802F33D3582EF0EAF817F0F6852DE3
:1006C00004DFB5CF0F5FFDD1081708F495CFDF9198
:1006D000CF911F910F91FF90EF90DF90CF90BF903F
:1006E000AF909F908F907F906F905F90089520952E
:1006F000292320836DD3482F6C2F802F0FD3813A6D
:1007000038F490913402981392CF609234028FCFD4
:1007100017DF8DCF80EA8093340204D1FAD3E7D17A
:1007200080E190E006D18093330280E890E001D12F
:1007300080933202E5EBF2E080E1DF011D928A95C1
:10074000E9F740E850E06AE070E085E392E08FC6A8
:100750008F9381E08093C6028F9118958091C60295
:100760001092C6020895882311F044980895449A7F
:100770000895882311F02D9A08952D9808958823BF
:1007800011F02C9A08952C980895882319F0459A11
:100790003D9A089545983D9A0895882319F03D980B
:1007A000459A089545983D9A0895882319F0459AE9
:1007B0003D9A08953D9845980895882319F02B98FF
:1007C000239A08952B9A239A0895089508950895D9
:1007D000882319F02F9A279A08952F98279A089519
:1007E000882319F027982F9A08952F98279A08950B
:1007F000882319F02F9A279A089527982F980895FB
:100800002E98269A08952E9A269A08958AE18A9516
:10081000F1F700C008952FE788E391E02150804070
:100820009040E1F700C0000008959C01892B61F021
:1008300090E080E0EFECF7E03197F1F700C00000C6
:10084000019628173907B1F70895F8941092C60257
:1008500087E0809361001092C6028CE787BD15BCCB
:1008600082E084BD80936E0083E085BD8091C502E7
:100870008BB98FEF8AB91092C5022E98269A3C9AAE
:10088000259A249A3C9A259A249A88B1807F88B91F
:1008900087B18F6087B92A98229A299A219A20983D
:1008A00028987894089598B1907F8F70982B98B974
:1008B00029982A9A2A98299A30E020E080E093B17A
:1008C0009095492F417050E0BA01022E01C0660F89
:1008D0000A94EAF7862B2A9A2A982F5F3F4F2830EE
:1008E000310569F708959091C50289278BB91E9A41
:1008F0008AE18A95F1F700C01E9A0895833049F085
:1009000028F4813041F0823029F4A0C4843011F4FD
:1009100034C5CFC42CC45DC4982F81E0953008F055
:1009200080E008951092C9021092C8021092C70286
:1009300008959C018091C702843034F54091C8022B
:100940005091C90260E970E0641B750B6217730770
:10095000DCF091E0980F9093C70297E08902F001D4
:100960001124E653FD4F33832283BA016A517D4F30
:1009700071836083148215821682420F531F509335
:10098000C9024093C80208958FEF089587FD1EC0E5
:100990009091C7028917DCF497E08902F0011124D5
:1009A000E653FD4F2681428153812417150674F4C6
:1009B000848190E0A081B181A80FB91F6C9301964A
:1009C000BA0128D584832F5F26830895089508955A
:1009D00087FD04C09091C70289171CF030EA832F6D
:1009E000089597E08902F0011124E653FD4F268116
:1009F0002223A1F3858190E0A081B181A80FB91FC6
:100A00003C9101966281738105D5858321502683AF
:100A1000832F089508959FEF980F9D3050F4E82F8D
:100A2000F0E0EE0FFF1FEA58FC4F0190F081E02D3F
:100A3000099408959FEF980F9D3048F4E82FF0E057
:100A4000EE0FFF1FEA58FC4F8081918108958AE0E4
:100A500095E008959FEF980F9D3040F4E82FF0E067
:100A6000EE0FFF1FEA58FC4F608371830895E6E79D
:100A7000F3E08AE095E08193919323E0E239F20775
:100A8000D1F783E594E0909379038093780383E72B
:100A900094E090937B0380937A030895643080F40C
:100AA000413170F4293060F4E62FF0E0EE0FFF1FC3
:100AB000EE0FFF1FED56FC4F80839183428323830B
:100AC000089586D1E82FF0E0EE0FFF1FEE0FFF1F15
:100AD000ED56FC4F828108957BD1E82FF0E0EE0FB8
:100AE000FF1FEE0FFF1FED56FC4F8381089580E03E
:100AF00013DF811101C0089510929203A6DEE3E98D
:100B0000F3E01182108212821382349683E0E33A7A
:100B1000F807B9F70AD3ABDF80E0F0CECF9380912E
:100B20009203C82FCE7F80FD02C0CF9108958C2FF5
:100B3000F3DE8823D1F3C093920387DEE3E9F3E089
:100B40001182108212821382349683E0E33AF8070E
:100B5000B9F7EBD28CDF8C2FCF91D0CECF93809191
:100B60009203C82FC16080FF02C0CF9108958C2FDF
:100B7000D3DE8823D1F3C093920367DEE3E9F3E089
:100B80001182108212821382349683E0E33AF807CE
:100B9000B9F7CBD26CDF8C2FCF91B0CECF938091B1
:100BA0009203C82FCD7F81FD02C0CF9108958C2F75
:100BB000B3DE8823D1F3C093920347DEE3E9F3E089
:100BC0001182108212821382349683E0E33AF8078E
:100BD000B9F7ABD24CDF8C2FCF9190CECF938091D1
:100BE0009203C82FC26081FF02C0CF9108958C2F5D
:100BF00093DE8823D1F3C093920327DEE3E9F3E089
:100C00001182108212821382349683E0E33AF8074D
:100C1000B9F78BD22CDF8C2FCF9170CECF938091F0
:100C20009203C82FCB7F82FD02C0CF9108958C2FF5
:100C300073DE8823D1F3C093920307DEE3E9F3E088
:100C40001182108212821382349683E0E33AF8070D
:100C5000B9F76BD20CDF8C2FCF9150CECF93809110
:100C60009203C82FC46082FF02C0CF9108958C2FD9
:100C700053DE8823D1F3C0939203E7DDE3E9F3E089
:100C80001182108212821382349683E0E33AF807CD
:100C9000B9F74BD2ECDE8C2FCF9130CECF93809131
:100CA0009203C82FC77F83FD02C0CF9108958C2F78
:100CB00033DE8823D1F3C0939203C7DDE3E9F3E089
:100CC0001182108212821382349683E0E33AF8078D
:100CD000B9F72BD2CCDE8C2FCF9110CECF93809151
:100CE0009203C82FC86083FF02C0CF9108958C2F54
:100CF00013DE8823D1F3C0939203A7DDE3E9F3E089
:100D00001182108212821382349683E0E33AF8074C
:100D1000B9F70BD2ACDE8C2FCF91F0CD982FA091EC
:100D20009203B0E0AA0FBB1FAA0FBB1FAD56BC4F6A
:100D300013968C9113978823C9F012962C91222335
:100D4000A1F0E42FF0E0EE0FFF1FEE0FFF1FED56B6
:100D5000FC4F70E0899F600D711D11240190F0819E
:100D6000E02DE60FF71F8491089580E0089581E05B
:100D70008093A50362E08BE049C18091A503826066
:100D80008093A50361E08BE041C18091A50392E0CF
:100D900089278093A50362E081FD61E08BE036C185
:100DA0009091A40381E089278093A40362E09130AD
:100DB00009F061E08AE02AC181E08093A3030895ED
:100DC0001092A50362E08BE021C11092A303089565
:100DD000E1E08091A503811101C0E0E08091A403CE
:100DE0008111E2608091A3038111E460F0E0EE5B89
:100DF000FE4F80810895CF93DF93C82FD0E0CC0FB2
:100E0000DD1FCC0FDD1FC050DF4FE881F98181E08D
:100E1000099581E08A83DF91CF910895CF93DF9385
:100E2000C82FD0E0CC0FDD1FCC0FDD1FC050DF4F2F
:100E3000E881F98180E009951A82DF91CF910895C8
:100E40001F93CF93DF93C82FD0E0CC0FDD1FCC0FC3
:100E5000DD1FFE01E050FF4F11E08281811110E0A3
:100E6000C050DF4FE881F981812F09951A83DF9106
:100E7000CF911F910895E82FF0E0EE0FFF1FEE0FC6
:100E8000FF1FE050FF4F83810895582F8091030189
:100E9000882391F0581303C027C0581771F0282FEA
:100EA00030E0982F220F331F220F331FF901E0503B
:100EB000FF4F83818111F1CF089581508C30B8F4B8
:100EC0009D30A9F0E52FF0E0EE0FFF1FEE0FFF1FA2
:100ED000E050FF4F838120503F4FD90113968C93F0
:100EE0006383428381E0089581508C3010F080E06C
:100EF000089530E020E0E6CFE2E0F1E080E091E02C
:100F000090838F5F818334968D30D1F710923301B7
:100F100008958DE092E09093A9038093A8039093A5
:100F2000AB038093AA039093A7038093A60308952D
:100F30008091AA039091AB039093A7038093A6039B
:100F400008951092A9031092A8038091AA0390918A
:100F5000AB038234910541F01092AB031092AA03C7
:100F60001092A7031092A60308958DE092E090934B
:100F7000A9038093A8032091AA033091AB032234E4
:100F8000310541F09093AB038093AA039093A7039C
:100F90008093A60308958091A6039091A7038334BC
:100FA000910530F48091AA039091AB03892B51F401
:100FB00082E490E09093AB038093AA039093A703FD
:100FC0008093A60308958091A8039091A90390931C
:100FD000AB038093AA039093A7038093A60308957D
:100FE0008091A6039091A703009771F0019741F4B7
:100FF00082E490E09093A7038093A60381E0089594
:101000009093A7038093A60380E00895CF93DF9386
:10101000E82FF0E0EE0FFF1FE455FC4FC081633076
:1010200051F180F0643009F43BC0653031F007C005
:101030008C2F06DF8C2F1FDFC82FC111F9CFDF9156
:10104000CF910895613091F0623031F0F8CF8C2F5C
:10105000E5DE8C2F10DFC82FC111F9CFDF91CF91C2
:1010600008958C2FC8DE8C2F06DFC82FC111F9CF51
:10107000DF91CF910895DC2FCC2339F18D2FE0DE65
:101080008D2FF9DED82F8111F9CFC0DB8C2FD8DE60
:101090008C2FF1DEC82F8111F9CFDF91CF91089508
:1010A000DC2FCC23A9F08D2FCBDE8D2FE4DED82FC3
:1010B0008111F9CFB0DB8C2FC3DE8C2FDCDEC82F83
:1010C0008111F9CFDF91CF910895DF91CF919ECB20
:1010D000DF91CF91A0CBE82FF0E0EE0FFF1FE4559A
:1010E000FC4F618193CF0F931F93CF93DF93162F04
:1010F000042F9FEF980F9B3028F0DF91CF911F9125
:101100000F910895C82FD0E0CC0FDD1FC455DC4FE0
:10111000422F6881812FB9DE882379F318830983F0
:10112000DF91CF911F910F910895E6DEECEAF3E095
:1011300011821082329683E0E43CF807C9F70895E3
:10114000CF93DF93CDB7DEB7FE01359661917191F4
:10115000AF0184E391E092D1DF91CF9108958AE4C9
:1011600091E09F938F93ECDF0F900F90089588E2AA
:101170001DDA60E080E057D062E081E054D061E0A9
:1011800082E051D063E083E04ED06FEA78E08DE0FA
:1011900061DC63E879E08CE05DDC21E040E06AE05E
:1011A00087E0A1DF20E040E06CE08AE09CDF21E006
:1011B00043E068E081E097DF20E044E063E082E024
:1011C00092CF8AE491E09F938F93BADF0F900F90B4
:1011D000089588E2EBD960E081E025D062E081E00B
:1011E00022D061E082E01FD063E083E01CD061EE9A
:1011F00078E08DE02FDC63E879E08CE02BDC21E007
:1012000040E06AE087E06FDF20E040E06CE087E0EC
:101210006ADF21E043E068E081E065DF20E044E050
:1012200063E082E060CFE82FF0E0EE0FFF1FE35AAB
:10123000FE4F28E049E08081918130CC85E691E045
:101240009F938F937DDF0F900F90089588E2AED922
:1012500060E080E07FD062E081E07CD061E082E00D
:1012600079D063E084E076D063E879E08CE0F2DB6B
:101270006EE179E08DE0EEDB20E040E06AE08AE0BC
:1012800032DF20E040E06CE088E02DDF21E043E049
:1012900068E081E028DF20E044E063E082E023DFD3
:1012A0007FCD82E891E09F938F934ADF0F900F905C
:1012B000089588E27BD960E081E04CD062E081E073
:1012C00049D061E083E046D063E084E043D063E846
:1012D00079E08CE0BFDB61E579E08DE0BBDB20E00D
:1012E00040E06AE087E0FFDE20E040E06CE088E07C
:1012F000FADE21E043E068E081E0F5DE20E044E052
:1013000063E082E0F0CE89E991E09F938F9318DF4C
:1013100084EA91E09F938F9313DF84EB91E09F9396
:101320008F930EDF8EED91E09F938F9309DF84EF13
:1013300091E09F938F9304DF8AE092E09F938F93D5
:10134000FFDE8DB79EB70C960FB6F8949EBF0FBE0A
:101350008DBF0895E82FF0E0EE0FFF1FEA5EFD4F0E
:1013600028E049E08081918199CB80E292E09F93CF
:101370008F93E6DE0F900F90089528E04DE060E037
:1013800088E294E08BDB28E04DE062E080EC93E0C3
:1013900085DB28E04DE061E088E593E07FDB28E035
:1013A0004DE063E080EF92E079DB88E2FFD820E057
:1013B00040E06AE08AE097DE20E040E06CE08BE00D
:1013C00092DE21E045E061E083E08DDE20E045E053
:1013D0006BE083E088DE21E043E068E081E083DECB
:1013E00021E044E064E082E07EDEDADC0CDA65EBEA
:1013F00079E08DE02FCB8ED9B1D98823E9F3C3D81A
:10140000C82F803A29F082E015DBFC018C2F09956A
:10141000D3D8F2CF97FB072E16F4009406D077FDB1
:1014200008D011D007FC05D03EF4909581959F4FD0
:101430000895709561957F4F0895EE0FFF1F0590F9
:10144000F491E02D0994AA1BBB1B51E107C0AA1F10
:10145000BB1FA617B70710F0A61BB70B881F991F55
:101460005A95A9F780959095BC01CD010895DC01AE
:1014700001C06D9341505040E0F70895AFE0B0E0F7
:10148000E3E4FAE063C27C013B018A01DC011796C8
:101490001C921E92169713968C9181FFB0C19AE010
:1014A000292EFE0131964F01D70113969C91F3012D
:1014B00093FD859193FF81913F01882309F43AC1FF
:1014C000853239F493FD859193FF81913F018532F7
:1014D00021F4B70190E0ACD1E7CFB12C412C512CD5
:1014E000BFE1B51538F08B3209F188F4803201F193
:1014F000833221F157FC3AC020ED280F2A3040F505
:1015000056FE1FC0B29C200D1124B22E06C08D3293
:1015100091F0803379F7689450F8F30193FD859149
:1015200093FF81913F018111DBCF20C0689451F876
:10153000689452F8F2CF689453F8EFCF689454F857
:10154000ECCF429C200D1124422E689455F8E5CF33
:101550008E3229F456FCEEC0689456F8DECF8C36F5
:1015600019F4689457F8D9CF8836B9F2982F9F7D2F
:1015700095549330B8F0833671F1833791F1833508
:1015800009F056C0D801CD90DD908D016B2D70E033
:1015900056FC02C06FEF7FEFC60134D15C01689446
:1015A00057F80AC00C5F1F4FEFE3E983AA24A39406
:1015B000B12C6401E89457F853FE26C0342CA114D2
:1015C000B10439F5332009F46FCFB70180E290E020
:1015D0002FD13A94F7CFD8018C9189830E5F1F4F9A
:1015E000E5CFF801C190D1908F016B2D70E056FCD2
:1015F00002C06FEF7FEFC60110D15C01DBCFB701F6
:1016000080E290E015D14A944A141B0409F0B8F71F
:10161000D5CFF60157FC859157FE81916F01B70137
:1016200090E006D131103A94B1E0AB1AB108C7CFBF
:10163000843619F0893609F06DC0F80157FE63C091
:1016400061917191819191918F01E52DEF76DE2E5F
:1016500097FF09C090958095709561957F4F8F4F4A
:101660009F4F6894D7F82AE030E0A40111D1C82E2A
:10167000C818AC2C5D2CD6FE0CC0E89450F8CB14E6
:1016800040F4D4FE05C0D2FC03C05D2D5E7E552E15
:10169000AB2C54FE8EC0FE01EC0DF11D8081803319
:1016A00009F080C0652D697E562E752D7870372E15
:1016B00053FC8DC050FE87C0BC2CA41410F4B40C95
:1016C000BA1854FE8AC0B70180E390E0B1D052FE50
:1016D00006C088E751FC88E590E0B701A9D0CB149B
:1016E00008F487C0CA94D12C8FEFC81AD80AC80C46
:1016F000D91CD6018E916D01B70190E099D08C1460
:101700009D04B9F75FCF61917191072E000C880B92
:10171000990B9ACFD52CE894D4F82AE0853721F19B
:10172000F52DF97FDF2E803799F050F4883599F048
:101730008F36C9F0F701868197812F96E2E122C1A9
:101740008837C1F7D4FE02C06894D2F820E10CC0FB
:101750006894D4F8F7CF54FE03C02F2F2660D22E02
:1017600020E132E002C028E030E0F801D7FE14C0EA
:1017700041915191619171914C875D876E877F870F
:101780008F01A4016C857D858E859F8581D0C82EB3
:10179000C818E894D7F86DCF81919191AC0170E0B1
:1017A00060E0EACF52FC02C0A3947FCFA394A3943D
:1017B0007CCF852D867809F478CFF6CFB70180E20B
:1017C00090E036D0A394A414C8F3312C7ACF342CF3
:1017D0003A18A41408F475CFF8CF852D867809F44B
:1017E0007ECF8BE251FE80E257FC8DE2B70190E0A4
:1017F00075CFB70180E390E01BD0BA9470CF8FEF24
:101800009FEF9BCFFC010590615070400110D8F70D
:10181000809590958E0F9F1F0895FC016150704038
:1018200001900110D8F7809590958E0F9F1F089515
:101830000F931F93CF93DF93182F092FEB018B8109
:1018400081FD09C01FEF0FEF812F902FDF91CF9106
:101850001F910F91089582FF14C02E813F818C81CA
:101860009D81281739073CF4E881F981CF01019661
:101870009983888310838E819F8101969F838E83B5
:10188000E3CFE885F985812F0995892BA1F3DACF7C
:10189000FA01AA27283051F1203181F1E8946F93A1
:1018A0006E7F6E5F7F4F8F4F9F4FAF4FB1E03ED047
:1018B000B4E03CD0670F781F891F9A1FA11D680FE5
:1018C000791F8A1F911DA11D6A0F711D811D911D18
:1018D000A11D20D009F468943F912AE0269F11248D
:1018E0003019305D3193DEF6CF010895462F4770F1
:1018F000405D4193B3E00FD0C9F7F6CF462F4F704C
:10190000405D4A3318F0495D31FD4052419302D0A9
:10191000A9F7EACFB4E0A69597958795779567954F
:10192000BA95C9F700976105710508959B01AC014F
:101930000A2E06945795479537952795BA95C9F776
:10194000620F731F841F951FA01D08952F923F9251
:101950004F925F926F927F928F929F92AF92BF92BF
:10196000CF92DF92EF92FF920F931F93CF93DF936B
:10197000CDB7DEB7CA1BDB0B0FB6F894DEBF0FBEC8
:10198000CDBF09942A88398848885F846E847D8415
:101990008C849B84AA84B984C884DF80EE80FD8017
:1019A0000C811B81AA81B981CE0FD11D0FB6F8948D
:1019B000DEBF0FBECDBFED010895F894FFCF6E02DC
:1019C0009F029E029D029C029B029A026E02990255
:1019D00098029702960295029402920290028E0259
:1019E0008C028A0288028602840282026E028002CF
:1019F0007E027C027A02780276027402720270021F
:101A0000A902A302A302A302AA02AB02A302AC0290
:0A1A1000AD02AE02AF02B002B10257
:101A1A00E5030000C5030000CD030000D503000064
:101A2A00DD030000E6030000E7030000E80300000E
:101A3A00F0030000F8030000B3030000B90300003C
:101A4A00BF0300000000000200000000B202000014
:101A5A00000000010201030303035B4B65796D611A
:101A6A00703A20636C61737369635D0A004001B068
:101A7A0000F80068005B4B65796D61703A2041702F
:101A8A00706C6520322028752F6C2063617365297C
:101A9A005D005B4B65796D61703A204170706C65D1
:101AAA00203220434150535D0031302047455420B5
:101ABA0041240D0032302041203D2041534328412A
:101ACA0024290D0033302049462041203C2033325E
:101ADA00205448454E2041243D2243544C2B222B6E
:101AEA00434852242841202B203634290D00343013
:101AFA00203F2227223B41243B2227203D20223B14
:101B0A00413A0D0035302049462041203C3E2033E1
:101B1A0020474F544F2031300D00363020454E4477
:101B2A000D52554E0D00A802D0016002180288011C
:101B3A005B4B657962643A20536F6C2D32305D00DD
:00000001FF
