:1000000085C20000A3C20000A1C200009FC2000080
:100010009DC200009BC2000099C2000097C2000070
:1000200095C2000093C2000091C200008FC2000080
:100030008DC200008BC2000089C2000087C2000090
:1000400085C2000083C2000081C200007FC20000A0
:100050007DC20000C3C3000079C2000077C2000067
:1000600075C2000073C2000071C200006FC20000C0
:100070006DC200006BC2000069C2000067C20000D0
:1000800065C2000063C2000061C200005FC20000E0
:100090005DC200005BC2000059C2000057C20000F0
:1000A00055C2000053C2000051C200004FC2000000
:1000B0004DC200004BC2000049C2000047C2000010
:1000C00045C2000043C2000041C200003FC2000020
:1000D0003DC200003BC2000039C2000037C2000030
:1000E00035C20000A0A1A1A01B09A51CA010A0A0C2
:1000F000201A0111B12C0D0E02160318A00B0A08CC
:1001000007060413A009151914120517A0A6A40DBB
:100110000A0F0CA0A01D1BA0A0C0BFBE00BDBCBB91
:10012000BAB9B8B7A8A9AAAB0000ADACA0A1A1A06C
:100130001B09A55C7F503B2F205A4151A02C4D4EEE
:1001400042564358A04B4A4847464453A049555944
:1001500054524557A0A6A40D0A4F4C2E7E5D5B2D30
:100160003A3039384037363534333231A8A9AAAB62
:100170000000ADACA0A1A1A01B09A57C7F502B3F26
:10018000205A4151B23C4D4E42564358A04B4A482A
:1001900047464453A049555954524557A0A6A40D6B
:1001A0000A4F4C3E7E7D7B3D2A302928602726253C
:1001B00024232221A8A9AAAB0000ADACA0A1A1A034
:1001C0001B09A55C7F703B2F207A6171A02C6D6E9E
:1001D00062766378A06B6A6867666473A0697579F4
:1001E00074726577A0A6A40D0A6F6C2E7E5D5B2DE0
:1001F0003A3039384037363534333231A8A9AAABD2
:100200000000ADACA4A1A1A0A01BA515A010A0A0AA
:10021000201A0111A02C0D0E02160318A00B0A08BB
:1002200007060413A009151914120517A0A0A00DA4
:10023000A60F0CA0A0A0B1A0A0C0BFBE08BDBCBBB3
:10024000BAB9B8B7A8A9AAAB0000ADACA4A1A1A047
:10025000A01BA515A0503B2F205A4151A02C4D4E5C
:1002600042564358A04B4A4847464453A049555923
:1002700054524557A0A0A00DA64F4C2EA0A0A02DD3
:100280003A3039380837363534333231A8A9AAAB79
:100290000000ADACA4A1A1A0A01BA515A0402B3FC0
:1002A000205A4151A03C4D5E42564358A04B4A480B
:1002B00047464453A049555954524557A0A0A00D54
:1002C000A64F4C3EA0A0B23D2A302928082726255B
:1002D00024232221A8A9AAAB0000ADACA4A1A1A00F
:1002E000A01BA515A0502B3F205A4151A03C4D4EBC
:1002F00042564358A04B4A4847464453A049555993
:1003000054524557A0A0A00D404F4C3EA0A0B23D76
:100310002A3029280827262524232221A8A9AAAB88
:100320000000ADACA4A1A1A0A01BA5157F703B2F20
:10033000207A6171A02C6D6E62766378A06B6A681A
:1003400067666473A069757974726577A0A0A00D63
:100350005E6F6C2EA0A0A02D3A30393808373635A4
:1003600034333231A8A9AAAB0000ADACA5A2011369
:10037000040607080A0B0C0B0A7FB1A5A4A11A18E2
:100380000316020E0D0C0E0FA180A0A01B0102038C
:10039000040506070809000D1E1B1C1DB2091117D4
:1003A0000512141915090F10000D0A8CA8A9AAAB83
:1003B0000000ADACB3978120939A8E8B2D372A38ED
:1003C0002F39A0A0343135323633A0A0302E2BA0E7
:1003D000A0A0A0A0A5A24153444647484A4B4C3B8D
:1003E0003A5FA6A5A4A15A584356424E4D3C3E3F03
:1003F000A180A0A01B212223242526272829203DD7
:100400007E5B5C5DB20951574552545955494F5076
:10041000600D0A8CA8A9AAAB0000ADACB3978120EF
:10042000939A8E8B2D372A382F39A0A0343135324C
:100430003633A0A0302E2BA0A0A0A0A0A5A241538F
:10044000444647484A4B4C3B3A7FA6A5A4A15A587C
:100450004356424E4D2C2E2FA180A0A01B3132338B
:10046000343536373839302D5E5B5C5DB209515713
:100470004552545955494F50400D0A8CA8A9AAAB72
:100480000000ADACB3978120939A8E8B2D372A381C
:100490002F39A0A0343135323633A0A0302E2BA016
:1004A000A0A0A0A0A5A26173646667686A6B6C3B9C
:1004B0003A7FA6A5A4A17A786376626E6D2C2E2F62
:1004C000A180A0A01B313233343536373839302D76
:1004D0005E5B5C5DB20971776572747975696F7086
:1004E000400D0A8CA8A9AAAB0000ADACB39781203F
:1004F000939A8E8B2D372A382F39A0A0343135327C
:100500003633A0A0302E2BA0A0A0A0A011241FBE87
:10051000CFEFD1E2DEBFCDBF00E00CBF13E0A0E023
:10052000B2E0E4EAFAE100E00BBF02C007900D92EE
:10053000A033B107D9F724E0A0E3B3E001C01D92D6
:10054000A43CB207E1F7A6D70C94220D59CD805AEE
:10055000813208F00895E82FF0E08827EC5DF24F33
:100560008F4FBAC784E0A6C28DE0A4C28CE0A2C2BD
:100570008BE0A0C28AE09EC289E09CC288E09AC259
:1005800087E098C286E096C285E094C286E0F2C514
:1005900085E0F0C584E0EEC583E0ECC582E0EAC505
:1005A00081E0E8C589E0E6C588E0E4C587E0E2C50A
:1005B0007BC12AC5E2C3A1C360C31FC33BC54BC4F3
:1005C0003EC432C429C422C4815A8D3008F0089533
:1005D000E82FF0E08827EB5BF24F8F4F7DC73FC4D9
:1005E00043C440C5EAC229C368C3A7C3F9C45FC1F5
:1005F000CF93C82F8A3041F06C2F8091320315D2EF
:100600008C2F90E0CF9108956DE0809132030DD250
:10061000F3CFCF93809132032AD2C82F803A41F092
:10062000809130039091310354D18C2FCF91089554
:1006300080913303CF911BC290E09093310380935C
:10064000300308955F926F927F928F929F92AF9244
:10065000BF92CF92DF92EF92FF920F931F93CF93AF
:10066000DF9381E036D25C0183E024D200E03AE0FF
:10067000732E88248394912C50EA652E71D208172A
:1006800008F06BC0802FF5011995D82F802F90E0CE
:100690009C012B543C4F6901F90110811D27C0E0DA
:1006A000880F991F880F991F880F991F9C012B5C39
:1006B0003C4F790105C0811115C01695D695CF5FC5
:1006C0005AD2C81708F044C08D2F817010FFF3CFA5
:1006D000F701EC0FF11D90812FEF290F9130F9F008
:1006E0002083EBCFC4D3482F6C2F802F66D39091FB
:1006F00034039813E2CFC3D48823F9F25090340323
:10070000F0EAF51510F1652D809133038ED18091BB
:100710003403581691F25092340359D4CECF7082DC
:10072000F601908194010C2E01C0220F0A94EAF781
:10073000882319F1922B90839AD3482F6C2F802F06
:100740003CD3582EF0EAF817F0F6852D00DFB5CF30
:100750000F5F06D2081708F495CFDF91CF911F9154
:100760000F91FF90EF90DF90CF90BF90AF909F9050
:100770008F907F906F905F9008952095292320831C
:1007800076D3482F6C2F802F18D3813A38F490916C
:100790003403981392CF609234038FCF15DF8DCF3F
:1007A00080EA809334030DD103D4F0D180E190E04E
:1007B0000FD18093330380E890E00AD18093320315
:1007C000E5EBF3E080E1DF011D928A95E9F740E86F
:1007D00050E06AE070E085E393E09AC68F9381E091
:1007E0008093C6038F9118958091C6031092C6031B
:1007F0000895882311F05D9808955D9A08958823DF
:1008000011F05E9808955E9A0895882311F05F981C
:1008100008955F9A08950895882319F02D9A259ACE
:1008200008952D98259A0895882319F025982D9AD2
:1008300008952D98259A0895882319F02D9A259AC0
:10084000089525982D980895882319F02E9A269AB0
:1008500008952E98269A0895882319F026982E9A9E
:1008600008952E98269A0895882319F02E9A269A8C
:10087000089526982E980895882319F02F9A279A7C
:1008800008952F98279A0895882319F027982F9A6A
:1008900008952F98279A0895882319F02F9A279A58
:1008A000089527982F9808952C98249A08952C9AA3
:1008B000249A089585E38A95F1F7000008952FEFB3
:1008C00080E792E0215080409040E1F700C00000B6
:1008D00008959C01892B61F090E080E0EFE9FFE052
:1008E0003197F1F700C00000019628173907B1F7DA
:1008F0000895F8941092C60387E0809361001092E7
:10090000C60389EF87BD15BC82E084BD80936E006D
:1009100083E085BD8091C503809302018FEF8093B2
:1009200001011092C5032C98249A559A569A579A09
:1009300081B98093040117B888B978940895282F55
:1009400081E090E0A0E0B0E004C0880F991FAA1FEA
:10095000BB1F2A95D2F780959095A095B09580936E
:10096000050125E12A95F1F70000892F9A2FAB2F79
:10097000BB2782B985E18A95F1F7000086B18095A1
:1009800008959091C5038927809302011C9A85E3FD
:100990008A95F1F700001C9A0895833049F028F4F5
:1009A000813041F0823029F4A0C4843011F434C580
:1009B000CFC42CC45DC4982F81E0953008F080E04E
:1009C00008951092C9031092C8031092C7030895A6
:1009D0009C018091C703843034F54091C803509145
:1009E000C90360E970E0641B750B62177307DCF0E4
:1009F00091E0980F9093C70397E08902F0011124CA
:100A0000E653FC4F33832283BA016A517C4F7183D2
:100A10006083148215821682420F531F5093C903BC
:100A20004093C80308958FEF089587FD1EC09091ED
:100A3000C7038917DCF497E08902F0011124E6531B
:100A4000FC4F2681428153812417150674F484815A
:100A500090E0A081B181A80FB91F6C930196BA01F3
:100A600028D584832F5F268308950895089587FDF0
:100A700004C09091C70389171CF030EA832F0895B2
:100A800097E08902F0011124E653FC4F26812223CE
:100A9000A1F3858190E0A081B181A80FB91F3C919D
:100AA00001966281738105D5858321502683832F2A
:100AB000089508959FEF980F9D3050F4E82FF0E0CF
:100AC000EE0FFF1FEA58FB4F0190F081E02D1994C3
:100AD00008959FEF980F9D3048F4E82FF0E0EE0F57
:100AE000FF1FEA58FB4F80819181089589E595E0C9
:100AF00008959FEF980F9D3040F4E82FF0E0EE0F3F
:100B0000FF1FEA58FB4F608371830895E6E7F4E026
:100B100089E595E08193919324E0E239F207D1F7DA
:100B20008FE994E0909379048093780481EC94E0C9
:100B300090937B0480937A040895643080F441316B
:100B400070F4293060F4E62FF0E0EE0FFF1FEE0F97
:100B5000FF1FED56FB4F80839183428323830895CB
:100B600086D1E82FF0E0EE0FFF1FEE0FFF1FED56CE
:100B7000FB4F828108957BD1E82FF0E0EE0FFF1F3D
:100B8000EE0FFF1FED56FB4F8381089580E013DFCA
:100B9000811101C0089510929204ABDEE3E9F4E004
:100BA0001182108212821382349684E0E33AF807AD
:100BB000B9F70AD3ABDF80E0F0CECF9380919204F7
:100BC000C82FCE7F80FD02C0CF9108958C2FF3DE19
:100BD0008823D1F3C09392048CDEE3E9F4E0118220
:100BE000108212821382349684E0E33AF807B9F750
:100BF000EBD28CDF8C2FCF91D0CECF93809192040B
:100C0000C82FC16080FF02C0CF9108958C2FD3DE22
:100C10008823D1F3C09392046CDEE3E9F4E01182FF
:100C2000108212821382349684E0E33AF807B9F70F
:100C3000CBD26CDF8C2FCF91B0CECF93809192042A
:100C4000C82FCD7F81FD02C0CF9108958C2FB3DED8
:100C50008823D1F3C09392044CDEE3E9F4E01182DF
:100C6000108212821382349684E0E33AF807B9F7CF
:100C7000ABD24CDF8C2FCF9190CECF93809192044A
:100C8000C82FC26081FF02C0CF9108958C2F93DEE0
:100C90008823D1F3C09392042CDEE3E9F4E01182BF
:100CA000108212821382349684E0E33AF807B9F78F
:100CB0008BD22CDF8C2FCF9170CECF93809192046A
:100CC000C82FCB7F82FD02C0CF9108958C2F73DE99
:100CD0008823D1F3C09392040CDEE3E9F4E011829F
:100CE000108212821382349684E0E33AF807B9F74F
:100CF0006BD20CDF8C2FCF9150CECF93809192048A
:100D0000C82FC46082FF02C0CF9108958C2F53DE9C
:100D10008823D1F3C0939204ECDDE3E9F4E011827F
:100D2000108212821382349684E0E33AF807B9F70E
:100D30004BD2ECDE8C2FCF9130CECF9380919204AA
:100D4000C82FC77F83FD02C0CF9108958C2F33DE5B
:100D50008823D1F3C0939204CCDDE3E9F4E011825F
:100D6000108212821382349684E0E33AF807B9F7CE
:100D70002BD2CCDE8C2FCF9110CECF9380919204CA
:100D8000C82FC86083FF02C0CF9108958C2F13DE57
:100D90008823D1F3C0939204ACDDE3E9F4E011823F
:100DA000108212821382349684E0E33AF807B9F78E
:100DB0000BD2ACDE8C2FCF91F0CD982FA091920466
:100DC000B0E0AA0FBB1FAA0FBB1FAD56BB4F1396B7
:100DD0008C9113978823C9F012962C912223A1F0AD
:100DE000E42FF0E0EE0FFF1FEE0FFF1FED56FB4F5D
:100DF00070E0899F600D711D11240190F081E02D3C
:100E0000E60FF71F8491089580E0089581E08093B4
:100E1000A50462E08BE049C18091A50482608093C3
:100E2000A50461E08BE041C18091A50492E089278F
:100E30008093A50462E081FD61E08BE036C1909172
:100E4000A40481E089278093A40462E0913009F032
:100E500061E08AE02AC181E08093A30408951092A2
:100E6000A50462E08BE021C11092A3040895E1E0A3
:100E70008091A504811101C0E0E08091A40481115A
:100E8000E2608091A3048111E460F0E0EE5BFD4F2D
:100E900080810895CF93DF93C82FD0E0CC0FDD1F62
:100EA000CC0FDD1FC050DE4FE881F98181E019953C
:100EB00081E08A83DF91CF910895CF93DF93C82F8C
:100EC000D0E0CC0FDD1FCC0FDD1FC050DE4FE8811E
:100ED000F98180E019951A82DF91CF9108951F93CF
:100EE000CF93DF93C82FD0E0CC0FDD1FCC0FDD1FD9
:100EF000FE01E050FE4F11E08281811110E0C050F0
:100F0000DE4FE881F981812F19951A83DF91CF9106
:100F10001F910895E82FF0E0EE0FFF1FEE0FFF1F67
:100F2000E050FE4F83810895582F8091030288235B
:100F300091F0581303C027C0581771F0282F30E0E4
:100F4000982F220F331F220F331FF901E050FE4F5D
:100F500083818111F1CF089581508C30B8F49D3098
:100F6000A9F0E52FF0E0EE0FFF1FEE0FFF1FE0509E
:100F7000FE4F838120503E4FD90113968C9363839B
:100F8000428381E0089581508C3010F080E0089514
:100F900030E020E0E6CFE2E0F2E080E091E0908314
:100FA0008F5F818334968D30D1F71092330208958C
:100FB0008DE092E09093A9048093A8049093AB04F1
:100FC0008093AA049093A7048093A6040895809127
:100FD000AA049091AB049093A7048093A60408956B
:100FE0001092A9041092A8048091AA049091AB04D5
:100FF0008234910541F01092AB041092AA04109231
:10100000A7041092A60408958DE092E09093A9049D
:101010008093A8042091AA043091AB0422343105B6
:1010200041F09093AB048093AA049093A70480931B
:10103000A60408958091A6049091A7048334910595
:1010400030F48091AA049091AB04892B51F482E48E
:1010500090E09093AB048093AA049093A7048093AC
:10106000A60408958091A8049091A9049093AB04DC
:101070008093AA049093A7048093A6040895809176
:10108000A6049091A704009771F0019741F482E4BF
:1010900090E09093A7048093A60481E00895909334
:1010A000A7048093A60480E00895CF93DF93E82FF0
:1010B000F0E0EE0FFF1FE455FB4FC081633051F1AC
:1010C00080F0643009F43BC0653031F007C08C2FEC
:1010D00006DF8C2F1FDFC82FC111F9CFDF91CF9111
:1010E0000895613091F0623031F0F8CF8C2FE5DE59
:1010F0008C2F10DFC82FC111F9CFDF91CF91089548
:101100008C2FC8DE8C2F06DFC82FC111F9CFDF91DD
:10111000CF910895DC2FCC2339F18D2FE0DE8D2F78
:10112000F9DED82F8111F9CFC5DB8C2FD8DE8C2FBB
:10113000F1DEC82F8111F9CFDF91CF910895DC2F17
:10114000CC23A9F08D2FCBDE8D2FE4DED82F81119B
:10115000F9CFB5DB8C2FC3DE8C2FDCDEC82F8111DD
:10116000F9CFDF91CF910895DF91CF91A3CBDF919C
:10117000CF91A5CBE82FF0E0EE0FFF1FE455FB4F1A
:10118000618193CF0F931F93CF93DF93162F042F7B
:101190009FEF980F9B3028F0DF91CF911F910F9117
:1011A0000895C82FD0E0CC0FDD1FC455DB4F422F70
:1011B0006881812FB9DE882379F318830983DF9151
:1011C000CF911F910F910895E6DEECEAF4E01182D1
:1011D0001082329684E0E43CF807C9F70895CF9373
:1011E000DF93CDB7DEB7FE01369661917191AF0105
:1011F00084E392E094D1DF91CF9108958AE492E064
:101200009F938F93ECDF0F900F90089588E214DA8C
:1012100060E080E057D062E081E054D061E082E09D
:1012200051D063E083E04ED06EEF78E08DE061DC7A
:1012300062ED79E08CE05DDC21E040E06AE087E08F
:10124000A1DF20E040E06CE08AE09CDF21E043E0A9
:1012500068E081E097DF20E044E063E082E092CF45
:101260008AE492E09F938F93BADF0F900F900895D6
:1012700088E2E2D960E081E025D062E081E022D01E
:1012800061E082E01FD063E083E01CD060E379E09E
:101290008DE02FDC62ED79E08CE02BDC21E040E09A
:1012A0006AE087E06FDF20E040E06CE087E06ADF23
:1012B00021E043E068E081E065DF20E044E063E0B6
:1012C00082E060CFE82FF0E0EE0FFF1FE35AFD4F02
:1012D00028E049E08081918130CC85E692E09F93BF
:1012E0008F937DDF0F900F90089588E2A5D960E07D
:1012F00080E07FD062E081E07CD061E082E079D064
:1013000063E084E076D062ED79E08CE0F2DB6DE6BC
:1013100079E08DE0EEDB20E040E06AE08AE032DF59
:1013200020E040E06CE088E02DDF21E043E068E071
:1013300081E028DF20E044E063E082E023DF7FCD2E
:1013400082E892E09F938F934ADF0F900F90089569
:1013500088E272D960E081E04CD062E081E049D05F
:1013600061E083E046D063E084E043D062ED79E061
:101370008CE0BFDB60EA79E08DE0BBDB20E040E0A1
:101380006AE087E0FFDE20E040E06CE088E0FADE23
:1013900021E043E068E081E0F5DE20E044E063E046
:1013A00082E0F0CE89E992E09F938F9318DF84EA80
:1013B00092E09F938F9313DF84EB92E09F938F9340
:1013C0000EDF8EED92E09F938F9309DF84EF92E022
:1013D0009F938F9304DF8AE093E09F938F93FFDEC8
:1013E0008DB79EB70C960FB6F8949EBF0FBE8DBFFB
:1013F0000895E82FF0E0EE0FFF1FEA5EFC4F28E0B3
:1014000049E08081918199CB80E293E09F938F9313
:10141000E6DE0F900F90089528E04DE060E084EA4A
:1014200094E08BDB28E04DE062E08CE394E085DB28
:1014300028E04DE061E084ED93E07FDB28E04DE0C3
:1014400063E08CE693E079DB88E2F6D820E040E0C8
:101450006AE08AE097DE20E040E06CE08BE092DE1C
:1014600021E045E061E083E08DDE20E045E06BE0D7
:1014700083E088DE21E043E068E081E083DE21E074
:1014800044E064E082E07EDEDADC11DA64E07AE0F7
:101490008DE02FCB85D9A8D98823E9F3BAD8C82FF6
:1014A000803A29F082E015DBFC018C2F1995CAD80F
:1014B000F2CF97FB072E16F4009406D077FD08D0E4
:1014C00013D007FC05D03EF4909581959F4F089569
:1014D000709561957F4F0895EE0FFF1F881F8BBF9A
:1014E0000790F691E02D1994AA1BBB1B51E107C090
:1014F000AA1FBB1FA617B70710F0A61BB70B881FA4
:10150000991F5A95A9F780959095BC01CD01089532
:10151000DC0101C06D9341505040E0F708952F92D7
:101520003F924F925F926F927F928F929F92AF9273
:10153000BF92CF92DF92EF92FF920F931F93CF93C0
:10154000DF93CDB7DEB72F970FB6F894DEBF0FBE8F
:10155000CDBF7C013B018A01DC0117961C921E92D3
:10156000169713968C9181FFC6C19AE0292EFE0131
:1015700031964F01D70113969C91F30193FD85910C
:1015800093FF81913F01882309F43AC1853239F4F0
:1015900093FD859193FF81913F01853221F4B7013D
:1015A00090E0C2D1E7CFB12C412C512CBFE1B51551
:1015B00038F08B3209F188F4803201F1833221F165
:1015C00057FC3AC020ED280F2A3040F556FE1FC0C8
:1015D000B29C200D1124B22E06C08D3291F08033C2
:1015E00079F7689450F8F30193FD859193FF819109
:1015F0003F018111DBCF20C0689451F8689452F804
:10160000F2CF689453F8EFCF689454F8ECCF429C33
:10161000200D1124422E689455F8E5CF8E3229F41E
:1016200056FCEEC0689456F8DECF8C3619F46894F8
:1016300057F8D9CF8836B9F2982F9F7D95549330BB
:10164000B8F0833671F1833791F1833509F056C0D4
:10165000D801CD90DD908D016B2D70E056FC02C05D
:101660006FEF7FEFC6014AD15C01689457F80AC05A
:101670000C5F1F4FEFE3E983AA24A394B12C64010C
:10168000E89457F853FE26C0342CA114B10439F560
:10169000332009F46FCFB70180E290E045D13A944E
:1016A000F7CFD8018C9189830E5F1F4FE5CFF801EA
:1016B000C190D1908F016B2D70E056FC02C06FEF8E
:1016C0007FEFC60126D15C01DBCFB70180E290E05D
:1016D0002BD14A944A141B0409F0B8F7D5CFF60170
:1016E00057FC859157FE81916F01B70190E01CD1A5
:1016F00031103A94B1E0AB1AB108C7CF843619F073
:10170000893609F06DC0F80157FE63C0619171918F
:10171000819191918F01E52DEF76DE2E97FF09C023
:1017200090958095709561957F4F8F4F9F4F6894EE
:10173000D7F82AE030E0A40127D1C82EC818AC2C75
:101740005D2CD6FE0CC0E89450F8CB1440F4D4FEC7
:1017500005C0D2FC03C05D2D5E7E552EAB2C54FE21
:10176000A4C0FE01EC0DF11D8081803309F096C00C
:10177000652D697E562E752D7870372E53FCA3C0CB
:1017800050FE9DC0BC2CA41410F4B40CBA1854FE26
:10179000A0C0B70180E390E0C7D052FE06C088E742
:1017A00051FC88E590E0B701BFD0CB1408F49DC090
:1017B000CA94D12C8FEFC81AD80AC80CD91CD601EC
:1017C0008E916D01B70190E0AFD08C149D04B9F7F4
:1017D0005FCF61917191072E000C880B990B9ACF06
:1017E000D52CE894D4F82AE08537D1F1F52DF97F8E
:1017F000DF2E803749F100F5883549F18F3679F1D0
:10180000F701868197812F960FB6F894DEBF0FBE41
:10181000CDBFDF91CF911F910F91FF90EF90DF909F
:10182000CF90BF90AF909F908F907F906F905F9080
:101830004F903F902F900895883711F7D4FE02C043
:101840006894D2F820E10CC06894D4F8F7CF54FE25
:1018500003C02F2F2660D22E20E132E002C028E004
:1018600030E0F801D7FE14C041915191619171911E
:101870004C875D876E877F878F01A4016C857D858E
:101880008E859F8581D0C82EC818E894D7F857CF89
:1018900081919191AC0170E060E0EACF52FC02C00E
:1018A000A39469CFA394A39466CF852D867809F479
:1018B00062CFF6CFB70180E290E036D0A394A414B3
:1018C000C8F3312C64CF342C3A18A41408F45FCF39
:1018D000F8CF852D867809F468CF8BE251FE80E23F
:1018E00057FC8DE2B70190E05FCFB70180E390E055
:1018F0001BD0BA945ACF8FEF9FEF85CFFC01059094
:10190000615070400110D8F7809590958E0F9F1F01
:101910000895FC016150704001900110D8F7809546
:1019200090958E0F9F1F08950F931F93CF93DF9372
:10193000182F092FEB018B8181FD09C01FEF0FEFDD
:10194000812F902FDF91CF911F910F91089582FFEA
:1019500014C02E813F818C819D81281739073CF46A
:10196000E881F981CF0101969983888310838E8164
:101970009F8101969F838E83E3CFE885F985812F30
:101980001995892BA1F3DACFFA01AA27283051F152
:10199000203181F1E8946F936E7F6E5F7F4F8F4FA0
:1019A0009F4FAF4FB1E03ED0B4E03CD0670F781FFF
:1019B000891F9A1FA11D680F791F8A1F911DA11DE4
:1019C0006A0F711D811D911DA11D20D009F468941D
:1019D0003F912AE0269F11243019305D3193DEF6C5
:1019E000CF010895462F4770405D4193B3E00FD07B
:1019F000C9F7F6CF462F4F70405D4A3318F0495D66
:101A000031FD4052419302D0A9F7EACFB4E0A69548
:101A10009795879577956795BA95C9F7009761056A
:101A2000710508959B01AC010A2E069457954795C0
:101A300037952795BA95C9F7620F731F841F951FB5
:101A4000A01D0895F894FFCFB202E302E202E10282
:101A5000E002DF02DE02B202DD02DC02DB02DA02B9
:101A6000D902D802D602D402D202D002CE02CC02CF
:101A7000CA02C802C602B202C402C202C002BE0248
:101A8000BC02BA02B802B602B402EF02E702E702F1
:101A9000E702F002F102E702F202F302F402F502B9
:041AA000F602F70251
:101AA4000B0400000C040000140400001C040000DB
:101AB400240400002C040000340400003C04000052
:101AC400440400004C040000F9030000FF0300007C
:101AD400050400000000000200000000F8020000FD
:101AE400000000010201030303035B4B65796D6190
:101AF400703A20636C61737369635D0A00BC012CE6
:101B0400017401E4005B4B65796D61703A204170AA
:101B1400706C6520322028752F6C206361736529F1
:101B24005D005B4B65796D61703A204170706C6546
:101B3400203220434150535D00313020474554202A
:101B440041240D0032302041203D2041534328419F
:101B540024290D0033302049462041203C203332D3
:101B6400205448454E2041243D2243544C2B222BE3
:101B7400434852242841202B203634290D00343088
:101B8400203F2227223B41243B2227203D20223B89
:101B9400413A0D0035302049462041203C3E203357
:101BA40020474F544F2031300D00363020454E44ED
:101BB4000D52554E0D0024034C02DC029402040223
:101BC4005B4B657962643A20536F6C2D32305D0053
:00000001FF
